{
  "address": "0x48Dc65b5999FDeF369e4311396F4a5a85A731971",
  "abi": [
    {
      "inputs": [
        {
          "internalType": "address",
          "name": "priceFeedAddress",
          "type": "address"
        }
      ],
      "stateMutability": "nonpayable",
      "type": "constructor"
    },
    {
      "inputs": [],
      "name": "FundMe__NotOwner",
      "type": "error"
    },
    {
      "stateMutability": "payable",
      "type": "fallback"
    },
    {
      "inputs": [],
      "name": "MINIMUM_USD",
      "outputs": [
        {
          "internalType": "uint256",
          "name": "",
          "type": "uint256"
        }
      ],
      "stateMutability": "view",
      "type": "function"
    },
    {
      "inputs": [],
      "name": "cheaperWithdraw",
      "outputs": [],
      "stateMutability": "nonpayable",
      "type": "function"
    },
    {
      "inputs": [],
      "name": "fund",
      "outputs": [],
      "stateMutability": "payable",
      "type": "function"
    },
    {
      "inputs": [
        {
          "internalType": "address",
          "name": "funder",
          "type": "address"
        }
      ],
      "name": "getAddressToAmountFunded",
      "outputs": [
        {
          "internalType": "uint256",
          "name": "",
          "type": "uint256"
        }
      ],
      "stateMutability": "view",
      "type": "function"
    },
    {
      "inputs": [
        {
          "internalType": "uint256",
          "name": "index",
          "type": "uint256"
        }
      ],
      "name": "getFunder",
      "outputs": [
        {
          "internalType": "address",
          "name": "",
          "type": "address"
        }
      ],
      "stateMutability": "view",
      "type": "function"
    },
    {
      "inputs": [],
      "name": "getFundersLength",
      "outputs": [
        {
          "internalType": "uint256",
          "name": "",
          "type": "uint256"
        }
      ],
      "stateMutability": "view",
      "type": "function"
    },
    {
      "inputs": [],
      "name": "getOwner",
      "outputs": [
        {
          "internalType": "address",
          "name": "",
          "type": "address"
        }
      ],
      "stateMutability": "view",
      "type": "function"
    },
    {
      "inputs": [],
      "name": "getPrice",
      "outputs": [
        {
          "internalType": "uint256",
          "name": "",
          "type": "uint256"
        }
      ],
      "stateMutability": "view",
      "type": "function"
    },
    {
      "inputs": [],
      "name": "getPriceFeed",
      "outputs": [
        {
          "internalType": "contract AggregatorV3Interface",
          "name": "",
          "type": "address"
        }
      ],
      "stateMutability": "view",
      "type": "function"
    },
    {
      "inputs": [],
      "name": "withdraw",
      "outputs": [],
      "stateMutability": "payable",
      "type": "function"
    },
    {
      "stateMutability": "payable",
      "type": "receive"
    }
  ],
  "transactionHash": "0x28bcbac2f1b80a980248a0a385e2ad468837b4301904eaf9a06ed04005067ce5",
  "args": [
    "0xD4a33860578De61DBAbDc8BFdb98FD742fA7028e"
  ],
  "numDeployments": 2,
  "solcInputHash": "f8eab29c6b1f44a269063532ee069105",
  "bytecode": "0x60a06040523480156200001157600080fd5b506040516200139238038062001392833981810160405281019062000037919062000120565b3373ffffffffffffffffffffffffffffffffffffffff1660808173ffffffffffffffffffffffffffffffffffffffff1660601b8152505080600260006101000a81548173ffffffffffffffffffffffffffffffffffffffff021916908373ffffffffffffffffffffffffffffffffffffffff1602179055505062000152565b600080fd5b600073ffffffffffffffffffffffffffffffffffffffff82169050919050565b6000620000e882620000bb565b9050919050565b620000fa81620000db565b81146200010657600080fd5b50565b6000815190506200011a81620000ef565b92915050565b600060208284031215620001395762000138620000b6565b5b6000620001498482850162000109565b91505092915050565b60805160601c61120c62000186600039600081816103ad015281816105fb0152818161067d0152610873015261120c6000f3fe6080604052600436106100955760003560e01c80639e87a5cd116100595780639e87a5cd14610176578063b60d4288146101a1578063be2693f0146101ab578063c90e7566146101c2578063d7b4750c146101ed576100a4565b80630343fb25146100ae5780633ccfd60b146100eb5780636b69a592146100f5578063893d20e81461012057806398d5fdca1461014b576100a4565b366100a4576100a261022a565b005b6100ac61022a565b005b3480156100ba57600080fd5b506100d560048036038101906100d09190610b44565b610363565b6040516100e29190610b8a565b60405180910390f35b6100f36103ab565b005b34801561010157600080fd5b5061010a6105eb565b6040516101179190610b8a565b60405180910390f35b34801561012c57600080fd5b506101356105f7565b6040516101429190610bb4565b60405180910390f35b34801561015757600080fd5b5061016061061f565b60405161016d9190610b8a565b60405180910390f35b34801561018257600080fd5b5061018b610651565b6040516101989190610c2e565b60405180910390f35b6101a961022a565b005b3480156101b757600080fd5b506101c061067b565b005b3480156101ce57600080fd5b506101d7610909565b6040516101e49190610b8a565b60405180910390f35b3480156101f957600080fd5b50610214600480360381019061020f9190610c75565b610916565b6040516102219190610bb4565b60405180910390f35b670de0b6b3a7640000610268600260009054906101000a900473ffffffffffffffffffffffffffffffffffffffff163461095e90919063ffffffff16565b10156102a9576040517f08c379a00000000000000000000000000000000000000000000000000000000081526004016102a090610cff565b60405180910390fd5b6001339080600181540180825580915050600190039060005260206000200160009091909190916101000a81548173ffffffffffffffffffffffffffffffffffffffff021916908373ffffffffffffffffffffffffffffffffffffffff160217905550346000803373ffffffffffffffffffffffffffffffffffffffff1673ffffffffffffffffffffffffffffffffffffffff168152602001908152602001600020600082825461035a9190610d4e565b92505081905550565b60008060008373ffffffffffffffffffffffffffffffffffffffff1673ffffffffffffffffffffffffffffffffffffffff168152602001908152602001600020549050919050565b7f000000000000000000000000000000000000000000000000000000000000000073ffffffffffffffffffffffffffffffffffffffff163373ffffffffffffffffffffffffffffffffffffffff1614610430576040517f579610db00000000000000000000000000000000000000000000000000000000815260040160405180910390fd5b60005b6001805490508110156104db5760006001828154811061045657610455610da4565b5b9060005260206000200160009054906101000a900473ffffffffffffffffffffffffffffffffffffffff16905060008060008373ffffffffffffffffffffffffffffffffffffffff1673ffffffffffffffffffffffffffffffffffffffff168152602001908152602001600020819055505080806104d390610dd3565b915050610433565b50600067ffffffffffffffff8111156104f7576104f6610e1c565b5b6040519080825280602002602001820160405280156105255781602001602082028036833780820191505090505b506001908051906020019061053b929190610a3a565b5060003373ffffffffffffffffffffffffffffffffffffffff164760405161056290610e7c565b60006040518083038185875af1925050503d806000811461059f576040519150601f19603f3d011682016040523d82523d6000602084013e6105a4565b606091505b50509050806105e8576040517f08c379a00000000000000000000000000000000000000000000000000000000081526004016105df90610edd565b60405180910390fd5b50565b670de0b6b3a764000081565b60007f0000000000000000000000000000000000000000000000000000000000000000905090565b600061064c600260009054906101000a900473ffffffffffffffffffffffffffffffffffffffff1661099a565b905090565b6000600260009054906101000a900473ffffffffffffffffffffffffffffffffffffffff16905090565b7f000000000000000000000000000000000000000000000000000000000000000073ffffffffffffffffffffffffffffffffffffffff163373ffffffffffffffffffffffffffffffffffffffff1614610700576040517f579610db00000000000000000000000000000000000000000000000000000000815260040160405180910390fd5b6000600180548060200260200160405190810160405280929190818152602001828054801561078457602002820191906000526020600020905b8160009054906101000a900473ffffffffffffffffffffffffffffffffffffffff1673ffffffffffffffffffffffffffffffffffffffff168152602001906001019080831161073a575b5050505050905060005b815181101561080e5760008282815181106107ac576107ab610da4565b5b6020026020010151905060008060008373ffffffffffffffffffffffffffffffffffffffff1673ffffffffffffffffffffffffffffffffffffffff1681526020019081526020016000208190555050808061080690610dd3565b91505061078e565b50600067ffffffffffffffff81111561082a57610829610e1c565b5b6040519080825280602002602001820160405280156108585781602001602082028036833780820191505090505b506001908051906020019061086e929190610a3a565b5060007f000000000000000000000000000000000000000000000000000000000000000073ffffffffffffffffffffffffffffffffffffffff16476040516108b590610e7c565b60006040518083038185875af1925050503d80600081146108f2576040519150601f19603f3d011682016040523d82523d6000602084013e6108f7565b606091505b505090508061090557600080fd5b5050565b6000600180549050905090565b60006001828154811061092c5761092b610da4565b5b9060005260206000200160009054906101000a900473ffffffffffffffffffffffffffffffffffffffff169050919050565b60008061096a8361099a565b90506000670de0b6b3a764000085836109839190610efd565b61098d9190610f86565b9050809250505092915050565b6000808273ffffffffffffffffffffffffffffffffffffffff1663feaf968c6040518163ffffffff1660e01b815260040160a06040518083038186803b1580156109e357600080fd5b505afa1580156109f7573d6000803e3d6000fd5b505050506040513d601f19601f82011682018060405250810190610a1b9190611044565b5050509150506402540be40081610a3291906110bf565b915050919050565b828054828255906000526020600020908101928215610ab3579160200282015b82811115610ab25782518260006101000a81548173ffffffffffffffffffffffffffffffffffffffff021916908373ffffffffffffffffffffffffffffffffffffffff16021790555091602001919060010190610a5a565b5b509050610ac09190610ac4565b5090565b5b80821115610add576000816000905550600101610ac5565b5090565b600080fd5b600073ffffffffffffffffffffffffffffffffffffffff82169050919050565b6000610b1182610ae6565b9050919050565b610b2181610b06565b8114610b2c57600080fd5b50565b600081359050610b3e81610b18565b92915050565b600060208284031215610b5a57610b59610ae1565b5b6000610b6884828501610b2f565b91505092915050565b6000819050919050565b610b8481610b71565b82525050565b6000602082019050610b9f6000830184610b7b565b92915050565b610bae81610b06565b82525050565b6000602082019050610bc96000830184610ba5565b92915050565b6000819050919050565b6000610bf4610bef610bea84610ae6565b610bcf565b610ae6565b9050919050565b6000610c0682610bd9565b9050919050565b6000610c1882610bfb565b9050919050565b610c2881610c0d565b82525050565b6000602082019050610c436000830184610c1f565b92915050565b610c5281610b71565b8114610c5d57600080fd5b50565b600081359050610c6f81610c49565b92915050565b600060208284031215610c8b57610c8a610ae1565b5b6000610c9984828501610c60565b91505092915050565b600082825260208201905092915050565b7f596f75206e65656420746f207370656e64206d6f726520455448210000000000600082015250565b6000610ce9601b83610ca2565b9150610cf482610cb3565b602082019050919050565b60006020820190508181036000830152610d1881610cdc565b9050919050565b7f4e487b7100000000000000000000000000000000000000000000000000000000600052601160045260246000fd5b6000610d5982610b71565b9150610d6483610b71565b9250827fffffffffffffffffffffffffffffffffffffffffffffffffffffffffffffffff03821115610d9957610d98610d1f565b5b828201905092915050565b7f4e487b7100000000000000000000000000000000000000000000000000000000600052603260045260246000fd5b6000610dde82610b71565b91507fffffffffffffffffffffffffffffffffffffffffffffffffffffffffffffffff821415610e1157610e10610d1f565b5b600182019050919050565b7f4e487b7100000000000000000000000000000000000000000000000000000000600052604160045260246000fd5b600081905092915050565b50565b6000610e66600083610e4b565b9150610e7182610e56565b600082019050919050565b6000610e8782610e59565b9150819050919050565b7f43616c6c206661696c6564000000000000000000000000000000000000000000600082015250565b6000610ec7600b83610ca2565b9150610ed282610e91565b602082019050919050565b60006020820190508181036000830152610ef681610eba565b9050919050565b6000610f0882610b71565b9150610f1383610b71565b9250817fffffffffffffffffffffffffffffffffffffffffffffffffffffffffffffffff0483118215151615610f4c57610f4b610d1f565b5b828202905092915050565b7f4e487b7100000000000000000000000000000000000000000000000000000000600052601260045260246000fd5b6000610f9182610b71565b9150610f9c83610b71565b925082610fac57610fab610f57565b5b828204905092915050565b600069ffffffffffffffffffff82169050919050565b610fd681610fb7565b8114610fe157600080fd5b50565b600081519050610ff381610fcd565b92915050565b6000819050919050565b61100c81610ff9565b811461101757600080fd5b50565b60008151905061102981611003565b92915050565b60008151905061103e81610c49565b92915050565b600080600080600060a086880312156110605761105f610ae1565b5b600061106e88828901610fe4565b955050602061107f8882890161101a565b94505060406110908882890161102f565b93505060606110a18882890161102f565b92505060806110b288828901610fe4565b9150509295509295909350565b60006110ca82610ff9565b91506110d583610ff9565b9250827f7fffffffffffffffffffffffffffffffffffffffffffffffffffffffffffffff048211600084136000841316161561111457611113610d1f565b5b817f8000000000000000000000000000000000000000000000000000000000000000058312600084126000841316161561115157611150610d1f565b5b827f8000000000000000000000000000000000000000000000000000000000000000058212600084136000841216161561118e5761118d610d1f565b5b827f7fffffffffffffffffffffffffffffffffffffffffffffffffffffffffffffff05821260008412600084121616156111cb576111ca610d1f565b5b82820290509291505056fea26469706673582212206bbb84e7a5a851806b1afe86a3ded894c8f7632848b1767f3fa6046b42141bb864736f6c63430008080033",
  "devdoc": {
    "author": "Ramon Royo",
    "details": "This implements price feeds as our library",
    "kind": "dev",
    "methods": {},
    "title": "A contract for crown funding",
    "version": 1
  },
  "userdoc": {
    "kind": "user",
    "methods": {},
    "notice": "This contract is to demo a sample funding contract",
    "version": 1
  },
  "storageLayout": {
    "storage": [
      {
        "astId": 59,
        "contract": "contracts/FundMe.sol:FundMe",
        "label": "s_addressToAmountFunded",
        "offset": 0,
        "slot": "0",
        "type": "t_mapping(t_address,t_uint256)"
      },
      {
        "astId": 62,
        "contract": "contracts/FundMe.sol:FundMe",
        "label": "s_funders",
        "offset": 0,
        "slot": "1",
        "type": "t_array(t_address)dyn_storage"
      },
      {
        "astId": 72,
        "contract": "contracts/FundMe.sol:FundMe",
        "label": "s_priceFeed",
        "offset": 0,
        "slot": "2",
        "type": "t_contract(AggregatorV3Interface)45"
      }
    ],
    "types": {
      "t_address": {
        "encoding": "inplace",
        "label": "address",
        "numberOfBytes": "20"
      },
      "t_array(t_address)dyn_storage": {
        "base": "t_address",
        "encoding": "dynamic_array",
        "label": "address[]",
        "numberOfBytes": "32"
      },
      "t_contract(AggregatorV3Interface)45": {
        "encoding": "inplace",
        "label": "contract AggregatorV3Interface",
        "numberOfBytes": "20"
      },
      "t_mapping(t_address,t_uint256)": {
        "encoding": "mapping",
        "key": "t_address",
        "label": "mapping(address => uint256)",
        "numberOfBytes": "32",
        "value": "t_uint256"
      },
      "t_uint256": {
        "encoding": "inplace",
        "label": "uint256",
        "numberOfBytes": "32"
      }
    }
  }
}