{
	"contracts/SimpleStorage.sol": {
		"SimpleStorage": {
			"abi": [
				{
					"inputs": [],
					"name": "add",
					"outputs": [
						{
							"internalType": "uint256",
							"name": "",
							"type": "uint256"
						}
					],
					"stateMutability": "pure",
					"type": "function"
				},
				{
					"inputs": [
						{
							"internalType": "string",
							"name": "_name",
							"type": "string"
						},
						{
							"internalType": "uint256",
							"name": "_favoriteNumber",
							"type": "uint256"
						}
					],
					"name": "addPerson",
					"outputs": [],
					"stateMutability": "nonpayable",
					"type": "function"
				},
				{
					"inputs": [
						{
							"internalType": "uint256",
							"name": "",
							"type": "uint256"
						}
					],
					"name": "favoriteNumbers",
					"outputs": [
						{
							"internalType": "uint256",
							"name": "",
							"type": "uint256"
						}
					],
					"stateMutability": "view",
					"type": "function"
				},
				{
					"inputs": [
						{
							"internalType": "uint256",
							"name": "",
							"type": "uint256"
						}
					],
					"name": "people",
					"outputs": [
						{
							"internalType": "uint256",
							"name": "favoriteNumber",
							"type": "uint256"
						},
						{
							"internalType": "string",
							"name": "name",
							"type": "string"
						}
					],
					"stateMutability": "view",
					"type": "function"
				},
				{
					"inputs": [],
					"name": "retrieve",
					"outputs": [
						{
							"internalType": "uint256",
							"name": "",
							"type": "uint256"
						}
					],
					"stateMutability": "view",
					"type": "function"
				},
				{
					"inputs": [
						{
							"internalType": "uint256",
							"name": "_favoriteNumber",
							"type": "uint256"
						}
					],
					"name": "store",
					"outputs": [],
					"stateMutability": "nonpayable",
					"type": "function"
				}
			],
			"devdoc": {
				"kind": "dev",
				"methods": {},
				"version": 1
			},
			"evm": {
				"assembly": "    /* \"contracts/SimpleStorage.sol\":57:790  contract SimpleStorage {... */\n  mstore(0x40, 0x80)\n  callvalue\n  dup1\n  iszero\n  tag_1\n  jumpi\n  0x00\n  dup1\n  revert\ntag_1:\n  pop\n  dataSize(sub_0)\n  dup1\n  dataOffset(sub_0)\n  0x00\n  codecopy\n  0x00\n  return\nstop\n\nsub_0: assembly {\n        /* \"contracts/SimpleStorage.sol\":57:790  contract SimpleStorage {... */\n      mstore(0x40, 0x80)\n      callvalue\n      dup1\n      iszero\n      tag_1\n      jumpi\n      0x00\n      dup1\n      revert\n    tag_1:\n      pop\n      jumpi(tag_2, lt(calldatasize, 0x04))\n      shr(0xe0, calldataload(0x00))\n      dup1\n      0x29cd1d96\n      eq\n      tag_3\n      jumpi\n      dup1\n      0x2e64cec1\n      eq\n      tag_4\n      jumpi\n      dup1\n      0x4f2be91f\n      eq\n      tag_5\n      jumpi\n      dup1\n      0x6057361d\n      eq\n      tag_6\n      jumpi\n      dup1\n      0x6f760f41\n      eq\n      tag_7\n      jumpi\n      dup1\n      0x9e7a13ad\n      eq\n      tag_8\n      jumpi\n    tag_2:\n      0x00\n      dup1\n      revert\n        /* \"contracts/SimpleStorage.sol\":205:237  uint256[] public favoriteNumbers */\n    tag_3:\n      tag_9\n      0x04\n      dup1\n      calldatasize\n      sub\n      dup2\n      add\n      swap1\n      tag_10\n      swap2\n      swap1\n      tag_11\n      jump\t// in\n    tag_10:\n      tag_12\n      jump\t// in\n    tag_9:\n      mload(0x40)\n      tag_13\n      swap2\n      swap1\n      tag_14\n      jump\t// in\n    tag_13:\n      mload(0x40)\n      dup1\n      swap2\n      sub\n      swap1\n      return\n        /* \"contracts/SimpleStorage.sol\":483:570  function retrieve() public view returns(uint256) {... */\n    tag_4:\n      tag_15\n      tag_16\n      jump\t// in\n    tag_15:\n      mload(0x40)\n      tag_17\n      swap2\n      swap1\n      tag_14\n      jump\t// in\n    tag_17:\n      mload(0x40)\n      dup1\n      swap2\n      sub\n      swap1\n      return\n        /* \"contracts/SimpleStorage.sol\":576:651  function add() public pure returns(uint256) {... */\n    tag_5:\n      tag_18\n      tag_19\n      jump\t// in\n    tag_18:\n      mload(0x40)\n      tag_20\n      swap2\n      swap1\n      tag_14\n      jump\t// in\n    tag_20:\n      mload(0x40)\n      dup1\n      swap2\n      sub\n      swap1\n      return\n        /* \"contracts/SimpleStorage.sol\":273:389  function store(uint256 _favoriteNumber) public {... */\n    tag_6:\n      tag_21\n      0x04\n      dup1\n      calldatasize\n      sub\n      dup2\n      add\n      swap1\n      tag_22\n      swap2\n      swap1\n      tag_11\n      jump\t// in\n    tag_22:\n      tag_23\n      jump\t// in\n    tag_21:\n      stop\n        /* \"contracts/SimpleStorage.sol\":657:788  function addPerson(string memory _name, uint256 _favoriteNumber) public {... */\n    tag_7:\n      tag_24\n      0x04\n      dup1\n      calldatasize\n      sub\n      dup2\n      add\n      swap1\n      tag_25\n      swap2\n      swap1\n      tag_26\n      jump\t// in\n    tag_25:\n      tag_27\n      jump\t// in\n    tag_24:\n      stop\n        /* \"contracts/SimpleStorage.sol\":243:266  People[5] public people */\n    tag_8:\n      tag_28\n      0x04\n      dup1\n      calldatasize\n      sub\n      dup2\n      add\n      swap1\n      tag_29\n      swap2\n      swap1\n      tag_11\n      jump\t// in\n    tag_29:\n      tag_30\n      jump\t// in\n    tag_28:\n      mload(0x40)\n      tag_31\n      swap3\n      swap2\n      swap1\n      tag_32\n      jump\t// in\n    tag_31:\n      mload(0x40)\n      dup1\n      swap2\n      sub\n      swap1\n      return\n        /* \"contracts/SimpleStorage.sol\":205:237  uint256[] public favoriteNumbers */\n    tag_12:\n      0x01\n      dup2\n      dup2\n      sload\n      dup2\n      lt\n      tag_33\n      jumpi\n      0x00\n      dup1\n      revert\n    tag_33:\n      swap1\n      0x00\n      mstore\n      keccak256(0x00, 0x20)\n      add\n      0x00\n      swap2\n      pop\n      swap1\n      pop\n      sload\n      dup2\n      jump\t// out\n        /* \"contracts/SimpleStorage.sol\":483:570  function retrieve() public view returns(uint256) {... */\n    tag_16:\n        /* \"contracts/SimpleStorage.sol\":523:530  uint256 */\n      0x00\n        /* \"contracts/SimpleStorage.sol\":549:563  favoriteNumber */\n      dup1\n      sload\n        /* \"contracts/SimpleStorage.sol\":542:563  return favoriteNumber */\n      swap1\n      pop\n        /* \"contracts/SimpleStorage.sol\":483:570  function retrieve() public view returns(uint256) {... */\n      swap1\n      jump\t// out\n        /* \"contracts/SimpleStorage.sol\":576:651  function add() public pure returns(uint256) {... */\n    tag_19:\n        /* \"contracts/SimpleStorage.sol\":611:618  uint256 */\n      0x00\n        /* \"contracts/SimpleStorage.sol\":638:643  1 + 1 */\n      0x02\n        /* \"contracts/SimpleStorage.sol\":630:644  return (1 + 1) */\n      swap1\n      pop\n        /* \"contracts/SimpleStorage.sol\":576:651  function add() public pure returns(uint256) {... */\n      swap1\n      jump\t// out\n        /* \"contracts/SimpleStorage.sol\":273:389  function store(uint256 _favoriteNumber) public {... */\n    tag_23:\n        /* \"contracts/SimpleStorage.sol\":347:362  _favoriteNumber */\n      dup1\n        /* \"contracts/SimpleStorage.sol\":330:344  favoriteNumber */\n      0x00\n        /* \"contracts/SimpleStorage.sol\":330:362  favoriteNumber = _favoriteNumber */\n      dup2\n      swap1\n      sstore\n      pop\n        /* \"contracts/SimpleStorage.sol\":372:382  retrieve() */\n      tag_38\n        /* \"contracts/SimpleStorage.sol\":372:380  retrieve */\n      tag_16\n        /* \"contracts/SimpleStorage.sol\":372:382  retrieve() */\n      jump\t// in\n    tag_38:\n      pop\n        /* \"contracts/SimpleStorage.sol\":273:389  function store(uint256 _favoriteNumber) public {... */\n      pop\n      jump\t// out\n        /* \"contracts/SimpleStorage.sol\":657:788  function addPerson(string memory _name, uint256 _favoriteNumber) public {... */\n    tag_27:\n        /* \"contracts/SimpleStorage.sol\":751:781  People(_favoriteNumber, _name) */\n      mload(0x40)\n      dup1\n      0x40\n      add\n      0x40\n      mstore\n      dup1\n        /* \"contracts/SimpleStorage.sol\":758:773  _favoriteNumber */\n      dup3\n        /* \"contracts/SimpleStorage.sol\":751:781  People(_favoriteNumber, _name) */\n      dup2\n      mstore\n      0x20\n      add\n        /* \"contracts/SimpleStorage.sol\":775:780  _name */\n      dup4\n        /* \"contracts/SimpleStorage.sol\":751:781  People(_favoriteNumber, _name) */\n      dup2\n      mstore\n      pop\n        /* \"contracts/SimpleStorage.sol\":739:745  people */\n      0x02\n        /* \"contracts/SimpleStorage.sol\":746:747  0 */\n      0x00\n        /* \"contracts/SimpleStorage.sol\":739:748  people[0] */\n      0x05\n      dup2\n      lt\n      tag_40\n      jumpi\n      tag_41\n      tag_42\n      jump\t// in\n    tag_41:\n    tag_40:\n      0x02\n      mul\n      add\n        /* \"contracts/SimpleStorage.sol\":739:781  people[0] = People(_favoriteNumber, _name) */\n      0x00\n      dup3\n      add\n      mload\n      dup2\n      0x00\n      add\n      sstore\n      0x20\n      dup3\n      add\n      mload\n      dup2\n      0x01\n      add\n      swap1\n      dup2\n      tag_44\n      swap2\n      swap1\n      tag_45\n      jump\t// in\n    tag_44:\n      pop\n      swap1\n      pop\n      pop\n        /* \"contracts/SimpleStorage.sol\":657:788  function addPerson(string memory _name, uint256 _favoriteNumber) public {... */\n      pop\n      pop\n      jump\t// out\n        /* \"contracts/SimpleStorage.sol\":243:266  People[5] public people */\n    tag_30:\n      0x02\n      dup2\n      0x05\n      dup2\n      lt\n      tag_46\n      jumpi\n      0x00\n      dup1\n      revert\n    tag_46:\n      0x02\n      mul\n      add\n      0x00\n      swap2\n      pop\n      swap1\n      pop\n      dup1\n      0x00\n      add\n      sload\n      swap1\n      dup1\n      0x01\n      add\n      dup1\n      sload\n      tag_48\n      swap1\n      tag_49\n      jump\t// in\n    tag_48:\n      dup1\n      0x1f\n      add\n      0x20\n      dup1\n      swap2\n      div\n      mul\n      0x20\n      add\n      mload(0x40)\n      swap1\n      dup2\n      add\n      0x40\n      mstore\n      dup1\n      swap3\n      swap2\n      swap1\n      dup2\n      dup2\n      mstore\n      0x20\n      add\n      dup3\n      dup1\n      sload\n      tag_50\n      swap1\n      tag_49\n      jump\t// in\n    tag_50:\n      dup1\n      iszero\n      tag_51\n      jumpi\n      dup1\n      0x1f\n      lt\n      tag_52\n      jumpi\n      0x0100\n      dup1\n      dup4\n      sload\n      div\n      mul\n      dup4\n      mstore\n      swap2\n      0x20\n      add\n      swap2\n      jump(tag_51)\n    tag_52:\n      dup3\n      add\n      swap2\n      swap1\n      0x00\n      mstore\n      keccak256(0x00, 0x20)\n      swap1\n    tag_53:\n      dup2\n      sload\n      dup2\n      mstore\n      swap1\n      0x01\n      add\n      swap1\n      0x20\n      add\n      dup1\n      dup4\n      gt\n      tag_53\n      jumpi\n      dup3\n      swap1\n      sub\n      0x1f\n      and\n      dup3\n      add\n      swap2\n    tag_51:\n      pop\n      pop\n      pop\n      pop\n      pop\n      swap1\n      pop\n      dup3\n      jump\t// out\n        /* \"#utility.yul\":7:82   */\n    tag_54:\n        /* \"#utility.yul\":40:46   */\n      0x00\n        /* \"#utility.yul\":73:75   */\n      0x40\n        /* \"#utility.yul\":67:76   */\n      mload\n        /* \"#utility.yul\":57:76   */\n      swap1\n      pop\n        /* \"#utility.yul\":7:82   */\n      swap1\n      jump\t// out\n        /* \"#utility.yul\":88:205   */\n    tag_55:\n        /* \"#utility.yul\":197:198   */\n      0x00\n        /* \"#utility.yul\":194:195   */\n      dup1\n        /* \"#utility.yul\":187:199   */\n      revert\n        /* \"#utility.yul\":211:328   */\n    tag_56:\n        /* \"#utility.yul\":320:321   */\n      0x00\n        /* \"#utility.yul\":317:318   */\n      dup1\n        /* \"#utility.yul\":310:322   */\n      revert\n        /* \"#utility.yul\":334:411   */\n    tag_57:\n        /* \"#utility.yul\":371:378   */\n      0x00\n        /* \"#utility.yul\":400:405   */\n      dup2\n        /* \"#utility.yul\":389:405   */\n      swap1\n      pop\n        /* \"#utility.yul\":334:411   */\n      swap2\n      swap1\n      pop\n      jump\t// out\n        /* \"#utility.yul\":417:539   */\n    tag_58:\n        /* \"#utility.yul\":490:514   */\n      tag_97\n        /* \"#utility.yul\":508:513   */\n      dup2\n        /* \"#utility.yul\":490:514   */\n      tag_57\n      jump\t// in\n    tag_97:\n        /* \"#utility.yul\":483:488   */\n      dup2\n        /* \"#utility.yul\":480:515   */\n      eq\n        /* \"#utility.yul\":470:533   */\n      tag_98\n      jumpi\n        /* \"#utility.yul\":529:530   */\n      0x00\n        /* \"#utility.yul\":526:527   */\n      dup1\n        /* \"#utility.yul\":519:531   */\n      revert\n        /* \"#utility.yul\":470:533   */\n    tag_98:\n        /* \"#utility.yul\":417:539   */\n      pop\n      jump\t// out\n        /* \"#utility.yul\":545:684   */\n    tag_59:\n        /* \"#utility.yul\":591:596   */\n      0x00\n        /* \"#utility.yul\":629:635   */\n      dup2\n        /* \"#utility.yul\":616:636   */\n      calldataload\n        /* \"#utility.yul\":607:636   */\n      swap1\n      pop\n        /* \"#utility.yul\":645:678   */\n      tag_100\n        /* \"#utility.yul\":672:677   */\n      dup2\n        /* \"#utility.yul\":645:678   */\n      tag_58\n      jump\t// in\n    tag_100:\n        /* \"#utility.yul\":545:684   */\n      swap3\n      swap2\n      pop\n      pop\n      jump\t// out\n        /* \"#utility.yul\":690:1019   */\n    tag_11:\n        /* \"#utility.yul\":749:755   */\n      0x00\n        /* \"#utility.yul\":798:800   */\n      0x20\n        /* \"#utility.yul\":786:795   */\n      dup3\n        /* \"#utility.yul\":777:784   */\n      dup5\n        /* \"#utility.yul\":773:796   */\n      sub\n        /* \"#utility.yul\":769:801   */\n      slt\n        /* \"#utility.yul\":766:885   */\n      iszero\n      tag_102\n      jumpi\n        /* \"#utility.yul\":804:883   */\n      tag_103\n      tag_55\n      jump\t// in\n    tag_103:\n        /* \"#utility.yul\":766:885   */\n    tag_102:\n        /* \"#utility.yul\":924:925   */\n      0x00\n        /* \"#utility.yul\":949:1002   */\n      tag_104\n        /* \"#utility.yul\":994:1001   */\n      dup5\n        /* \"#utility.yul\":985:991   */\n      dup3\n        /* \"#utility.yul\":974:983   */\n      dup6\n        /* \"#utility.yul\":970:992   */\n      add\n        /* \"#utility.yul\":949:1002   */\n      tag_59\n      jump\t// in\n    tag_104:\n        /* \"#utility.yul\":939:1002   */\n      swap2\n      pop\n        /* \"#utility.yul\":895:1012   */\n      pop\n        /* \"#utility.yul\":690:1019   */\n      swap3\n      swap2\n      pop\n      pop\n      jump\t// out\n        /* \"#utility.yul\":1025:1143   */\n    tag_60:\n        /* \"#utility.yul\":1112:1136   */\n      tag_106\n        /* \"#utility.yul\":1130:1135   */\n      dup2\n        /* \"#utility.yul\":1112:1136   */\n      tag_57\n      jump\t// in\n    tag_106:\n        /* \"#utility.yul\":1107:1110   */\n      dup3\n        /* \"#utility.yul\":1100:1137   */\n      mstore\n        /* \"#utility.yul\":1025:1143   */\n      pop\n      pop\n      jump\t// out\n        /* \"#utility.yul\":1149:1371   */\n    tag_14:\n        /* \"#utility.yul\":1242:1246   */\n      0x00\n        /* \"#utility.yul\":1280:1282   */\n      0x20\n        /* \"#utility.yul\":1269:1278   */\n      dup3\n        /* \"#utility.yul\":1265:1283   */\n      add\n        /* \"#utility.yul\":1257:1283   */\n      swap1\n      pop\n        /* \"#utility.yul\":1293:1364   */\n      tag_108\n        /* \"#utility.yul\":1361:1362   */\n      0x00\n        /* \"#utility.yul\":1350:1359   */\n      dup4\n        /* \"#utility.yul\":1346:1363   */\n      add\n        /* \"#utility.yul\":1337:1343   */\n      dup5\n        /* \"#utility.yul\":1293:1364   */\n      tag_60\n      jump\t// in\n    tag_108:\n        /* \"#utility.yul\":1149:1371   */\n      swap3\n      swap2\n      pop\n      pop\n      jump\t// out\n        /* \"#utility.yul\":1377:1494   */\n    tag_61:\n        /* \"#utility.yul\":1486:1487   */\n      0x00\n        /* \"#utility.yul\":1483:1484   */\n      dup1\n        /* \"#utility.yul\":1476:1488   */\n      revert\n        /* \"#utility.yul\":1500:1617   */\n    tag_62:\n        /* \"#utility.yul\":1609:1610   */\n      0x00\n        /* \"#utility.yul\":1606:1607   */\n      dup1\n        /* \"#utility.yul\":1599:1611   */\n      revert\n        /* \"#utility.yul\":1623:1725   */\n    tag_63:\n        /* \"#utility.yul\":1664:1670   */\n      0x00\n        /* \"#utility.yul\":1715:1717   */\n      0x1f\n        /* \"#utility.yul\":1711:1718   */\n      not\n        /* \"#utility.yul\":1706:1708   */\n      0x1f\n        /* \"#utility.yul\":1699:1704   */\n      dup4\n        /* \"#utility.yul\":1695:1709   */\n      add\n        /* \"#utility.yul\":1691:1719   */\n      and\n        /* \"#utility.yul\":1681:1719   */\n      swap1\n      pop\n        /* \"#utility.yul\":1623:1725   */\n      swap2\n      swap1\n      pop\n      jump\t// out\n        /* \"#utility.yul\":1731:1911   */\n    tag_64:\n        /* \"#utility.yul\":1779:1856   */\n      0x4e487b7100000000000000000000000000000000000000000000000000000000\n        /* \"#utility.yul\":1776:1777   */\n      0x00\n        /* \"#utility.yul\":1769:1857   */\n      mstore\n        /* \"#utility.yul\":1876:1880   */\n      0x41\n        /* \"#utility.yul\":1873:1874   */\n      0x04\n        /* \"#utility.yul\":1866:1881   */\n      mstore\n        /* \"#utility.yul\":1900:1904   */\n      0x24\n        /* \"#utility.yul\":1897:1898   */\n      0x00\n        /* \"#utility.yul\":1890:1905   */\n      revert\n        /* \"#utility.yul\":1917:2198   */\n    tag_65:\n        /* \"#utility.yul\":2000:2027   */\n      tag_114\n        /* \"#utility.yul\":2022:2026   */\n      dup3\n        /* \"#utility.yul\":2000:2027   */\n      tag_63\n      jump\t// in\n    tag_114:\n        /* \"#utility.yul\":1992:1998   */\n      dup2\n        /* \"#utility.yul\":1988:2028   */\n      add\n        /* \"#utility.yul\":2130:2136   */\n      dup2\n        /* \"#utility.yul\":2118:2128   */\n      dup2\n        /* \"#utility.yul\":2115:2137   */\n      lt\n        /* \"#utility.yul\":2094:2112   */\n      0xffffffffffffffff\n        /* \"#utility.yul\":2082:2092   */\n      dup3\n        /* \"#utility.yul\":2079:2113   */\n      gt\n        /* \"#utility.yul\":2076:2138   */\n      or\n        /* \"#utility.yul\":2073:2161   */\n      iszero\n      tag_115\n      jumpi\n        /* \"#utility.yul\":2141:2159   */\n      tag_116\n      tag_64\n      jump\t// in\n    tag_116:\n        /* \"#utility.yul\":2073:2161   */\n    tag_115:\n        /* \"#utility.yul\":2181:2191   */\n      dup1\n        /* \"#utility.yul\":2177:2179   */\n      0x40\n        /* \"#utility.yul\":2170:2192   */\n      mstore\n        /* \"#utility.yul\":1960:2198   */\n      pop\n        /* \"#utility.yul\":1917:2198   */\n      pop\n      pop\n      jump\t// out\n        /* \"#utility.yul\":2204:2333   */\n    tag_66:\n        /* \"#utility.yul\":2238:2244   */\n      0x00\n        /* \"#utility.yul\":2265:2285   */\n      tag_118\n      tag_54\n      jump\t// in\n    tag_118:\n        /* \"#utility.yul\":2255:2285   */\n      swap1\n      pop\n        /* \"#utility.yul\":2294:2327   */\n      tag_119\n        /* \"#utility.yul\":2322:2326   */\n      dup3\n        /* \"#utility.yul\":2314:2320   */\n      dup3\n        /* \"#utility.yul\":2294:2327   */\n      tag_65\n      jump\t// in\n    tag_119:\n        /* \"#utility.yul\":2204:2333   */\n      swap2\n      swap1\n      pop\n      jump\t// out\n        /* \"#utility.yul\":2339:2647   */\n    tag_67:\n        /* \"#utility.yul\":2401:2405   */\n      0x00\n        /* \"#utility.yul\":2491:2509   */\n      0xffffffffffffffff\n        /* \"#utility.yul\":2483:2489   */\n      dup3\n        /* \"#utility.yul\":2480:2510   */\n      gt\n        /* \"#utility.yul\":2477:2533   */\n      iszero\n      tag_121\n      jumpi\n        /* \"#utility.yul\":2513:2531   */\n      tag_122\n      tag_64\n      jump\t// in\n    tag_122:\n        /* \"#utility.yul\":2477:2533   */\n    tag_121:\n        /* \"#utility.yul\":2551:2580   */\n      tag_123\n        /* \"#utility.yul\":2573:2579   */\n      dup3\n        /* \"#utility.yul\":2551:2580   */\n      tag_63\n      jump\t// in\n    tag_123:\n        /* \"#utility.yul\":2543:2580   */\n      swap1\n      pop\n        /* \"#utility.yul\":2635:2639   */\n      0x20\n        /* \"#utility.yul\":2629:2633   */\n      dup2\n        /* \"#utility.yul\":2625:2640   */\n      add\n        /* \"#utility.yul\":2617:2640   */\n      swap1\n      pop\n        /* \"#utility.yul\":2339:2647   */\n      swap2\n      swap1\n      pop\n      jump\t// out\n        /* \"#utility.yul\":2653:2799   */\n    tag_68:\n        /* \"#utility.yul\":2750:2756   */\n      dup3\n        /* \"#utility.yul\":2745:2748   */\n      dup2\n        /* \"#utility.yul\":2740:2743   */\n      dup4\n        /* \"#utility.yul\":2727:2757   */\n      calldatacopy\n        /* \"#utility.yul\":2791:2792   */\n      0x00\n        /* \"#utility.yul\":2782:2788   */\n      dup4\n        /* \"#utility.yul\":2777:2780   */\n      dup4\n        /* \"#utility.yul\":2773:2789   */\n      add\n        /* \"#utility.yul\":2766:2793   */\n      mstore\n        /* \"#utility.yul\":2653:2799   */\n      pop\n      pop\n      pop\n      jump\t// out\n        /* \"#utility.yul\":2805:3230   */\n    tag_69:\n        /* \"#utility.yul\":2883:2888   */\n      0x00\n        /* \"#utility.yul\":2908:2974   */\n      tag_126\n        /* \"#utility.yul\":2924:2973   */\n      tag_127\n        /* \"#utility.yul\":2966:2972   */\n      dup5\n        /* \"#utility.yul\":2924:2973   */\n      tag_67\n      jump\t// in\n    tag_127:\n        /* \"#utility.yul\":2908:2974   */\n      tag_66\n      jump\t// in\n    tag_126:\n        /* \"#utility.yul\":2899:2974   */\n      swap1\n      pop\n        /* \"#utility.yul\":2997:3003   */\n      dup3\n        /* \"#utility.yul\":2990:2995   */\n      dup2\n        /* \"#utility.yul\":2983:3004   */\n      mstore\n        /* \"#utility.yul\":3035:3039   */\n      0x20\n        /* \"#utility.yul\":3028:3033   */\n      dup2\n        /* \"#utility.yul\":3024:3040   */\n      add\n        /* \"#utility.yul\":3073:3076   */\n      dup5\n        /* \"#utility.yul\":3064:3070   */\n      dup5\n        /* \"#utility.yul\":3059:3062   */\n      dup5\n        /* \"#utility.yul\":3055:3071   */\n      add\n        /* \"#utility.yul\":3052:3077   */\n      gt\n        /* \"#utility.yul\":3049:3161   */\n      iszero\n      tag_128\n      jumpi\n        /* \"#utility.yul\":3080:3159   */\n      tag_129\n      tag_62\n      jump\t// in\n    tag_129:\n        /* \"#utility.yul\":3049:3161   */\n    tag_128:\n        /* \"#utility.yul\":3170:3224   */\n      tag_130\n        /* \"#utility.yul\":3217:3223   */\n      dup5\n        /* \"#utility.yul\":3212:3215   */\n      dup3\n        /* \"#utility.yul\":3207:3210   */\n      dup6\n        /* \"#utility.yul\":3170:3224   */\n      tag_68\n      jump\t// in\n    tag_130:\n        /* \"#utility.yul\":2889:3230   */\n      pop\n        /* \"#utility.yul\":2805:3230   */\n      swap4\n      swap3\n      pop\n      pop\n      pop\n      jump\t// out\n        /* \"#utility.yul\":3250:3590   */\n    tag_70:\n        /* \"#utility.yul\":3306:3311   */\n      0x00\n        /* \"#utility.yul\":3355:3358   */\n      dup3\n        /* \"#utility.yul\":3348:3352   */\n      0x1f\n        /* \"#utility.yul\":3340:3346   */\n      dup4\n        /* \"#utility.yul\":3336:3353   */\n      add\n        /* \"#utility.yul\":3332:3359   */\n      slt\n        /* \"#utility.yul\":3322:3444   */\n      tag_132\n      jumpi\n        /* \"#utility.yul\":3363:3442   */\n      tag_133\n      tag_61\n      jump\t// in\n    tag_133:\n        /* \"#utility.yul\":3322:3444   */\n    tag_132:\n        /* \"#utility.yul\":3480:3486   */\n      dup2\n        /* \"#utility.yul\":3467:3487   */\n      calldataload\n        /* \"#utility.yul\":3505:3584   */\n      tag_134\n        /* \"#utility.yul\":3580:3583   */\n      dup5\n        /* \"#utility.yul\":3572:3578   */\n      dup3\n        /* \"#utility.yul\":3565:3569   */\n      0x20\n        /* \"#utility.yul\":3557:3563   */\n      dup7\n        /* \"#utility.yul\":3553:3570   */\n      add\n        /* \"#utility.yul\":3505:3584   */\n      tag_69\n      jump\t// in\n    tag_134:\n        /* \"#utility.yul\":3496:3584   */\n      swap2\n      pop\n        /* \"#utility.yul\":3312:3590   */\n      pop\n        /* \"#utility.yul\":3250:3590   */\n      swap3\n      swap2\n      pop\n      pop\n      jump\t// out\n        /* \"#utility.yul\":3596:4250   */\n    tag_26:\n        /* \"#utility.yul\":3674:3680   */\n      0x00\n        /* \"#utility.yul\":3682:3688   */\n      dup1\n        /* \"#utility.yul\":3731:3733   */\n      0x40\n        /* \"#utility.yul\":3719:3728   */\n      dup4\n        /* \"#utility.yul\":3710:3717   */\n      dup6\n        /* \"#utility.yul\":3706:3729   */\n      sub\n        /* \"#utility.yul\":3702:3734   */\n      slt\n        /* \"#utility.yul\":3699:3818   */\n      iszero\n      tag_136\n      jumpi\n        /* \"#utility.yul\":3737:3816   */\n      tag_137\n      tag_55\n      jump\t// in\n    tag_137:\n        /* \"#utility.yul\":3699:3818   */\n    tag_136:\n        /* \"#utility.yul\":3885:3886   */\n      0x00\n        /* \"#utility.yul\":3874:3883   */\n      dup4\n        /* \"#utility.yul\":3870:3887   */\n      add\n        /* \"#utility.yul\":3857:3888   */\n      calldataload\n        /* \"#utility.yul\":3915:3933   */\n      0xffffffffffffffff\n        /* \"#utility.yul\":3907:3913   */\n      dup2\n        /* \"#utility.yul\":3904:3934   */\n      gt\n        /* \"#utility.yul\":3901:4018   */\n      iszero\n      tag_138\n      jumpi\n        /* \"#utility.yul\":3937:4016   */\n      tag_139\n      tag_56\n      jump\t// in\n    tag_139:\n        /* \"#utility.yul\":3901:4018   */\n    tag_138:\n        /* \"#utility.yul\":4042:4105   */\n      tag_140\n        /* \"#utility.yul\":4097:4104   */\n      dup6\n        /* \"#utility.yul\":4088:4094   */\n      dup3\n        /* \"#utility.yul\":4077:4086   */\n      dup7\n        /* \"#utility.yul\":4073:4095   */\n      add\n        /* \"#utility.yul\":4042:4105   */\n      tag_70\n      jump\t// in\n    tag_140:\n        /* \"#utility.yul\":4032:4105   */\n      swap3\n      pop\n        /* \"#utility.yul\":3828:4115   */\n      pop\n        /* \"#utility.yul\":4154:4156   */\n      0x20\n        /* \"#utility.yul\":4180:4233   */\n      tag_141\n        /* \"#utility.yul\":4225:4232   */\n      dup6\n        /* \"#utility.yul\":4216:4222   */\n      dup3\n        /* \"#utility.yul\":4205:4214   */\n      dup7\n        /* \"#utility.yul\":4201:4223   */\n      add\n        /* \"#utility.yul\":4180:4233   */\n      tag_59\n      jump\t// in\n    tag_141:\n        /* \"#utility.yul\":4170:4233   */\n      swap2\n      pop\n        /* \"#utility.yul\":4125:4243   */\n      pop\n        /* \"#utility.yul\":3596:4250   */\n      swap3\n      pop\n      swap3\n      swap1\n      pop\n      jump\t// out\n        /* \"#utility.yul\":4256:4355   */\n    tag_71:\n        /* \"#utility.yul\":4308:4314   */\n      0x00\n        /* \"#utility.yul\":4342:4347   */\n      dup2\n        /* \"#utility.yul\":4336:4348   */\n      mload\n        /* \"#utility.yul\":4326:4348   */\n      swap1\n      pop\n        /* \"#utility.yul\":4256:4355   */\n      swap2\n      swap1\n      pop\n      jump\t// out\n        /* \"#utility.yul\":4361:4530   */\n    tag_72:\n        /* \"#utility.yul\":4445:4456   */\n      0x00\n        /* \"#utility.yul\":4479:4485   */\n      dup3\n        /* \"#utility.yul\":4474:4477   */\n      dup3\n        /* \"#utility.yul\":4467:4486   */\n      mstore\n        /* \"#utility.yul\":4519:4523   */\n      0x20\n        /* \"#utility.yul\":4514:4517   */\n      dup3\n        /* \"#utility.yul\":4510:4524   */\n      add\n        /* \"#utility.yul\":4495:4524   */\n      swap1\n      pop\n        /* \"#utility.yul\":4361:4530   */\n      swap3\n      swap2\n      pop\n      pop\n      jump\t// out\n        /* \"#utility.yul\":4536:4782   */\n    tag_73:\n        /* \"#utility.yul\":4617:4618   */\n      0x00\n        /* \"#utility.yul\":4627:4740   */\n    tag_145:\n        /* \"#utility.yul\":4641:4647   */\n      dup4\n        /* \"#utility.yul\":4638:4639   */\n      dup2\n        /* \"#utility.yul\":4635:4648   */\n      lt\n        /* \"#utility.yul\":4627:4740   */\n      iszero\n      tag_147\n      jumpi\n        /* \"#utility.yul\":4726:4727   */\n      dup1\n        /* \"#utility.yul\":4721:4724   */\n      dup3\n        /* \"#utility.yul\":4717:4728   */\n      add\n        /* \"#utility.yul\":4711:4729   */\n      mload\n        /* \"#utility.yul\":4707:4708   */\n      dup2\n        /* \"#utility.yul\":4702:4705   */\n      dup5\n        /* \"#utility.yul\":4698:4709   */\n      add\n        /* \"#utility.yul\":4691:4730   */\n      mstore\n        /* \"#utility.yul\":4663:4665   */\n      0x20\n        /* \"#utility.yul\":4660:4661   */\n      dup2\n        /* \"#utility.yul\":4656:4666   */\n      add\n        /* \"#utility.yul\":4651:4666   */\n      swap1\n      pop\n        /* \"#utility.yul\":4627:4740   */\n      jump(tag_145)\n    tag_147:\n        /* \"#utility.yul\":4774:4775   */\n      0x00\n        /* \"#utility.yul\":4765:4771   */\n      dup5\n        /* \"#utility.yul\":4760:4763   */\n      dup5\n        /* \"#utility.yul\":4756:4772   */\n      add\n        /* \"#utility.yul\":4749:4776   */\n      mstore\n        /* \"#utility.yul\":4598:4782   */\n      pop\n        /* \"#utility.yul\":4536:4782   */\n      pop\n      pop\n      pop\n      jump\t// out\n        /* \"#utility.yul\":4788:5165   */\n    tag_74:\n        /* \"#utility.yul\":4876:4879   */\n      0x00\n        /* \"#utility.yul\":4904:4943   */\n      tag_149\n        /* \"#utility.yul\":4937:4942   */\n      dup3\n        /* \"#utility.yul\":4904:4943   */\n      tag_71\n      jump\t// in\n    tag_149:\n        /* \"#utility.yul\":4959:5030   */\n      tag_150\n        /* \"#utility.yul\":5023:5029   */\n      dup2\n        /* \"#utility.yul\":5018:5021   */\n      dup6\n        /* \"#utility.yul\":4959:5030   */\n      tag_72\n      jump\t// in\n    tag_150:\n        /* \"#utility.yul\":4952:5030   */\n      swap4\n      pop\n        /* \"#utility.yul\":5039:5104   */\n      tag_151\n        /* \"#utility.yul\":5097:5103   */\n      dup2\n        /* \"#utility.yul\":5092:5095   */\n      dup6\n        /* \"#utility.yul\":5085:5089   */\n      0x20\n        /* \"#utility.yul\":5078:5083   */\n      dup7\n        /* \"#utility.yul\":5074:5090   */\n      add\n        /* \"#utility.yul\":5039:5104   */\n      tag_73\n      jump\t// in\n    tag_151:\n        /* \"#utility.yul\":5129:5158   */\n      tag_152\n        /* \"#utility.yul\":5151:5157   */\n      dup2\n        /* \"#utility.yul\":5129:5158   */\n      tag_63\n      jump\t// in\n    tag_152:\n        /* \"#utility.yul\":5124:5127   */\n      dup5\n        /* \"#utility.yul\":5120:5159   */\n      add\n        /* \"#utility.yul\":5113:5159   */\n      swap2\n      pop\n        /* \"#utility.yul\":4880:5165   */\n      pop\n        /* \"#utility.yul\":4788:5165   */\n      swap3\n      swap2\n      pop\n      pop\n      jump\t// out\n        /* \"#utility.yul\":5171:5594   */\n    tag_32:\n        /* \"#utility.yul\":5312:5316   */\n      0x00\n        /* \"#utility.yul\":5350:5352   */\n      0x40\n        /* \"#utility.yul\":5339:5348   */\n      dup3\n        /* \"#utility.yul\":5335:5353   */\n      add\n        /* \"#utility.yul\":5327:5353   */\n      swap1\n      pop\n        /* \"#utility.yul\":5363:5434   */\n      tag_154\n        /* \"#utility.yul\":5431:5432   */\n      0x00\n        /* \"#utility.yul\":5420:5429   */\n      dup4\n        /* \"#utility.yul\":5416:5433   */\n      add\n        /* \"#utility.yul\":5407:5413   */\n      dup6\n        /* \"#utility.yul\":5363:5434   */\n      tag_60\n      jump\t// in\n    tag_154:\n        /* \"#utility.yul\":5481:5490   */\n      dup2\n        /* \"#utility.yul\":5475:5479   */\n      dup2\n        /* \"#utility.yul\":5471:5491   */\n      sub\n        /* \"#utility.yul\":5466:5468   */\n      0x20\n        /* \"#utility.yul\":5455:5464   */\n      dup4\n        /* \"#utility.yul\":5451:5469   */\n      add\n        /* \"#utility.yul\":5444:5492   */\n      mstore\n        /* \"#utility.yul\":5509:5587   */\n      tag_155\n        /* \"#utility.yul\":5582:5586   */\n      dup2\n        /* \"#utility.yul\":5573:5579   */\n      dup5\n        /* \"#utility.yul\":5509:5587   */\n      tag_74\n      jump\t// in\n    tag_155:\n        /* \"#utility.yul\":5501:5587   */\n      swap1\n      pop\n        /* \"#utility.yul\":5171:5594   */\n      swap4\n      swap3\n      pop\n      pop\n      pop\n      jump\t// out\n        /* \"#utility.yul\":5600:5780   */\n    tag_42:\n        /* \"#utility.yul\":5648:5725   */\n      0x4e487b7100000000000000000000000000000000000000000000000000000000\n        /* \"#utility.yul\":5645:5646   */\n      0x00\n        /* \"#utility.yul\":5638:5726   */\n      mstore\n        /* \"#utility.yul\":5745:5749   */\n      0x32\n        /* \"#utility.yul\":5742:5743   */\n      0x04\n        /* \"#utility.yul\":5735:5750   */\n      mstore\n        /* \"#utility.yul\":5769:5773   */\n      0x24\n        /* \"#utility.yul\":5766:5767   */\n      0x00\n        /* \"#utility.yul\":5759:5774   */\n      revert\n        /* \"#utility.yul\":5786:5966   */\n    tag_75:\n        /* \"#utility.yul\":5834:5911   */\n      0x4e487b7100000000000000000000000000000000000000000000000000000000\n        /* \"#utility.yul\":5831:5832   */\n      0x00\n        /* \"#utility.yul\":5824:5912   */\n      mstore\n        /* \"#utility.yul\":5931:5935   */\n      0x22\n        /* \"#utility.yul\":5928:5929   */\n      0x04\n        /* \"#utility.yul\":5921:5936   */\n      mstore\n        /* \"#utility.yul\":5955:5959   */\n      0x24\n        /* \"#utility.yul\":5952:5953   */\n      0x00\n        /* \"#utility.yul\":5945:5960   */\n      revert\n        /* \"#utility.yul\":5972:6292   */\n    tag_49:\n        /* \"#utility.yul\":6016:6022   */\n      0x00\n        /* \"#utility.yul\":6053:6054   */\n      0x02\n        /* \"#utility.yul\":6047:6051   */\n      dup3\n        /* \"#utility.yul\":6043:6055   */\n      div\n        /* \"#utility.yul\":6033:6055   */\n      swap1\n      pop\n        /* \"#utility.yul\":6100:6101   */\n      0x01\n        /* \"#utility.yul\":6094:6098   */\n      dup3\n        /* \"#utility.yul\":6090:6102   */\n      and\n        /* \"#utility.yul\":6121:6139   */\n      dup1\n        /* \"#utility.yul\":6111:6192   */\n      tag_159\n      jumpi\n        /* \"#utility.yul\":6177:6181   */\n      0x7f\n        /* \"#utility.yul\":6169:6175   */\n      dup3\n        /* \"#utility.yul\":6165:6182   */\n      and\n        /* \"#utility.yul\":6155:6182   */\n      swap2\n      pop\n        /* \"#utility.yul\":6111:6192   */\n    tag_159:\n        /* \"#utility.yul\":6239:6241   */\n      0x20\n        /* \"#utility.yul\":6231:6237   */\n      dup3\n        /* \"#utility.yul\":6228:6242   */\n      lt\n        /* \"#utility.yul\":6208:6226   */\n      dup2\n        /* \"#utility.yul\":6205:6243   */\n      sub\n        /* \"#utility.yul\":6202:6286   */\n      tag_160\n      jumpi\n        /* \"#utility.yul\":6258:6276   */\n      tag_161\n      tag_75\n      jump\t// in\n    tag_161:\n        /* \"#utility.yul\":6202:6286   */\n    tag_160:\n        /* \"#utility.yul\":6023:6292   */\n      pop\n        /* \"#utility.yul\":5972:6292   */\n      swap2\n      swap1\n      pop\n      jump\t// out\n        /* \"#utility.yul\":6298:6439   */\n    tag_76:\n        /* \"#utility.yul\":6347:6351   */\n      0x00\n        /* \"#utility.yul\":6370:6373   */\n      dup2\n        /* \"#utility.yul\":6362:6373   */\n      swap1\n      pop\n        /* \"#utility.yul\":6393:6396   */\n      dup2\n        /* \"#utility.yul\":6390:6391   */\n      0x00\n        /* \"#utility.yul\":6383:6397   */\n      mstore\n        /* \"#utility.yul\":6427:6431   */\n      0x20\n        /* \"#utility.yul\":6424:6425   */\n      0x00\n        /* \"#utility.yul\":6414:6432   */\n      keccak256\n        /* \"#utility.yul\":6406:6432   */\n      swap1\n      pop\n        /* \"#utility.yul\":6298:6439   */\n      swap2\n      swap1\n      pop\n      jump\t// out\n        /* \"#utility.yul\":6445:6538   */\n    tag_77:\n        /* \"#utility.yul\":6482:6488   */\n      0x00\n        /* \"#utility.yul\":6529:6531   */\n      0x20\n        /* \"#utility.yul\":6524:6526   */\n      0x1f\n        /* \"#utility.yul\":6517:6522   */\n      dup4\n        /* \"#utility.yul\":6513:6527   */\n      add\n        /* \"#utility.yul\":6509:6532   */\n      div\n        /* \"#utility.yul\":6499:6532   */\n      swap1\n      pop\n        /* \"#utility.yul\":6445:6538   */\n      swap2\n      swap1\n      pop\n      jump\t// out\n        /* \"#utility.yul\":6544:6651   */\n    tag_78:\n        /* \"#utility.yul\":6588:6596   */\n      0x00\n        /* \"#utility.yul\":6638:6643   */\n      dup3\n        /* \"#utility.yul\":6632:6636   */\n      dup3\n        /* \"#utility.yul\":6628:6644   */\n      shl\n        /* \"#utility.yul\":6607:6644   */\n      swap1\n      pop\n        /* \"#utility.yul\":6544:6651   */\n      swap3\n      swap2\n      pop\n      pop\n      jump\t// out\n        /* \"#utility.yul\":6657:7050   */\n    tag_79:\n        /* \"#utility.yul\":6726:6732   */\n      0x00\n        /* \"#utility.yul\":6776:6777   */\n      0x08\n        /* \"#utility.yul\":6764:6774   */\n      dup4\n        /* \"#utility.yul\":6760:6778   */\n      mul\n        /* \"#utility.yul\":6799:6896   */\n      tag_166\n        /* \"#utility.yul\":6829:6895   */\n      0xffffffffffffffffffffffffffffffffffffffffffffffffffffffffffffffff\n        /* \"#utility.yul\":6818:6827   */\n      dup3\n        /* \"#utility.yul\":6799:6896   */\n      tag_78\n      jump\t// in\n    tag_166:\n        /* \"#utility.yul\":6917:6956   */\n      tag_167\n        /* \"#utility.yul\":6947:6955   */\n      dup7\n        /* \"#utility.yul\":6936:6945   */\n      dup4\n        /* \"#utility.yul\":6917:6956   */\n      tag_78\n      jump\t// in\n    tag_167:\n        /* \"#utility.yul\":6905:6956   */\n      swap6\n      pop\n        /* \"#utility.yul\":6989:6993   */\n      dup1\n        /* \"#utility.yul\":6985:6994   */\n      not\n        /* \"#utility.yul\":6978:6983   */\n      dup5\n        /* \"#utility.yul\":6974:6995   */\n      and\n        /* \"#utility.yul\":6965:6995   */\n      swap4\n      pop\n        /* \"#utility.yul\":7038:7042   */\n      dup1\n        /* \"#utility.yul\":7028:7036   */\n      dup7\n        /* \"#utility.yul\":7024:7043   */\n      and\n        /* \"#utility.yul\":7017:7022   */\n      dup5\n        /* \"#utility.yul\":7014:7044   */\n      or\n        /* \"#utility.yul\":7004:7044   */\n      swap3\n      pop\n        /* \"#utility.yul\":6733:7050   */\n      pop\n      pop\n        /* \"#utility.yul\":6657:7050   */\n      swap4\n      swap3\n      pop\n      pop\n      pop\n      jump\t// out\n        /* \"#utility.yul\":7056:7116   */\n    tag_80:\n        /* \"#utility.yul\":7084:7087   */\n      0x00\n        /* \"#utility.yul\":7105:7110   */\n      dup2\n        /* \"#utility.yul\":7098:7110   */\n      swap1\n      pop\n        /* \"#utility.yul\":7056:7116   */\n      swap2\n      swap1\n      pop\n      jump\t// out\n        /* \"#utility.yul\":7122:7264   */\n    tag_81:\n        /* \"#utility.yul\":7172:7181   */\n      0x00\n        /* \"#utility.yul\":7205:7258   */\n      tag_170\n        /* \"#utility.yul\":7223:7257   */\n      tag_171\n        /* \"#utility.yul\":7232:7256   */\n      tag_172\n        /* \"#utility.yul\":7250:7255   */\n      dup5\n        /* \"#utility.yul\":7232:7256   */\n      tag_57\n      jump\t// in\n    tag_172:\n        /* \"#utility.yul\":7223:7257   */\n      tag_80\n      jump\t// in\n    tag_171:\n        /* \"#utility.yul\":7205:7258   */\n      tag_57\n      jump\t// in\n    tag_170:\n        /* \"#utility.yul\":7192:7258   */\n      swap1\n      pop\n        /* \"#utility.yul\":7122:7264   */\n      swap2\n      swap1\n      pop\n      jump\t// out\n        /* \"#utility.yul\":7270:7345   */\n    tag_82:\n        /* \"#utility.yul\":7313:7316   */\n      0x00\n        /* \"#utility.yul\":7334:7339   */\n      dup2\n        /* \"#utility.yul\":7327:7339   */\n      swap1\n      pop\n        /* \"#utility.yul\":7270:7345   */\n      swap2\n      swap1\n      pop\n      jump\t// out\n        /* \"#utility.yul\":7351:7620   */\n    tag_83:\n        /* \"#utility.yul\":7461:7500   */\n      tag_175\n        /* \"#utility.yul\":7492:7499   */\n      dup4\n        /* \"#utility.yul\":7461:7500   */\n      tag_81\n      jump\t// in\n    tag_175:\n        /* \"#utility.yul\":7522:7613   */\n      tag_176\n        /* \"#utility.yul\":7571:7612   */\n      tag_177\n        /* \"#utility.yul\":7595:7611   */\n      dup3\n        /* \"#utility.yul\":7571:7612   */\n      tag_82\n      jump\t// in\n    tag_177:\n        /* \"#utility.yul\":7563:7569   */\n      dup5\n        /* \"#utility.yul\":7556:7560   */\n      dup5\n        /* \"#utility.yul\":7550:7561   */\n      sload\n        /* \"#utility.yul\":7522:7613   */\n      tag_79\n      jump\t// in\n    tag_176:\n        /* \"#utility.yul\":7516:7520   */\n      dup3\n        /* \"#utility.yul\":7509:7614   */\n      sstore\n        /* \"#utility.yul\":7427:7620   */\n      pop\n        /* \"#utility.yul\":7351:7620   */\n      pop\n      pop\n      pop\n      jump\t// out\n        /* \"#utility.yul\":7626:7699   */\n    tag_84:\n        /* \"#utility.yul\":7671:7674   */\n      0x00\n        /* \"#utility.yul\":7626:7699   */\n      swap1\n      jump\t// out\n        /* \"#utility.yul\":7705:7894   */\n    tag_85:\n        /* \"#utility.yul\":7782:7814   */\n      tag_180\n      tag_84\n      jump\t// in\n    tag_180:\n        /* \"#utility.yul\":7823:7888   */\n      tag_181\n        /* \"#utility.yul\":7881:7887   */\n      dup2\n        /* \"#utility.yul\":7873:7879   */\n      dup5\n        /* \"#utility.yul\":7867:7871   */\n      dup5\n        /* \"#utility.yul\":7823:7888   */\n      tag_83\n      jump\t// in\n    tag_181:\n        /* \"#utility.yul\":7758:7894   */\n      pop\n        /* \"#utility.yul\":7705:7894   */\n      pop\n      pop\n      jump\t// out\n        /* \"#utility.yul\":7900:8086   */\n    tag_86:\n        /* \"#utility.yul\":7960:8080   */\n    tag_183:\n        /* \"#utility.yul\":7977:7980   */\n      dup2\n        /* \"#utility.yul\":7970:7975   */\n      dup2\n        /* \"#utility.yul\":7967:7981   */\n      lt\n        /* \"#utility.yul\":7960:8080   */\n      iszero\n      tag_185\n      jumpi\n        /* \"#utility.yul\":8031:8070   */\n      tag_186\n        /* \"#utility.yul\":8068:8069   */\n      0x00\n        /* \"#utility.yul\":8061:8066   */\n      dup3\n        /* \"#utility.yul\":8031:8070   */\n      tag_85\n      jump\t// in\n    tag_186:\n        /* \"#utility.yul\":8004:8005   */\n      0x01\n        /* \"#utility.yul\":7997:8002   */\n      dup2\n        /* \"#utility.yul\":7993:8006   */\n      add\n        /* \"#utility.yul\":7984:8006   */\n      swap1\n      pop\n        /* \"#utility.yul\":7960:8080   */\n      jump(tag_183)\n    tag_185:\n        /* \"#utility.yul\":7900:8086   */\n      pop\n      pop\n      jump\t// out\n        /* \"#utility.yul\":8092:8635   */\n    tag_87:\n        /* \"#utility.yul\":8193:8195   */\n      0x1f\n        /* \"#utility.yul\":8188:8191   */\n      dup3\n        /* \"#utility.yul\":8185:8196   */\n      gt\n        /* \"#utility.yul\":8182:8628   */\n      iszero\n      tag_188\n      jumpi\n        /* \"#utility.yul\":8227:8265   */\n      tag_189\n        /* \"#utility.yul\":8259:8264   */\n      dup2\n        /* \"#utility.yul\":8227:8265   */\n      tag_76\n      jump\t// in\n    tag_189:\n        /* \"#utility.yul\":8311:8340   */\n      tag_190\n        /* \"#utility.yul\":8329:8339   */\n      dup5\n        /* \"#utility.yul\":8311:8340   */\n      tag_77\n      jump\t// in\n    tag_190:\n        /* \"#utility.yul\":8301:8309   */\n      dup2\n        /* \"#utility.yul\":8297:8341   */\n      add\n        /* \"#utility.yul\":8494:8496   */\n      0x20\n        /* \"#utility.yul\":8482:8492   */\n      dup6\n        /* \"#utility.yul\":8479:8497   */\n      lt\n        /* \"#utility.yul\":8476:8525   */\n      iszero\n      tag_191\n      jumpi\n        /* \"#utility.yul\":8515:8523   */\n      dup2\n        /* \"#utility.yul\":8500:8523   */\n      swap1\n      pop\n        /* \"#utility.yul\":8476:8525   */\n    tag_191:\n        /* \"#utility.yul\":8538:8618   */\n      tag_192\n        /* \"#utility.yul\":8594:8616   */\n      tag_193\n        /* \"#utility.yul\":8612:8615   */\n      dup6\n        /* \"#utility.yul\":8594:8616   */\n      tag_77\n      jump\t// in\n    tag_193:\n        /* \"#utility.yul\":8584:8592   */\n      dup4\n        /* \"#utility.yul\":8580:8617   */\n      add\n        /* \"#utility.yul\":8567:8578   */\n      dup3\n        /* \"#utility.yul\":8538:8618   */\n      tag_86\n      jump\t// in\n    tag_192:\n        /* \"#utility.yul\":8197:8628   */\n      pop\n      pop\n        /* \"#utility.yul\":8182:8628   */\n    tag_188:\n        /* \"#utility.yul\":8092:8635   */\n      pop\n      pop\n      pop\n      jump\t// out\n        /* \"#utility.yul\":8641:8758   */\n    tag_88:\n        /* \"#utility.yul\":8695:8703   */\n      0x00\n        /* \"#utility.yul\":8745:8750   */\n      dup3\n        /* \"#utility.yul\":8739:8743   */\n      dup3\n        /* \"#utility.yul\":8735:8751   */\n      shr\n        /* \"#utility.yul\":8714:8751   */\n      swap1\n      pop\n        /* \"#utility.yul\":8641:8758   */\n      swap3\n      swap2\n      pop\n      pop\n      jump\t// out\n        /* \"#utility.yul\":8764:8933   */\n    tag_89:\n        /* \"#utility.yul\":8808:8814   */\n      0x00\n        /* \"#utility.yul\":8841:8892   */\n      tag_196\n        /* \"#utility.yul\":8889:8890   */\n      0x00\n        /* \"#utility.yul\":8885:8891   */\n      not\n        /* \"#utility.yul\":8877:8882   */\n      dup5\n        /* \"#utility.yul\":8874:8875   */\n      0x08\n        /* \"#utility.yul\":8870:8883   */\n      mul\n        /* \"#utility.yul\":8841:8892   */\n      tag_88\n      jump\t// in\n    tag_196:\n        /* \"#utility.yul\":8837:8893   */\n      not\n        /* \"#utility.yul\":8922:8926   */\n      dup1\n        /* \"#utility.yul\":8916:8920   */\n      dup4\n        /* \"#utility.yul\":8912:8927   */\n      and\n        /* \"#utility.yul\":8902:8927   */\n      swap2\n      pop\n        /* \"#utility.yul\":8815:8933   */\n      pop\n        /* \"#utility.yul\":8764:8933   */\n      swap3\n      swap2\n      pop\n      pop\n      jump\t// out\n        /* \"#utility.yul\":8938:9233   */\n    tag_90:\n        /* \"#utility.yul\":9014:9018   */\n      0x00\n        /* \"#utility.yul\":9160:9189   */\n      tag_198\n        /* \"#utility.yul\":9185:9188   */\n      dup4\n        /* \"#utility.yul\":9179:9183   */\n      dup4\n        /* \"#utility.yul\":9160:9189   */\n      tag_89\n      jump\t// in\n    tag_198:\n        /* \"#utility.yul\":9152:9189   */\n      swap2\n      pop\n        /* \"#utility.yul\":9222:9225   */\n      dup3\n        /* \"#utility.yul\":9219:9220   */\n      0x02\n        /* \"#utility.yul\":9215:9226   */\n      mul\n        /* \"#utility.yul\":9209:9213   */\n      dup3\n        /* \"#utility.yul\":9206:9227   */\n      or\n        /* \"#utility.yul\":9198:9227   */\n      swap1\n      pop\n        /* \"#utility.yul\":8938:9233   */\n      swap3\n      swap2\n      pop\n      pop\n      jump\t// out\n        /* \"#utility.yul\":9238:10633   */\n    tag_45:\n        /* \"#utility.yul\":9355:9392   */\n      tag_200\n        /* \"#utility.yul\":9388:9391   */\n      dup3\n        /* \"#utility.yul\":9355:9392   */\n      tag_71\n      jump\t// in\n    tag_200:\n        /* \"#utility.yul\":9457:9475   */\n      0xffffffffffffffff\n        /* \"#utility.yul\":9449:9455   */\n      dup2\n        /* \"#utility.yul\":9446:9476   */\n      gt\n        /* \"#utility.yul\":9443:9499   */\n      iszero\n      tag_201\n      jumpi\n        /* \"#utility.yul\":9479:9497   */\n      tag_202\n      tag_64\n      jump\t// in\n    tag_202:\n        /* \"#utility.yul\":9443:9499   */\n    tag_201:\n        /* \"#utility.yul\":9523:9561   */\n      tag_203\n        /* \"#utility.yul\":9555:9559   */\n      dup3\n        /* \"#utility.yul\":9549:9560   */\n      sload\n        /* \"#utility.yul\":9523:9561   */\n      tag_49\n      jump\t// in\n    tag_203:\n        /* \"#utility.yul\":9608:9675   */\n      tag_204\n        /* \"#utility.yul\":9668:9674   */\n      dup3\n        /* \"#utility.yul\":9660:9666   */\n      dup3\n        /* \"#utility.yul\":9654:9658   */\n      dup6\n        /* \"#utility.yul\":9608:9675   */\n      tag_87\n      jump\t// in\n    tag_204:\n        /* \"#utility.yul\":9702:9703   */\n      0x00\n        /* \"#utility.yul\":9726:9730   */\n      0x20\n        /* \"#utility.yul\":9713:9730   */\n      swap1\n      pop\n        /* \"#utility.yul\":9758:9760   */\n      0x1f\n        /* \"#utility.yul\":9750:9756   */\n      dup4\n        /* \"#utility.yul\":9747:9761   */\n      gt\n        /* \"#utility.yul\":9775:9776   */\n      0x01\n        /* \"#utility.yul\":9770:10388   */\n      dup2\n      eq\n      tag_206\n      jumpi\n        /* \"#utility.yul\":10432:10433   */\n      0x00\n        /* \"#utility.yul\":10449:10455   */\n      dup5\n        /* \"#utility.yul\":10446:10523   */\n      iszero\n      tag_207\n      jumpi\n        /* \"#utility.yul\":10498:10507   */\n      dup3\n        /* \"#utility.yul\":10493:10496   */\n      dup8\n        /* \"#utility.yul\":10489:10508   */\n      add\n        /* \"#utility.yul\":10483:10509   */\n      mload\n        /* \"#utility.yul\":10474:10509   */\n      swap1\n      pop\n        /* \"#utility.yul\":10446:10523   */\n    tag_207:\n        /* \"#utility.yul\":10549:10616   */\n      tag_208\n        /* \"#utility.yul\":10609:10615   */\n      dup6\n        /* \"#utility.yul\":10602:10607   */\n      dup3\n        /* \"#utility.yul\":10549:10616   */\n      tag_90\n      jump\t// in\n    tag_208:\n        /* \"#utility.yul\":10543:10547   */\n      dup7\n        /* \"#utility.yul\":10536:10617   */\n      sstore\n        /* \"#utility.yul\":10405:10627   */\n      pop\n        /* \"#utility.yul\":9740:10627   */\n      jump(tag_205)\n        /* \"#utility.yul\":9770:10388   */\n    tag_206:\n        /* \"#utility.yul\":9822:9826   */\n      0x1f\n        /* \"#utility.yul\":9818:9827   */\n      not\n        /* \"#utility.yul\":9810:9816   */\n      dup5\n        /* \"#utility.yul\":9806:9828   */\n      and\n        /* \"#utility.yul\":9856:9893   */\n      tag_209\n        /* \"#utility.yul\":9888:9892   */\n      dup7\n        /* \"#utility.yul\":9856:9893   */\n      tag_76\n      jump\t// in\n    tag_209:\n        /* \"#utility.yul\":9915:9916   */\n      0x00\n        /* \"#utility.yul\":9929:10137   */\n    tag_210:\n        /* \"#utility.yul\":9943:9950   */\n      dup3\n        /* \"#utility.yul\":9940:9941   */\n      dup2\n        /* \"#utility.yul\":9937:9951   */\n      lt\n        /* \"#utility.yul\":9929:10137   */\n      iszero\n      tag_212\n      jumpi\n        /* \"#utility.yul\":10022:10031   */\n      dup5\n        /* \"#utility.yul\":10017:10020   */\n      dup10\n        /* \"#utility.yul\":10013:10032   */\n      add\n        /* \"#utility.yul\":10007:10033   */\n      mload\n        /* \"#utility.yul\":9999:10005   */\n      dup3\n        /* \"#utility.yul\":9992:10034   */\n      sstore\n        /* \"#utility.yul\":10073:10074   */\n      0x01\n        /* \"#utility.yul\":10065:10071   */\n      dup3\n        /* \"#utility.yul\":10061:10075   */\n      add\n        /* \"#utility.yul\":10051:10075   */\n      swap2\n      pop\n        /* \"#utility.yul\":10120:10122   */\n      0x20\n        /* \"#utility.yul\":10109:10118   */\n      dup6\n        /* \"#utility.yul\":10105:10123   */\n      add\n        /* \"#utility.yul\":10092:10123   */\n      swap5\n      pop\n        /* \"#utility.yul\":9966:9970   */\n      0x20\n        /* \"#utility.yul\":9963:9964   */\n      dup2\n        /* \"#utility.yul\":9959:9971   */\n      add\n        /* \"#utility.yul\":9954:9971   */\n      swap1\n      pop\n        /* \"#utility.yul\":9929:10137   */\n      jump(tag_210)\n    tag_212:\n        /* \"#utility.yul\":10165:10171   */\n      dup7\n        /* \"#utility.yul\":10156:10163   */\n      dup4\n        /* \"#utility.yul\":10153:10172   */\n      lt\n        /* \"#utility.yul\":10150:10329   */\n      iszero\n      tag_213\n      jumpi\n        /* \"#utility.yul\":10223:10232   */\n      dup5\n        /* \"#utility.yul\":10218:10221   */\n      dup10\n        /* \"#utility.yul\":10214:10233   */\n      add\n        /* \"#utility.yul\":10208:10234   */\n      mload\n        /* \"#utility.yul\":10266:10314   */\n      tag_214\n        /* \"#utility.yul\":10308:10312   */\n      0x1f\n        /* \"#utility.yul\":10300:10306   */\n      dup10\n        /* \"#utility.yul\":10296:10313   */\n      and\n        /* \"#utility.yul\":10285:10294   */\n      dup3\n        /* \"#utility.yul\":10266:10314   */\n      tag_89\n      jump\t// in\n    tag_214:\n        /* \"#utility.yul\":10258:10264   */\n      dup4\n        /* \"#utility.yul\":10251:10315   */\n      sstore\n        /* \"#utility.yul\":10173:10329   */\n      pop\n        /* \"#utility.yul\":10150:10329   */\n    tag_213:\n        /* \"#utility.yul\":10375:10376   */\n      0x01\n        /* \"#utility.yul\":10371:10372   */\n      0x02\n        /* \"#utility.yul\":10363:10369   */\n      dup9\n        /* \"#utility.yul\":10359:10373   */\n      mul\n        /* \"#utility.yul\":10355:10377   */\n      add\n        /* \"#utility.yul\":10349:10353   */\n      dup9\n        /* \"#utility.yul\":10342:10378   */\n      sstore\n        /* \"#utility.yul\":9777:10388   */\n      pop\n      pop\n      pop\n        /* \"#utility.yul\":9740:10627   */\n    tag_205:\n      pop\n        /* \"#utility.yul\":9330:10633   */\n      pop\n      pop\n      pop\n        /* \"#utility.yul\":9238:10633   */\n      pop\n      pop\n      jump\t// out\n\n    auxdata: 0xa2646970667358221220fccfceef03c2b6b676cd62d262975e8d467cc45fa381c18f47ba6736a23d37e664736f6c63430008110033\n}\n",
				"bytecode": {
					"linkReferences": {},
					"object": "608060405234801561001057600080fd5b506108c1806100206000396000f3fe608060405234801561001057600080fd5b50600436106100625760003560e01c806329cd1d96146100675780632e64cec1146100975780634f2be91f146100b55780636057361d146100d35780636f760f41146100ef5780639e7a13ad1461010b575b600080fd5b610081600480360381019061007c91906102d6565b61013c565b60405161008e9190610312565b60405180910390f35b61009f610160565b6040516100ac9190610312565b60405180910390f35b6100bd610169565b6040516100ca9190610312565b60405180910390f35b6100ed60048036038101906100e891906102d6565b610172565b005b61010960048036038101906101049190610473565b610185565b005b610125600480360381019061012091906102d6565b6101da565b60405161013392919061054e565b60405180910390f35b6001818154811061014c57600080fd5b906000526020600020016000915090505481565b60008054905090565b60006002905090565b80600081905550610181610160565b5050565b60405180604001604052808281526020018381525060026000600581106101af576101ae61057e565b5b600202016000820151816000015560208201518160010190816101d291906107b9565b509050505050565b600281600581106101ea57600080fd5b60020201600091509050806000015490806001018054610209906105dc565b80601f0160208091040260200160405190810160405280929190818152602001828054610235906105dc565b80156102825780601f1061025757610100808354040283529160200191610282565b820191906000526020600020905b81548152906001019060200180831161026557829003601f168201915b5050505050905082565b6000604051905090565b600080fd5b600080fd5b6000819050919050565b6102b3816102a0565b81146102be57600080fd5b50565b6000813590506102d0816102aa565b92915050565b6000602082840312156102ec576102eb610296565b5b60006102fa848285016102c1565b91505092915050565b61030c816102a0565b82525050565b60006020820190506103276000830184610303565b92915050565b600080fd5b600080fd5b6000601f19601f8301169050919050565b7f4e487b7100000000000000000000000000000000000000000000000000000000600052604160045260246000fd5b61038082610337565b810181811067ffffffffffffffff8211171561039f5761039e610348565b5b80604052505050565b60006103b261028c565b90506103be8282610377565b919050565b600067ffffffffffffffff8211156103de576103dd610348565b5b6103e782610337565b9050602081019050919050565b82818337600083830152505050565b6000610416610411846103c3565b6103a8565b90508281526020810184848401111561043257610431610332565b5b61043d8482856103f4565b509392505050565b600082601f83011261045a5761045961032d565b5b813561046a848260208601610403565b91505092915050565b6000806040838503121561048a57610489610296565b5b600083013567ffffffffffffffff8111156104a8576104a761029b565b5b6104b485828601610445565b92505060206104c5858286016102c1565b9150509250929050565b600081519050919050565b600082825260208201905092915050565b60005b838110156105095780820151818401526020810190506104ee565b60008484015250505050565b6000610520826104cf565b61052a81856104da565b935061053a8185602086016104eb565b61054381610337565b840191505092915050565b60006040820190506105636000830185610303565b81810360208301526105758184610515565b90509392505050565b7f4e487b7100000000000000000000000000000000000000000000000000000000600052603260045260246000fd5b7f4e487b7100000000000000000000000000000000000000000000000000000000600052602260045260246000fd5b600060028204905060018216806105f457607f821691505b602082108103610607576106066105ad565b5b50919050565b60008190508160005260206000209050919050565b60006020601f8301049050919050565b600082821b905092915050565b60006008830261066f7fffffffffffffffffffffffffffffffffffffffffffffffffffffffffffffffff82610632565b6106798683610632565b95508019841693508086168417925050509392505050565b6000819050919050565b60006106b66106b16106ac846102a0565b610691565b6102a0565b9050919050565b6000819050919050565b6106d08361069b565b6106e46106dc826106bd565b84845461063f565b825550505050565b600090565b6106f96106ec565b6107048184846106c7565b505050565b5b818110156107285761071d6000826106f1565b60018101905061070a565b5050565b601f82111561076d5761073e8161060d565b61074784610622565b81016020851015610756578190505b61076a61076285610622565b830182610709565b50505b505050565b600082821c905092915050565b600061079060001984600802610772565b1980831691505092915050565b60006107a9838361077f565b9150826002028217905092915050565b6107c2826104cf565b67ffffffffffffffff8111156107db576107da610348565b5b6107e582546105dc565b6107f082828561072c565b600060209050601f8311600181146108235760008415610811578287015190505b61081b858261079d565b865550610883565b601f1984166108318661060d565b60005b8281101561085957848901518255600182019150602085019450602081019050610834565b868310156108765784890151610872601f89168261077f565b8355505b6001600288020188555050505b50505050505056fea2646970667358221220fccfceef03c2b6b676cd62d262975e8d467cc45fa381c18f47ba6736a23d37e664736f6c63430008110033",
					"opcodes": "PUSH1 0x80 PUSH1 0x40 MSTORE CALLVALUE DUP1 ISZERO PUSH2 0x10 JUMPI PUSH1 0x0 DUP1 REVERT JUMPDEST POP PUSH2 0x8C1 DUP1 PUSH2 0x20 PUSH1 0x0 CODECOPY PUSH1 0x0 RETURN INVALID PUSH1 0x80 PUSH1 0x40 MSTORE CALLVALUE DUP1 ISZERO PUSH2 0x10 JUMPI PUSH1 0x0 DUP1 REVERT JUMPDEST POP PUSH1 0x4 CALLDATASIZE LT PUSH2 0x62 JUMPI PUSH1 0x0 CALLDATALOAD PUSH1 0xE0 SHR DUP1 PUSH4 0x29CD1D96 EQ PUSH2 0x67 JUMPI DUP1 PUSH4 0x2E64CEC1 EQ PUSH2 0x97 JUMPI DUP1 PUSH4 0x4F2BE91F EQ PUSH2 0xB5 JUMPI DUP1 PUSH4 0x6057361D EQ PUSH2 0xD3 JUMPI DUP1 PUSH4 0x6F760F41 EQ PUSH2 0xEF JUMPI DUP1 PUSH4 0x9E7A13AD EQ PUSH2 0x10B JUMPI JUMPDEST PUSH1 0x0 DUP1 REVERT JUMPDEST PUSH2 0x81 PUSH1 0x4 DUP1 CALLDATASIZE SUB DUP2 ADD SWAP1 PUSH2 0x7C SWAP2 SWAP1 PUSH2 0x2D6 JUMP JUMPDEST PUSH2 0x13C JUMP JUMPDEST PUSH1 0x40 MLOAD PUSH2 0x8E SWAP2 SWAP1 PUSH2 0x312 JUMP JUMPDEST PUSH1 0x40 MLOAD DUP1 SWAP2 SUB SWAP1 RETURN JUMPDEST PUSH2 0x9F PUSH2 0x160 JUMP JUMPDEST PUSH1 0x40 MLOAD PUSH2 0xAC SWAP2 SWAP1 PUSH2 0x312 JUMP JUMPDEST PUSH1 0x40 MLOAD DUP1 SWAP2 SUB SWAP1 RETURN JUMPDEST PUSH2 0xBD PUSH2 0x169 JUMP JUMPDEST PUSH1 0x40 MLOAD PUSH2 0xCA SWAP2 SWAP1 PUSH2 0x312 JUMP JUMPDEST PUSH1 0x40 MLOAD DUP1 SWAP2 SUB SWAP1 RETURN JUMPDEST PUSH2 0xED PUSH1 0x4 DUP1 CALLDATASIZE SUB DUP2 ADD SWAP1 PUSH2 0xE8 SWAP2 SWAP1 PUSH2 0x2D6 JUMP JUMPDEST PUSH2 0x172 JUMP JUMPDEST STOP JUMPDEST PUSH2 0x109 PUSH1 0x4 DUP1 CALLDATASIZE SUB DUP2 ADD SWAP1 PUSH2 0x104 SWAP2 SWAP1 PUSH2 0x473 JUMP JUMPDEST PUSH2 0x185 JUMP JUMPDEST STOP JUMPDEST PUSH2 0x125 PUSH1 0x4 DUP1 CALLDATASIZE SUB DUP2 ADD SWAP1 PUSH2 0x120 SWAP2 SWAP1 PUSH2 0x2D6 JUMP JUMPDEST PUSH2 0x1DA JUMP JUMPDEST PUSH1 0x40 MLOAD PUSH2 0x133 SWAP3 SWAP2 SWAP1 PUSH2 0x54E JUMP JUMPDEST PUSH1 0x40 MLOAD DUP1 SWAP2 SUB SWAP1 RETURN JUMPDEST PUSH1 0x1 DUP2 DUP2 SLOAD DUP2 LT PUSH2 0x14C JUMPI PUSH1 0x0 DUP1 REVERT JUMPDEST SWAP1 PUSH1 0x0 MSTORE PUSH1 0x20 PUSH1 0x0 KECCAK256 ADD PUSH1 0x0 SWAP2 POP SWAP1 POP SLOAD DUP2 JUMP JUMPDEST PUSH1 0x0 DUP1 SLOAD SWAP1 POP SWAP1 JUMP JUMPDEST PUSH1 0x0 PUSH1 0x2 SWAP1 POP SWAP1 JUMP JUMPDEST DUP1 PUSH1 0x0 DUP2 SWAP1 SSTORE POP PUSH2 0x181 PUSH2 0x160 JUMP JUMPDEST POP POP JUMP JUMPDEST PUSH1 0x40 MLOAD DUP1 PUSH1 0x40 ADD PUSH1 0x40 MSTORE DUP1 DUP3 DUP2 MSTORE PUSH1 0x20 ADD DUP4 DUP2 MSTORE POP PUSH1 0x2 PUSH1 0x0 PUSH1 0x5 DUP2 LT PUSH2 0x1AF JUMPI PUSH2 0x1AE PUSH2 0x57E JUMP JUMPDEST JUMPDEST PUSH1 0x2 MUL ADD PUSH1 0x0 DUP3 ADD MLOAD DUP2 PUSH1 0x0 ADD SSTORE PUSH1 0x20 DUP3 ADD MLOAD DUP2 PUSH1 0x1 ADD SWAP1 DUP2 PUSH2 0x1D2 SWAP2 SWAP1 PUSH2 0x7B9 JUMP JUMPDEST POP SWAP1 POP POP POP POP JUMP JUMPDEST PUSH1 0x2 DUP2 PUSH1 0x5 DUP2 LT PUSH2 0x1EA JUMPI PUSH1 0x0 DUP1 REVERT JUMPDEST PUSH1 0x2 MUL ADD PUSH1 0x0 SWAP2 POP SWAP1 POP DUP1 PUSH1 0x0 ADD SLOAD SWAP1 DUP1 PUSH1 0x1 ADD DUP1 SLOAD PUSH2 0x209 SWAP1 PUSH2 0x5DC JUMP JUMPDEST DUP1 PUSH1 0x1F ADD PUSH1 0x20 DUP1 SWAP2 DIV MUL PUSH1 0x20 ADD PUSH1 0x40 MLOAD SWAP1 DUP2 ADD PUSH1 0x40 MSTORE DUP1 SWAP3 SWAP2 SWAP1 DUP2 DUP2 MSTORE PUSH1 0x20 ADD DUP3 DUP1 SLOAD PUSH2 0x235 SWAP1 PUSH2 0x5DC JUMP JUMPDEST DUP1 ISZERO PUSH2 0x282 JUMPI DUP1 PUSH1 0x1F LT PUSH2 0x257 JUMPI PUSH2 0x100 DUP1 DUP4 SLOAD DIV MUL DUP4 MSTORE SWAP2 PUSH1 0x20 ADD SWAP2 PUSH2 0x282 JUMP JUMPDEST DUP3 ADD SWAP2 SWAP1 PUSH1 0x0 MSTORE PUSH1 0x20 PUSH1 0x0 KECCAK256 SWAP1 JUMPDEST DUP2 SLOAD DUP2 MSTORE SWAP1 PUSH1 0x1 ADD SWAP1 PUSH1 0x20 ADD DUP1 DUP4 GT PUSH2 0x265 JUMPI DUP3 SWAP1 SUB PUSH1 0x1F AND DUP3 ADD SWAP2 JUMPDEST POP POP POP POP POP SWAP1 POP DUP3 JUMP JUMPDEST PUSH1 0x0 PUSH1 0x40 MLOAD SWAP1 POP SWAP1 JUMP JUMPDEST PUSH1 0x0 DUP1 REVERT JUMPDEST PUSH1 0x0 DUP1 REVERT JUMPDEST PUSH1 0x0 DUP2 SWAP1 POP SWAP2 SWAP1 POP JUMP JUMPDEST PUSH2 0x2B3 DUP2 PUSH2 0x2A0 JUMP JUMPDEST DUP2 EQ PUSH2 0x2BE JUMPI PUSH1 0x0 DUP1 REVERT JUMPDEST POP JUMP JUMPDEST PUSH1 0x0 DUP2 CALLDATALOAD SWAP1 POP PUSH2 0x2D0 DUP2 PUSH2 0x2AA JUMP JUMPDEST SWAP3 SWAP2 POP POP JUMP JUMPDEST PUSH1 0x0 PUSH1 0x20 DUP3 DUP5 SUB SLT ISZERO PUSH2 0x2EC JUMPI PUSH2 0x2EB PUSH2 0x296 JUMP JUMPDEST JUMPDEST PUSH1 0x0 PUSH2 0x2FA DUP5 DUP3 DUP6 ADD PUSH2 0x2C1 JUMP JUMPDEST SWAP2 POP POP SWAP3 SWAP2 POP POP JUMP JUMPDEST PUSH2 0x30C DUP2 PUSH2 0x2A0 JUMP JUMPDEST DUP3 MSTORE POP POP JUMP JUMPDEST PUSH1 0x0 PUSH1 0x20 DUP3 ADD SWAP1 POP PUSH2 0x327 PUSH1 0x0 DUP4 ADD DUP5 PUSH2 0x303 JUMP JUMPDEST SWAP3 SWAP2 POP POP JUMP JUMPDEST PUSH1 0x0 DUP1 REVERT JUMPDEST PUSH1 0x0 DUP1 REVERT JUMPDEST PUSH1 0x0 PUSH1 0x1F NOT PUSH1 0x1F DUP4 ADD AND SWAP1 POP SWAP2 SWAP1 POP JUMP JUMPDEST PUSH32 0x4E487B7100000000000000000000000000000000000000000000000000000000 PUSH1 0x0 MSTORE PUSH1 0x41 PUSH1 0x4 MSTORE PUSH1 0x24 PUSH1 0x0 REVERT JUMPDEST PUSH2 0x380 DUP3 PUSH2 0x337 JUMP JUMPDEST DUP2 ADD DUP2 DUP2 LT PUSH8 0xFFFFFFFFFFFFFFFF DUP3 GT OR ISZERO PUSH2 0x39F JUMPI PUSH2 0x39E PUSH2 0x348 JUMP JUMPDEST JUMPDEST DUP1 PUSH1 0x40 MSTORE POP POP POP JUMP JUMPDEST PUSH1 0x0 PUSH2 0x3B2 PUSH2 0x28C JUMP JUMPDEST SWAP1 POP PUSH2 0x3BE DUP3 DUP3 PUSH2 0x377 JUMP JUMPDEST SWAP2 SWAP1 POP JUMP JUMPDEST PUSH1 0x0 PUSH8 0xFFFFFFFFFFFFFFFF DUP3 GT ISZERO PUSH2 0x3DE JUMPI PUSH2 0x3DD PUSH2 0x348 JUMP JUMPDEST JUMPDEST PUSH2 0x3E7 DUP3 PUSH2 0x337 JUMP JUMPDEST SWAP1 POP PUSH1 0x20 DUP2 ADD SWAP1 POP SWAP2 SWAP1 POP JUMP JUMPDEST DUP3 DUP2 DUP4 CALLDATACOPY PUSH1 0x0 DUP4 DUP4 ADD MSTORE POP POP POP JUMP JUMPDEST PUSH1 0x0 PUSH2 0x416 PUSH2 0x411 DUP5 PUSH2 0x3C3 JUMP JUMPDEST PUSH2 0x3A8 JUMP JUMPDEST SWAP1 POP DUP3 DUP2 MSTORE PUSH1 0x20 DUP2 ADD DUP5 DUP5 DUP5 ADD GT ISZERO PUSH2 0x432 JUMPI PUSH2 0x431 PUSH2 0x332 JUMP JUMPDEST JUMPDEST PUSH2 0x43D DUP5 DUP3 DUP6 PUSH2 0x3F4 JUMP JUMPDEST POP SWAP4 SWAP3 POP POP POP JUMP JUMPDEST PUSH1 0x0 DUP3 PUSH1 0x1F DUP4 ADD SLT PUSH2 0x45A JUMPI PUSH2 0x459 PUSH2 0x32D JUMP JUMPDEST JUMPDEST DUP2 CALLDATALOAD PUSH2 0x46A DUP5 DUP3 PUSH1 0x20 DUP7 ADD PUSH2 0x403 JUMP JUMPDEST SWAP2 POP POP SWAP3 SWAP2 POP POP JUMP JUMPDEST PUSH1 0x0 DUP1 PUSH1 0x40 DUP4 DUP6 SUB SLT ISZERO PUSH2 0x48A JUMPI PUSH2 0x489 PUSH2 0x296 JUMP JUMPDEST JUMPDEST PUSH1 0x0 DUP4 ADD CALLDATALOAD PUSH8 0xFFFFFFFFFFFFFFFF DUP2 GT ISZERO PUSH2 0x4A8 JUMPI PUSH2 0x4A7 PUSH2 0x29B JUMP JUMPDEST JUMPDEST PUSH2 0x4B4 DUP6 DUP3 DUP7 ADD PUSH2 0x445 JUMP JUMPDEST SWAP3 POP POP PUSH1 0x20 PUSH2 0x4C5 DUP6 DUP3 DUP7 ADD PUSH2 0x2C1 JUMP JUMPDEST SWAP2 POP POP SWAP3 POP SWAP3 SWAP1 POP JUMP JUMPDEST PUSH1 0x0 DUP2 MLOAD SWAP1 POP SWAP2 SWAP1 POP JUMP JUMPDEST PUSH1 0x0 DUP3 DUP3 MSTORE PUSH1 0x20 DUP3 ADD SWAP1 POP SWAP3 SWAP2 POP POP JUMP JUMPDEST PUSH1 0x0 JUMPDEST DUP4 DUP2 LT ISZERO PUSH2 0x509 JUMPI DUP1 DUP3 ADD MLOAD DUP2 DUP5 ADD MSTORE PUSH1 0x20 DUP2 ADD SWAP1 POP PUSH2 0x4EE JUMP JUMPDEST PUSH1 0x0 DUP5 DUP5 ADD MSTORE POP POP POP POP JUMP JUMPDEST PUSH1 0x0 PUSH2 0x520 DUP3 PUSH2 0x4CF JUMP JUMPDEST PUSH2 0x52A DUP2 DUP6 PUSH2 0x4DA JUMP JUMPDEST SWAP4 POP PUSH2 0x53A DUP2 DUP6 PUSH1 0x20 DUP7 ADD PUSH2 0x4EB JUMP JUMPDEST PUSH2 0x543 DUP2 PUSH2 0x337 JUMP JUMPDEST DUP5 ADD SWAP2 POP POP SWAP3 SWAP2 POP POP JUMP JUMPDEST PUSH1 0x0 PUSH1 0x40 DUP3 ADD SWAP1 POP PUSH2 0x563 PUSH1 0x0 DUP4 ADD DUP6 PUSH2 0x303 JUMP JUMPDEST DUP2 DUP2 SUB PUSH1 0x20 DUP4 ADD MSTORE PUSH2 0x575 DUP2 DUP5 PUSH2 0x515 JUMP JUMPDEST SWAP1 POP SWAP4 SWAP3 POP POP POP JUMP JUMPDEST PUSH32 0x4E487B7100000000000000000000000000000000000000000000000000000000 PUSH1 0x0 MSTORE PUSH1 0x32 PUSH1 0x4 MSTORE PUSH1 0x24 PUSH1 0x0 REVERT JUMPDEST PUSH32 0x4E487B7100000000000000000000000000000000000000000000000000000000 PUSH1 0x0 MSTORE PUSH1 0x22 PUSH1 0x4 MSTORE PUSH1 0x24 PUSH1 0x0 REVERT JUMPDEST PUSH1 0x0 PUSH1 0x2 DUP3 DIV SWAP1 POP PUSH1 0x1 DUP3 AND DUP1 PUSH2 0x5F4 JUMPI PUSH1 0x7F DUP3 AND SWAP2 POP JUMPDEST PUSH1 0x20 DUP3 LT DUP2 SUB PUSH2 0x607 JUMPI PUSH2 0x606 PUSH2 0x5AD JUMP JUMPDEST JUMPDEST POP SWAP2 SWAP1 POP JUMP JUMPDEST PUSH1 0x0 DUP2 SWAP1 POP DUP2 PUSH1 0x0 MSTORE PUSH1 0x20 PUSH1 0x0 KECCAK256 SWAP1 POP SWAP2 SWAP1 POP JUMP JUMPDEST PUSH1 0x0 PUSH1 0x20 PUSH1 0x1F DUP4 ADD DIV SWAP1 POP SWAP2 SWAP1 POP JUMP JUMPDEST PUSH1 0x0 DUP3 DUP3 SHL SWAP1 POP SWAP3 SWAP2 POP POP JUMP JUMPDEST PUSH1 0x0 PUSH1 0x8 DUP4 MUL PUSH2 0x66F PUSH32 0xFFFFFFFFFFFFFFFFFFFFFFFFFFFFFFFFFFFFFFFFFFFFFFFFFFFFFFFFFFFFFFFF DUP3 PUSH2 0x632 JUMP JUMPDEST PUSH2 0x679 DUP7 DUP4 PUSH2 0x632 JUMP JUMPDEST SWAP6 POP DUP1 NOT DUP5 AND SWAP4 POP DUP1 DUP7 AND DUP5 OR SWAP3 POP POP POP SWAP4 SWAP3 POP POP POP JUMP JUMPDEST PUSH1 0x0 DUP2 SWAP1 POP SWAP2 SWAP1 POP JUMP JUMPDEST PUSH1 0x0 PUSH2 0x6B6 PUSH2 0x6B1 PUSH2 0x6AC DUP5 PUSH2 0x2A0 JUMP JUMPDEST PUSH2 0x691 JUMP JUMPDEST PUSH2 0x2A0 JUMP JUMPDEST SWAP1 POP SWAP2 SWAP1 POP JUMP JUMPDEST PUSH1 0x0 DUP2 SWAP1 POP SWAP2 SWAP1 POP JUMP JUMPDEST PUSH2 0x6D0 DUP4 PUSH2 0x69B JUMP JUMPDEST PUSH2 0x6E4 PUSH2 0x6DC DUP3 PUSH2 0x6BD JUMP JUMPDEST DUP5 DUP5 SLOAD PUSH2 0x63F JUMP JUMPDEST DUP3 SSTORE POP POP POP POP JUMP JUMPDEST PUSH1 0x0 SWAP1 JUMP JUMPDEST PUSH2 0x6F9 PUSH2 0x6EC JUMP JUMPDEST PUSH2 0x704 DUP2 DUP5 DUP5 PUSH2 0x6C7 JUMP JUMPDEST POP POP POP JUMP JUMPDEST JUMPDEST DUP2 DUP2 LT ISZERO PUSH2 0x728 JUMPI PUSH2 0x71D PUSH1 0x0 DUP3 PUSH2 0x6F1 JUMP JUMPDEST PUSH1 0x1 DUP2 ADD SWAP1 POP PUSH2 0x70A JUMP JUMPDEST POP POP JUMP JUMPDEST PUSH1 0x1F DUP3 GT ISZERO PUSH2 0x76D JUMPI PUSH2 0x73E DUP2 PUSH2 0x60D JUMP JUMPDEST PUSH2 0x747 DUP5 PUSH2 0x622 JUMP JUMPDEST DUP2 ADD PUSH1 0x20 DUP6 LT ISZERO PUSH2 0x756 JUMPI DUP2 SWAP1 POP JUMPDEST PUSH2 0x76A PUSH2 0x762 DUP6 PUSH2 0x622 JUMP JUMPDEST DUP4 ADD DUP3 PUSH2 0x709 JUMP JUMPDEST POP POP JUMPDEST POP POP POP JUMP JUMPDEST PUSH1 0x0 DUP3 DUP3 SHR SWAP1 POP SWAP3 SWAP2 POP POP JUMP JUMPDEST PUSH1 0x0 PUSH2 0x790 PUSH1 0x0 NOT DUP5 PUSH1 0x8 MUL PUSH2 0x772 JUMP JUMPDEST NOT DUP1 DUP4 AND SWAP2 POP POP SWAP3 SWAP2 POP POP JUMP JUMPDEST PUSH1 0x0 PUSH2 0x7A9 DUP4 DUP4 PUSH2 0x77F JUMP JUMPDEST SWAP2 POP DUP3 PUSH1 0x2 MUL DUP3 OR SWAP1 POP SWAP3 SWAP2 POP POP JUMP JUMPDEST PUSH2 0x7C2 DUP3 PUSH2 0x4CF JUMP JUMPDEST PUSH8 0xFFFFFFFFFFFFFFFF DUP2 GT ISZERO PUSH2 0x7DB JUMPI PUSH2 0x7DA PUSH2 0x348 JUMP JUMPDEST JUMPDEST PUSH2 0x7E5 DUP3 SLOAD PUSH2 0x5DC JUMP JUMPDEST PUSH2 0x7F0 DUP3 DUP3 DUP6 PUSH2 0x72C JUMP JUMPDEST PUSH1 0x0 PUSH1 0x20 SWAP1 POP PUSH1 0x1F DUP4 GT PUSH1 0x1 DUP2 EQ PUSH2 0x823 JUMPI PUSH1 0x0 DUP5 ISZERO PUSH2 0x811 JUMPI DUP3 DUP8 ADD MLOAD SWAP1 POP JUMPDEST PUSH2 0x81B DUP6 DUP3 PUSH2 0x79D JUMP JUMPDEST DUP7 SSTORE POP PUSH2 0x883 JUMP JUMPDEST PUSH1 0x1F NOT DUP5 AND PUSH2 0x831 DUP7 PUSH2 0x60D JUMP JUMPDEST PUSH1 0x0 JUMPDEST DUP3 DUP2 LT ISZERO PUSH2 0x859 JUMPI DUP5 DUP10 ADD MLOAD DUP3 SSTORE PUSH1 0x1 DUP3 ADD SWAP2 POP PUSH1 0x20 DUP6 ADD SWAP5 POP PUSH1 0x20 DUP2 ADD SWAP1 POP PUSH2 0x834 JUMP JUMPDEST DUP7 DUP4 LT ISZERO PUSH2 0x876 JUMPI DUP5 DUP10 ADD MLOAD PUSH2 0x872 PUSH1 0x1F DUP10 AND DUP3 PUSH2 0x77F JUMP JUMPDEST DUP4 SSTORE POP JUMPDEST PUSH1 0x1 PUSH1 0x2 DUP9 MUL ADD DUP9 SSTORE POP POP POP JUMPDEST POP POP POP POP POP POP JUMP INVALID LOG2 PUSH5 0x6970667358 0x22 SLT KECCAK256 0xFC 0xCF 0xCE 0xEF SUB 0xC2 0xB6 0xB6 PUSH23 0xCD62D262975E8D467CC45FA381C18F47BA6736A23D37E6 PUSH5 0x736F6C6343 STOP ADDMOD GT STOP CALLER "
				},
				"gasEstimates": {
					"creation": {
						"codeDepositCost": "448200",
						"executionCost": "486",
						"totalCost": "448686"
					},
					"external": {
						"add()": "359",
						"addPerson(string,uint256)": "infinite",
						"favoriteNumbers(uint256)": "infinite",
						"people(uint256)": "infinite",
						"retrieve()": "2437",
						"store(uint256)": "24704"
					}
				},
				"methodIdentifiers": {
					"add()": "4f2be91f",
					"addPerson(string,uint256)": "6f760f41",
					"favoriteNumbers(uint256)": "29cd1d96",
					"people(uint256)": "9e7a13ad",
					"retrieve()": "2e64cec1",
					"store(uint256)": "6057361d"
				}
			},
			"storageLayout": {
				"storage": [
					{
						"astId": 3,
						"contract": "contracts/SimpleStorage.sol:SimpleStorage",
						"label": "favoriteNumber",
						"offset": 0,
						"slot": "0",
						"type": "t_uint256"
					},
					{
						"astId": 11,
						"contract": "contracts/SimpleStorage.sol:SimpleStorage",
						"label": "favoriteNumbers",
						"offset": 0,
						"slot": "1",
						"type": "t_array(t_uint256)dyn_storage"
					},
					{
						"astId": 16,
						"contract": "contracts/SimpleStorage.sol:SimpleStorage",
						"label": "people",
						"offset": 0,
						"slot": "2",
						"type": "t_array(t_struct(People)8_storage)5_storage"
					}
				],
				"types": {
					"t_array(t_struct(People)8_storage)5_storage": {
						"base": "t_struct(People)8_storage",
						"encoding": "inplace",
						"label": "struct SimpleStorage.People[5]",
						"numberOfBytes": "320"
					},
					"t_array(t_uint256)dyn_storage": {
						"base": "t_uint256",
						"encoding": "dynamic_array",
						"label": "uint256[]",
						"numberOfBytes": "32"
					},
					"t_string_storage": {
						"encoding": "bytes",
						"label": "string",
						"numberOfBytes": "32"
					},
					"t_struct(People)8_storage": {
						"encoding": "inplace",
						"label": "struct SimpleStorage.People",
						"members": [
							{
								"astId": 5,
								"contract": "contracts/SimpleStorage.sol:SimpleStorage",
								"label": "favoriteNumber",
								"offset": 0,
								"slot": "0",
								"type": "t_uint256"
							},
							{
								"astId": 7,
								"contract": "contracts/SimpleStorage.sol:SimpleStorage",
								"label": "name",
								"offset": 0,
								"slot": "1",
								"type": "t_string_storage"
							}
						],
						"numberOfBytes": "64"
					},
					"t_uint256": {
						"encoding": "inplace",
						"label": "uint256",
						"numberOfBytes": "32"
					}
				}
			},
			"userdoc": {
				"kind": "user",
				"methods": {},
				"version": 1
			}
		}
	}
}