{
	"contracts/FundMe.sol": {
		"FundMe": {
			"abi": [
				{
					"inputs": [],
					"name": "fund",
					"outputs": [],
					"stateMutability": "payable",
					"type": "function"
				},
				{
					"inputs": [
						{
							"internalType": "uint256",
							"name": "ethAmount",
							"type": "uint256"
						}
					],
					"name": "getConverstionRate",
					"outputs": [
						{
							"internalType": "uint256",
							"name": "",
							"type": "uint256"
						}
					],
					"stateMutability": "view",
					"type": "function"
				},
				{
					"inputs": [],
					"name": "getPrice",
					"outputs": [
						{
							"internalType": "uint256",
							"name": "",
							"type": "uint256"
						}
					],
					"stateMutability": "view",
					"type": "function"
				},
				{
					"inputs": [],
					"name": "minimumUsd",
					"outputs": [
						{
							"internalType": "uint256",
							"name": "",
							"type": "uint256"
						}
					],
					"stateMutability": "view",
					"type": "function"
				}
			],
			"devdoc": {
				"kind": "dev",
				"methods": {},
				"version": 1
			},
			"evm": {
				"assembly": "    /* \"contracts/FundMe.sol\":134:1537  contract FundMe {    ... */\n  mstore(0x40, 0x80)\n    /* \"contracts/FundMe.sol\":185:194  50 * 1e18 */\n  0x02b5e3af16b1880000\n    /* \"contracts/FundMe.sol\":160:194  uint public minimumUsd = 50 * 1e18 */\n  0x00\n  sstore\n    /* \"contracts/FundMe.sol\":134:1537  contract FundMe {    ... */\n  callvalue\n  dup1\n  iszero\n  tag_1\n  jumpi\n  0x00\n  dup1\n  revert\ntag_1:\n  pop\n  dataSize(sub_0)\n  dup1\n  dataOffset(sub_0)\n  0x00\n  codecopy\n  0x00\n  return\nstop\n\nsub_0: assembly {\n        /* \"contracts/FundMe.sol\":134:1537  contract FundMe {    ... */\n      mstore(0x40, 0x80)\n      jumpi(tag_1, lt(calldatasize, 0x04))\n      shr(0xe0, calldataload(0x00))\n      dup1\n      0x098de820\n      eq\n      tag_2\n      jumpi\n      dup1\n      0x98d5fdca\n      eq\n      tag_3\n      jumpi\n      dup1\n      0xa4115c2a\n      eq\n      tag_4\n      jumpi\n      dup1\n      0xb60d4288\n      eq\n      tag_5\n      jumpi\n    tag_1:\n      0x00\n      dup1\n      revert\n        /* \"contracts/FundMe.sol\":160:194  uint public minimumUsd = 50 * 1e18 */\n    tag_2:\n      callvalue\n      dup1\n      iszero\n      tag_6\n      jumpi\n      0x00\n      dup1\n      revert\n    tag_6:\n      pop\n      tag_7\n      tag_8\n      jump\t// in\n    tag_7:\n      mload(0x40)\n      tag_9\n      swap2\n      swap1\n      tag_10\n      jump\t// in\n    tag_9:\n      mload(0x40)\n      dup1\n      swap2\n      sub\n      swap1\n      return\n        /* \"contracts/FundMe.sol\":330:1139  function getPrice() public view returns(uint256) {... */\n    tag_3:\n      callvalue\n      dup1\n      iszero\n      tag_11\n      jumpi\n      0x00\n      dup1\n      revert\n    tag_11:\n      pop\n      tag_12\n      tag_13\n      jump\t// in\n    tag_12:\n      mload(0x40)\n      tag_14\n      swap2\n      swap1\n      tag_10\n      jump\t// in\n    tag_14:\n      mload(0x40)\n      dup1\n      swap2\n      sub\n      swap1\n      return\n        /* \"contracts/FundMe.sol\":1145:1535  function getConverstionRate(uint256 ethAmount) public view returns(uint256) {... */\n    tag_4:\n      callvalue\n      dup1\n      iszero\n      tag_15\n      jumpi\n      0x00\n      dup1\n      revert\n    tag_15:\n      pop\n      tag_16\n      0x04\n      dup1\n      calldatasize\n      sub\n      dup2\n      add\n      swap1\n      tag_17\n      swap2\n      swap1\n      tag_18\n      jump\t// in\n    tag_17:\n      tag_19\n      jump\t// in\n    tag_16:\n      mload(0x40)\n      tag_20\n      swap2\n      swap1\n      tag_10\n      jump\t// in\n    tag_20:\n      mload(0x40)\n      dup1\n      swap2\n      sub\n      swap1\n      return\n        /* \"contracts/FundMe.sol\":201:324  function fund() public payable {... */\n    tag_5:\n      tag_21\n      tag_22\n      jump\t// in\n    tag_21:\n      stop\n        /* \"contracts/FundMe.sol\":160:194  uint public minimumUsd = 50 * 1e18 */\n    tag_8:\n      sload(0x00)\n      dup2\n      jump\t// out\n        /* \"contracts/FundMe.sol\":330:1139  function getPrice() public view returns(uint256) {... */\n    tag_13:\n        /* \"contracts/FundMe.sol\":370:377  uint256 */\n      0x00\n        /* \"contracts/FundMe.sol\":467:498  AggregatorV3Interface priceFeed */\n      dup1\n        /* \"contracts/FundMe.sol\":523:565  0xD4a33860578De61DBAbDc8BFdb98FD742fA7028e */\n      0xd4a33860578de61dbabdc8bfdb98fd742fa7028e\n        /* \"contracts/FundMe.sol\":467:566  AggregatorV3Interface priceFeed = AggregatorV3Interface(0xD4a33860578De61DBAbDc8BFdb98FD742fA7028e) */\n      swap1\n      pop\n        /* \"contracts/FundMe.sol\":631:643  int256 price */\n      0x00\n        /* \"contracts/FundMe.sol\":760:769  priceFeed */\n      dup2\n        /* \"contracts/FundMe.sol\":760:785  priceFeed.latestRoundData */\n      0xffffffffffffffffffffffffffffffffffffffff\n      and\n      0xfeaf968c\n        /* \"contracts/FundMe.sol\":760:787  priceFeed.latestRoundData() */\n      mload(0x40)\n      dup2\n      0xffffffff\n      and\n      0xe0\n      shl\n      dup2\n      mstore\n      0x04\n      add\n      0xa0\n      mload(0x40)\n      dup1\n      dup4\n      sub\n      dup2\n      dup7\n      gas\n      staticcall\n      iszero\n      dup1\n      iszero\n      tag_25\n      jumpi\n      returndatasize\n      0x00\n      dup1\n      returndatacopy\n      revert(0x00, returndatasize)\n    tag_25:\n      pop\n      pop\n      pop\n      pop\n      mload(0x40)\n      returndatasize\n      not(0x1f)\n      0x1f\n      dup3\n      add\n      and\n      dup3\n      add\n      dup1\n      0x40\n      mstore\n      pop\n      dup2\n      add\n      swap1\n      tag_26\n      swap2\n      swap1\n      tag_27\n      jump\t// in\n    tag_26:\n        /* \"contracts/FundMe.sol\":585:787  (... */\n      pop\n      pop\n      pop\n      swap2\n      pop\n      pop\n        /* \"contracts/FundMe.sol\":1127:1131  1e10 */\n      0x02540be400\n        /* \"contracts/FundMe.sol\":1119:1124  price */\n      dup2\n        /* \"contracts/FundMe.sol\":1119:1131  price * 1e10 */\n      tag_28\n      swap2\n      swap1\n      tag_29\n      jump\t// in\n    tag_28:\n        /* \"contracts/FundMe.sol\":1104:1132  return uint256(price * 1e10) */\n      swap3\n      pop\n      pop\n      pop\n        /* \"contracts/FundMe.sol\":330:1139  function getPrice() public view returns(uint256) {... */\n      swap1\n      jump\t// out\n        /* \"contracts/FundMe.sol\":1145:1535  function getConverstionRate(uint256 ethAmount) public view returns(uint256) {... */\n    tag_19:\n        /* \"contracts/FundMe.sol\":1212:1219  uint256 */\n      0x00\n        /* \"contracts/FundMe.sol\":1231:1247  uint256 ethPrice */\n      dup1\n        /* \"contracts/FundMe.sol\":1250:1260  getPrice() */\n      tag_31\n        /* \"contracts/FundMe.sol\":1250:1258  getPrice */\n      tag_13\n        /* \"contracts/FundMe.sol\":1250:1260  getPrice() */\n      jump\t// in\n    tag_31:\n        /* \"contracts/FundMe.sol\":1231:1260  uint256 ethPrice = getPrice() */\n      swap1\n      pop\n        /* \"contracts/FundMe.sol\":1443:1465  uint256 ethAmountInUsd */\n      0x00\n        /* \"contracts/FundMe.sol\":1493:1497  1e18 */\n      0x0de0b6b3a7640000\n        /* \"contracts/FundMe.sol\":1480:1489  ethAmount */\n      dup5\n        /* \"contracts/FundMe.sol\":1469:1477  ethPrice */\n      dup4\n        /* \"contracts/FundMe.sol\":1469:1489  ethPrice * ethAmount */\n      tag_32\n      swap2\n      swap1\n      tag_33\n      jump\t// in\n    tag_32:\n        /* \"contracts/FundMe.sol\":1468:1497  (ethPrice * ethAmount) / 1e18 */\n      tag_34\n      swap2\n      swap1\n      tag_35\n      jump\t// in\n    tag_34:\n        /* \"contracts/FundMe.sol\":1443:1497  uint256 ethAmountInUsd = (ethPrice * ethAmount) / 1e18 */\n      swap1\n      pop\n        /* \"contracts/FundMe.sol\":1514:1528  ethAmountInUsd */\n      dup1\n        /* \"contracts/FundMe.sol\":1507:1528  return ethAmountInUsd */\n      swap3\n      pop\n      pop\n      pop\n        /* \"contracts/FundMe.sol\":1145:1535  function getConverstionRate(uint256 ethAmount) public view returns(uint256) {... */\n      swap2\n      swap1\n      pop\n      jump\t// out\n        /* \"contracts/FundMe.sol\":201:324  function fund() public payable {... */\n    tag_22:\n        /* \"contracts/FundMe.sol\":283:293  minimumUsd */\n      sload(0x00)\n        /* \"contracts/FundMe.sol\":250:279  getConverstionRate(msg.value) */\n      tag_37\n        /* \"contracts/FundMe.sol\":269:278  msg.value */\n      callvalue\n        /* \"contracts/FundMe.sol\":250:268  getConverstionRate */\n      tag_19\n        /* \"contracts/FundMe.sol\":250:279  getConverstionRate(msg.value) */\n      jump\t// in\n    tag_37:\n        /* \"contracts/FundMe.sol\":250:293  getConverstionRate(msg.value) >= minimumUsd */\n      lt\n      iszero\n        /* \"contracts/FundMe.sol\":242:317  require(getConverstionRate(msg.value) >= minimumUsd, \"Didn't send enough!\") */\n      tag_38\n      jumpi\n      mload(0x40)\n      0x08c379a000000000000000000000000000000000000000000000000000000000\n      dup2\n      mstore\n      0x04\n      add\n      tag_39\n      swap1\n      tag_40\n      jump\t// in\n    tag_39:\n      mload(0x40)\n      dup1\n      swap2\n      sub\n      swap1\n      revert\n    tag_38:\n        /* \"contracts/FundMe.sol\":201:324  function fund() public payable {... */\n      jump\t// out\n        /* \"#utility.yul\":7:84   */\n    tag_41:\n        /* \"#utility.yul\":44:51   */\n      0x00\n        /* \"#utility.yul\":73:78   */\n      dup2\n        /* \"#utility.yul\":62:78   */\n      swap1\n      pop\n        /* \"#utility.yul\":7:84   */\n      swap2\n      swap1\n      pop\n      jump\t// out\n        /* \"#utility.yul\":90:208   */\n    tag_42:\n        /* \"#utility.yul\":177:201   */\n      tag_63\n        /* \"#utility.yul\":195:200   */\n      dup2\n        /* \"#utility.yul\":177:201   */\n      tag_41\n      jump\t// in\n    tag_63:\n        /* \"#utility.yul\":172:175   */\n      dup3\n        /* \"#utility.yul\":165:202   */\n      mstore\n        /* \"#utility.yul\":90:208   */\n      pop\n      pop\n      jump\t// out\n        /* \"#utility.yul\":214:436   */\n    tag_10:\n        /* \"#utility.yul\":307:311   */\n      0x00\n        /* \"#utility.yul\":345:347   */\n      0x20\n        /* \"#utility.yul\":334:343   */\n      dup3\n        /* \"#utility.yul\":330:348   */\n      add\n        /* \"#utility.yul\":322:348   */\n      swap1\n      pop\n        /* \"#utility.yul\":358:429   */\n      tag_65\n        /* \"#utility.yul\":426:427   */\n      0x00\n        /* \"#utility.yul\":415:424   */\n      dup4\n        /* \"#utility.yul\":411:428   */\n      add\n        /* \"#utility.yul\":402:408   */\n      dup5\n        /* \"#utility.yul\":358:429   */\n      tag_42\n      jump\t// in\n    tag_65:\n        /* \"#utility.yul\":214:436   */\n      swap3\n      swap2\n      pop\n      pop\n      jump\t// out\n        /* \"#utility.yul\":523:640   */\n    tag_44:\n        /* \"#utility.yul\":632:633   */\n      0x00\n        /* \"#utility.yul\":629:630   */\n      dup1\n        /* \"#utility.yul\":622:634   */\n      revert\n        /* \"#utility.yul\":769:891   */\n    tag_46:\n        /* \"#utility.yul\":842:866   */\n      tag_70\n        /* \"#utility.yul\":860:865   */\n      dup2\n        /* \"#utility.yul\":842:866   */\n      tag_41\n      jump\t// in\n    tag_70:\n        /* \"#utility.yul\":835:840   */\n      dup2\n        /* \"#utility.yul\":832:867   */\n      eq\n        /* \"#utility.yul\":822:885   */\n      tag_71\n      jumpi\n        /* \"#utility.yul\":881:882   */\n      0x00\n        /* \"#utility.yul\":878:879   */\n      dup1\n        /* \"#utility.yul\":871:883   */\n      revert\n        /* \"#utility.yul\":822:885   */\n    tag_71:\n        /* \"#utility.yul\":769:891   */\n      pop\n      jump\t// out\n        /* \"#utility.yul\":897:1036   */\n    tag_47:\n        /* \"#utility.yul\":943:948   */\n      0x00\n        /* \"#utility.yul\":981:987   */\n      dup2\n        /* \"#utility.yul\":968:988   */\n      calldataload\n        /* \"#utility.yul\":959:988   */\n      swap1\n      pop\n        /* \"#utility.yul\":997:1030   */\n      tag_73\n        /* \"#utility.yul\":1024:1029   */\n      dup2\n        /* \"#utility.yul\":997:1030   */\n      tag_46\n      jump\t// in\n    tag_73:\n        /* \"#utility.yul\":897:1036   */\n      swap3\n      swap2\n      pop\n      pop\n      jump\t// out\n        /* \"#utility.yul\":1042:1371   */\n    tag_18:\n        /* \"#utility.yul\":1101:1107   */\n      0x00\n        /* \"#utility.yul\":1150:1152   */\n      0x20\n        /* \"#utility.yul\":1138:1147   */\n      dup3\n        /* \"#utility.yul\":1129:1136   */\n      dup5\n        /* \"#utility.yul\":1125:1148   */\n      sub\n        /* \"#utility.yul\":1121:1153   */\n      slt\n        /* \"#utility.yul\":1118:1237   */\n      iszero\n      tag_75\n      jumpi\n        /* \"#utility.yul\":1156:1235   */\n      tag_76\n      tag_44\n      jump\t// in\n    tag_76:\n        /* \"#utility.yul\":1118:1237   */\n    tag_75:\n        /* \"#utility.yul\":1276:1277   */\n      0x00\n        /* \"#utility.yul\":1301:1354   */\n      tag_77\n        /* \"#utility.yul\":1346:1353   */\n      dup5\n        /* \"#utility.yul\":1337:1343   */\n      dup3\n        /* \"#utility.yul\":1326:1335   */\n      dup6\n        /* \"#utility.yul\":1322:1344   */\n      add\n        /* \"#utility.yul\":1301:1354   */\n      tag_47\n      jump\t// in\n    tag_77:\n        /* \"#utility.yul\":1291:1354   */\n      swap2\n      pop\n        /* \"#utility.yul\":1247:1364   */\n      pop\n        /* \"#utility.yul\":1042:1371   */\n      swap3\n      swap2\n      pop\n      pop\n      jump\t// out\n        /* \"#utility.yul\":1377:1482   */\n    tag_48:\n        /* \"#utility.yul\":1413:1420   */\n      0x00\n        /* \"#utility.yul\":1453:1475   */\n      0xffffffffffffffffffff\n        /* \"#utility.yul\":1446:1451   */\n      dup3\n        /* \"#utility.yul\":1442:1476   */\n      and\n        /* \"#utility.yul\":1431:1476   */\n      swap1\n      pop\n        /* \"#utility.yul\":1377:1482   */\n      swap2\n      swap1\n      pop\n      jump\t// out\n        /* \"#utility.yul\":1488:1608   */\n    tag_49:\n        /* \"#utility.yul\":1560:1583   */\n      tag_80\n        /* \"#utility.yul\":1577:1582   */\n      dup2\n        /* \"#utility.yul\":1560:1583   */\n      tag_48\n      jump\t// in\n    tag_80:\n        /* \"#utility.yul\":1553:1558   */\n      dup2\n        /* \"#utility.yul\":1550:1584   */\n      eq\n        /* \"#utility.yul\":1540:1602   */\n      tag_81\n      jumpi\n        /* \"#utility.yul\":1598:1599   */\n      0x00\n        /* \"#utility.yul\":1595:1596   */\n      dup1\n        /* \"#utility.yul\":1588:1600   */\n      revert\n        /* \"#utility.yul\":1540:1602   */\n    tag_81:\n        /* \"#utility.yul\":1488:1608   */\n      pop\n      jump\t// out\n        /* \"#utility.yul\":1614:1755   */\n    tag_50:\n        /* \"#utility.yul\":1670:1675   */\n      0x00\n        /* \"#utility.yul\":1701:1707   */\n      dup2\n        /* \"#utility.yul\":1695:1708   */\n      mload\n        /* \"#utility.yul\":1686:1708   */\n      swap1\n      pop\n        /* \"#utility.yul\":1717:1749   */\n      tag_83\n        /* \"#utility.yul\":1743:1748   */\n      dup2\n        /* \"#utility.yul\":1717:1749   */\n      tag_49\n      jump\t// in\n    tag_83:\n        /* \"#utility.yul\":1614:1755   */\n      swap3\n      swap2\n      pop\n      pop\n      jump\t// out\n        /* \"#utility.yul\":1761:1837   */\n    tag_51:\n        /* \"#utility.yul\":1797:1804   */\n      0x00\n        /* \"#utility.yul\":1826:1831   */\n      dup2\n        /* \"#utility.yul\":1815:1831   */\n      swap1\n      pop\n        /* \"#utility.yul\":1761:1837   */\n      swap2\n      swap1\n      pop\n      jump\t// out\n        /* \"#utility.yul\":1843:1963   */\n    tag_52:\n        /* \"#utility.yul\":1915:1938   */\n      tag_86\n        /* \"#utility.yul\":1932:1937   */\n      dup2\n        /* \"#utility.yul\":1915:1938   */\n      tag_51\n      jump\t// in\n    tag_86:\n        /* \"#utility.yul\":1908:1913   */\n      dup2\n        /* \"#utility.yul\":1905:1939   */\n      eq\n        /* \"#utility.yul\":1895:1957   */\n      tag_87\n      jumpi\n        /* \"#utility.yul\":1953:1954   */\n      0x00\n        /* \"#utility.yul\":1950:1951   */\n      dup1\n        /* \"#utility.yul\":1943:1955   */\n      revert\n        /* \"#utility.yul\":1895:1957   */\n    tag_87:\n        /* \"#utility.yul\":1843:1963   */\n      pop\n      jump\t// out\n        /* \"#utility.yul\":1969:2110   */\n    tag_53:\n        /* \"#utility.yul\":2025:2030   */\n      0x00\n        /* \"#utility.yul\":2056:2062   */\n      dup2\n        /* \"#utility.yul\":2050:2063   */\n      mload\n        /* \"#utility.yul\":2041:2063   */\n      swap1\n      pop\n        /* \"#utility.yul\":2072:2104   */\n      tag_89\n        /* \"#utility.yul\":2098:2103   */\n      dup2\n        /* \"#utility.yul\":2072:2104   */\n      tag_52\n      jump\t// in\n    tag_89:\n        /* \"#utility.yul\":1969:2110   */\n      swap3\n      swap2\n      pop\n      pop\n      jump\t// out\n        /* \"#utility.yul\":2116:2259   */\n    tag_54:\n        /* \"#utility.yul\":2173:2178   */\n      0x00\n        /* \"#utility.yul\":2204:2210   */\n      dup2\n        /* \"#utility.yul\":2198:2211   */\n      mload\n        /* \"#utility.yul\":2189:2211   */\n      swap1\n      pop\n        /* \"#utility.yul\":2220:2253   */\n      tag_91\n        /* \"#utility.yul\":2247:2252   */\n      dup2\n        /* \"#utility.yul\":2220:2253   */\n      tag_46\n      jump\t// in\n    tag_91:\n        /* \"#utility.yul\":2116:2259   */\n      swap3\n      swap2\n      pop\n      pop\n      jump\t// out\n        /* \"#utility.yul\":2265:3236   */\n    tag_27:\n        /* \"#utility.yul\":2368:2374   */\n      0x00\n        /* \"#utility.yul\":2376:2382   */\n      dup1\n        /* \"#utility.yul\":2384:2390   */\n      0x00\n        /* \"#utility.yul\":2392:2398   */\n      dup1\n        /* \"#utility.yul\":2400:2406   */\n      0x00\n        /* \"#utility.yul\":2449:2452   */\n      0xa0\n        /* \"#utility.yul\":2437:2446   */\n      dup7\n        /* \"#utility.yul\":2428:2435   */\n      dup9\n        /* \"#utility.yul\":2424:2447   */\n      sub\n        /* \"#utility.yul\":2420:2453   */\n      slt\n        /* \"#utility.yul\":2417:2537   */\n      iszero\n      tag_93\n      jumpi\n        /* \"#utility.yul\":2456:2535   */\n      tag_94\n      tag_44\n      jump\t// in\n    tag_94:\n        /* \"#utility.yul\":2417:2537   */\n    tag_93:\n        /* \"#utility.yul\":2576:2577   */\n      0x00\n        /* \"#utility.yul\":2601:2664   */\n      tag_95\n        /* \"#utility.yul\":2656:2663   */\n      dup9\n        /* \"#utility.yul\":2647:2653   */\n      dup3\n        /* \"#utility.yul\":2636:2645   */\n      dup10\n        /* \"#utility.yul\":2632:2654   */\n      add\n        /* \"#utility.yul\":2601:2664   */\n      tag_50\n      jump\t// in\n    tag_95:\n        /* \"#utility.yul\":2591:2664   */\n      swap6\n      pop\n        /* \"#utility.yul\":2547:2674   */\n      pop\n        /* \"#utility.yul\":2713:2715   */\n      0x20\n        /* \"#utility.yul\":2739:2802   */\n      tag_96\n        /* \"#utility.yul\":2794:2801   */\n      dup9\n        /* \"#utility.yul\":2785:2791   */\n      dup3\n        /* \"#utility.yul\":2774:2783   */\n      dup10\n        /* \"#utility.yul\":2770:2792   */\n      add\n        /* \"#utility.yul\":2739:2802   */\n      tag_53\n      jump\t// in\n    tag_96:\n        /* \"#utility.yul\":2729:2802   */\n      swap5\n      pop\n        /* \"#utility.yul\":2684:2812   */\n      pop\n        /* \"#utility.yul\":2851:2853   */\n      0x40\n        /* \"#utility.yul\":2877:2941   */\n      tag_97\n        /* \"#utility.yul\":2933:2940   */\n      dup9\n        /* \"#utility.yul\":2924:2930   */\n      dup3\n        /* \"#utility.yul\":2913:2922   */\n      dup10\n        /* \"#utility.yul\":2909:2931   */\n      add\n        /* \"#utility.yul\":2877:2941   */\n      tag_54\n      jump\t// in\n    tag_97:\n        /* \"#utility.yul\":2867:2941   */\n      swap4\n      pop\n        /* \"#utility.yul\":2822:2951   */\n      pop\n        /* \"#utility.yul\":2990:2992   */\n      0x60\n        /* \"#utility.yul\":3016:3080   */\n      tag_98\n        /* \"#utility.yul\":3072:3079   */\n      dup9\n        /* \"#utility.yul\":3063:3069   */\n      dup3\n        /* \"#utility.yul\":3052:3061   */\n      dup10\n        /* \"#utility.yul\":3048:3070   */\n      add\n        /* \"#utility.yul\":3016:3080   */\n      tag_54\n      jump\t// in\n    tag_98:\n        /* \"#utility.yul\":3006:3080   */\n      swap3\n      pop\n        /* \"#utility.yul\":2961:3090   */\n      pop\n        /* \"#utility.yul\":3129:3132   */\n      0x80\n        /* \"#utility.yul\":3156:3219   */\n      tag_99\n        /* \"#utility.yul\":3211:3218   */\n      dup9\n        /* \"#utility.yul\":3202:3208   */\n      dup3\n        /* \"#utility.yul\":3191:3200   */\n      dup10\n        /* \"#utility.yul\":3187:3209   */\n      add\n        /* \"#utility.yul\":3156:3219   */\n      tag_50\n      jump\t// in\n    tag_99:\n        /* \"#utility.yul\":3146:3219   */\n      swap2\n      pop\n        /* \"#utility.yul\":3100:3229   */\n      pop\n        /* \"#utility.yul\":2265:3236   */\n      swap3\n      swap6\n      pop\n      swap3\n      swap6\n      swap1\n      swap4\n      pop\n      jump\t// out\n        /* \"#utility.yul\":3242:3422   */\n    tag_55:\n        /* \"#utility.yul\":3290:3367   */\n      0x4e487b7100000000000000000000000000000000000000000000000000000000\n        /* \"#utility.yul\":3287:3288   */\n      0x00\n        /* \"#utility.yul\":3280:3368   */\n      mstore\n        /* \"#utility.yul\":3387:3391   */\n      0x11\n        /* \"#utility.yul\":3384:3385   */\n      0x04\n        /* \"#utility.yul\":3377:3392   */\n      mstore\n        /* \"#utility.yul\":3411:3415   */\n      0x24\n        /* \"#utility.yul\":3408:3409   */\n      0x00\n        /* \"#utility.yul\":3401:3416   */\n      revert\n        /* \"#utility.yul\":3428:3984   */\n    tag_29:\n        /* \"#utility.yul\":3467:3474   */\n      0x00\n        /* \"#utility.yul\":3490:3509   */\n      tag_102\n        /* \"#utility.yul\":3507:3508   */\n      dup3\n        /* \"#utility.yul\":3490:3509   */\n      tag_51\n      jump\t// in\n    tag_102:\n        /* \"#utility.yul\":3485:3509   */\n      swap2\n      pop\n        /* \"#utility.yul\":3523:3542   */\n      tag_103\n        /* \"#utility.yul\":3540:3541   */\n      dup4\n        /* \"#utility.yul\":3523:3542   */\n      tag_51\n      jump\t// in\n    tag_103:\n        /* \"#utility.yul\":3518:3542   */\n      swap3\n      pop\n        /* \"#utility.yul\":3577:3578   */\n      dup3\n        /* \"#utility.yul\":3574:3575   */\n      dup3\n        /* \"#utility.yul\":3570:3579   */\n      mul\n        /* \"#utility.yul\":3599:3628   */\n      tag_104\n        /* \"#utility.yul\":3616:3627   */\n      dup2\n        /* \"#utility.yul\":3599:3628   */\n      tag_51\n      jump\t// in\n    tag_104:\n        /* \"#utility.yul\":3588:3628   */\n      swap2\n      pop\n        /* \"#utility.yul\":3686:3752   */\n      0x8000000000000000000000000000000000000000000000000000000000000000\n        /* \"#utility.yul\":3683:3684   */\n      dup5\n        /* \"#utility.yul\":3680:3753   */\n      eq\n        /* \"#utility.yul\":3676:3677   */\n      0x00\n        /* \"#utility.yul\":3673:3674   */\n      dup5\n        /* \"#utility.yul\":3669:3678   */\n      slt\n        /* \"#utility.yul\":3665:3754   */\n      and\n        /* \"#utility.yul\":3662:3777   */\n      iszero\n      tag_105\n      jumpi\n        /* \"#utility.yul\":3757:3775   */\n      tag_106\n      tag_55\n      jump\t// in\n    tag_106:\n        /* \"#utility.yul\":3662:3777   */\n    tag_105:\n        /* \"#utility.yul\":3927:3928   */\n      dup3\n        /* \"#utility.yul\":3918:3925   */\n      dup3\n        /* \"#utility.yul\":3913:3929   */\n      sdiv\n        /* \"#utility.yul\":3910:3911   */\n      dup5\n        /* \"#utility.yul\":3907:3930   */\n      eq\n        /* \"#utility.yul\":3887:3888   */\n      dup4\n        /* \"#utility.yul\":3880:3889   */\n      iszero\n        /* \"#utility.yul\":3860:3944   */\n      or\n        /* \"#utility.yul\":3837:3977   */\n      tag_107\n      jumpi\n        /* \"#utility.yul\":3957:3975   */\n      tag_108\n      tag_55\n      jump\t// in\n    tag_108:\n        /* \"#utility.yul\":3837:3977   */\n    tag_107:\n        /* \"#utility.yul\":3475:3984   */\n      pop\n        /* \"#utility.yul\":3428:3984   */\n      swap3\n      swap2\n      pop\n      pop\n      jump\t// out\n        /* \"#utility.yul\":3990:4400   */\n    tag_33:\n        /* \"#utility.yul\":4030:4037   */\n      0x00\n        /* \"#utility.yul\":4053:4073   */\n      tag_110\n        /* \"#utility.yul\":4071:4072   */\n      dup3\n        /* \"#utility.yul\":4053:4073   */\n      tag_41\n      jump\t// in\n    tag_110:\n        /* \"#utility.yul\":4048:4073   */\n      swap2\n      pop\n        /* \"#utility.yul\":4087:4107   */\n      tag_111\n        /* \"#utility.yul\":4105:4106   */\n      dup4\n        /* \"#utility.yul\":4087:4107   */\n      tag_41\n      jump\t// in\n    tag_111:\n        /* \"#utility.yul\":4082:4107   */\n      swap3\n      pop\n        /* \"#utility.yul\":4142:4143   */\n      dup3\n        /* \"#utility.yul\":4139:4140   */\n      dup3\n        /* \"#utility.yul\":4135:4144   */\n      mul\n        /* \"#utility.yul\":4164:4194   */\n      tag_112\n        /* \"#utility.yul\":4182:4193   */\n      dup2\n        /* \"#utility.yul\":4164:4194   */\n      tag_41\n      jump\t// in\n    tag_112:\n        /* \"#utility.yul\":4153:4194   */\n      swap2\n      pop\n        /* \"#utility.yul\":4343:4344   */\n      dup3\n        /* \"#utility.yul\":4334:4341   */\n      dup3\n        /* \"#utility.yul\":4330:4345   */\n      div\n        /* \"#utility.yul\":4327:4328   */\n      dup5\n        /* \"#utility.yul\":4324:4346   */\n      eq\n        /* \"#utility.yul\":4304:4305   */\n      dup4\n        /* \"#utility.yul\":4297:4306   */\n      iszero\n        /* \"#utility.yul\":4277:4360   */\n      or\n        /* \"#utility.yul\":4254:4393   */\n      tag_113\n      jumpi\n        /* \"#utility.yul\":4373:4391   */\n      tag_114\n      tag_55\n      jump\t// in\n    tag_114:\n        /* \"#utility.yul\":4254:4393   */\n    tag_113:\n        /* \"#utility.yul\":4038:4400   */\n      pop\n        /* \"#utility.yul\":3990:4400   */\n      swap3\n      swap2\n      pop\n      pop\n      jump\t// out\n        /* \"#utility.yul\":4406:4586   */\n    tag_56:\n        /* \"#utility.yul\":4454:4531   */\n      0x4e487b7100000000000000000000000000000000000000000000000000000000\n        /* \"#utility.yul\":4451:4452   */\n      0x00\n        /* \"#utility.yul\":4444:4532   */\n      mstore\n        /* \"#utility.yul\":4551:4555   */\n      0x12\n        /* \"#utility.yul\":4548:4549   */\n      0x04\n        /* \"#utility.yul\":4541:4556   */\n      mstore\n        /* \"#utility.yul\":4575:4579   */\n      0x24\n        /* \"#utility.yul\":4572:4573   */\n      0x00\n        /* \"#utility.yul\":4565:4580   */\n      revert\n        /* \"#utility.yul\":4592:4777   */\n    tag_35:\n        /* \"#utility.yul\":4632:4633   */\n      0x00\n        /* \"#utility.yul\":4649:4669   */\n      tag_117\n        /* \"#utility.yul\":4667:4668   */\n      dup3\n        /* \"#utility.yul\":4649:4669   */\n      tag_41\n      jump\t// in\n    tag_117:\n        /* \"#utility.yul\":4644:4669   */\n      swap2\n      pop\n        /* \"#utility.yul\":4683:4703   */\n      tag_118\n        /* \"#utility.yul\":4701:4702   */\n      dup4\n        /* \"#utility.yul\":4683:4703   */\n      tag_41\n      jump\t// in\n    tag_118:\n        /* \"#utility.yul\":4678:4703   */\n      swap3\n      pop\n        /* \"#utility.yul\":4722:4723   */\n      dup3\n        /* \"#utility.yul\":4712:4747   */\n      tag_119\n      jumpi\n        /* \"#utility.yul\":4727:4745   */\n      tag_120\n      tag_56\n      jump\t// in\n    tag_120:\n        /* \"#utility.yul\":4712:4747   */\n    tag_119:\n        /* \"#utility.yul\":4769:4770   */\n      dup3\n        /* \"#utility.yul\":4766:4767   */\n      dup3\n        /* \"#utility.yul\":4762:4771   */\n      div\n        /* \"#utility.yul\":4757:4771   */\n      swap1\n      pop\n        /* \"#utility.yul\":4592:4777   */\n      swap3\n      swap2\n      pop\n      pop\n      jump\t// out\n        /* \"#utility.yul\":4783:4952   */\n    tag_57:\n        /* \"#utility.yul\":4867:4878   */\n      0x00\n        /* \"#utility.yul\":4901:4907   */\n      dup3\n        /* \"#utility.yul\":4896:4899   */\n      dup3\n        /* \"#utility.yul\":4889:4908   */\n      mstore\n        /* \"#utility.yul\":4941:4945   */\n      0x20\n        /* \"#utility.yul\":4936:4939   */\n      dup3\n        /* \"#utility.yul\":4932:4946   */\n      add\n        /* \"#utility.yul\":4917:4946   */\n      swap1\n      pop\n        /* \"#utility.yul\":4783:4952   */\n      swap3\n      swap2\n      pop\n      pop\n      jump\t// out\n        /* \"#utility.yul\":4958:5127   */\n    tag_58:\n        /* \"#utility.yul\":5098:5119   */\n      0x4469646e27742073656e6420656e6f7567682100000000000000000000000000\n        /* \"#utility.yul\":5094:5095   */\n      0x00\n        /* \"#utility.yul\":5086:5092   */\n      dup3\n        /* \"#utility.yul\":5082:5096   */\n      add\n        /* \"#utility.yul\":5075:5120   */\n      mstore\n        /* \"#utility.yul\":4958:5127   */\n      pop\n      jump\t// out\n        /* \"#utility.yul\":5133:5499   */\n    tag_59:\n        /* \"#utility.yul\":5275:5278   */\n      0x00\n        /* \"#utility.yul\":5296:5363   */\n      tag_124\n        /* \"#utility.yul\":5360:5362   */\n      0x13\n        /* \"#utility.yul\":5355:5358   */\n      dup4\n        /* \"#utility.yul\":5296:5363   */\n      tag_57\n      jump\t// in\n    tag_124:\n        /* \"#utility.yul\":5289:5363   */\n      swap2\n      pop\n        /* \"#utility.yul\":5372:5465   */\n      tag_125\n        /* \"#utility.yul\":5461:5464   */\n      dup3\n        /* \"#utility.yul\":5372:5465   */\n      tag_58\n      jump\t// in\n    tag_125:\n        /* \"#utility.yul\":5490:5492   */\n      0x20\n        /* \"#utility.yul\":5485:5488   */\n      dup3\n        /* \"#utility.yul\":5481:5493   */\n      add\n        /* \"#utility.yul\":5474:5493   */\n      swap1\n      pop\n        /* \"#utility.yul\":5133:5499   */\n      swap2\n      swap1\n      pop\n      jump\t// out\n        /* \"#utility.yul\":5505:5924   */\n    tag_40:\n        /* \"#utility.yul\":5671:5675   */\n      0x00\n        /* \"#utility.yul\":5709:5711   */\n      0x20\n        /* \"#utility.yul\":5698:5707   */\n      dup3\n        /* \"#utility.yul\":5694:5712   */\n      add\n        /* \"#utility.yul\":5686:5712   */\n      swap1\n      pop\n        /* \"#utility.yul\":5758:5767   */\n      dup2\n        /* \"#utility.yul\":5752:5756   */\n      dup2\n        /* \"#utility.yul\":5748:5768   */\n      sub\n        /* \"#utility.yul\":5744:5745   */\n      0x00\n        /* \"#utility.yul\":5733:5742   */\n      dup4\n        /* \"#utility.yul\":5729:5746   */\n      add\n        /* \"#utility.yul\":5722:5769   */\n      mstore\n        /* \"#utility.yul\":5786:5917   */\n      tag_127\n        /* \"#utility.yul\":5912:5916   */\n      dup2\n        /* \"#utility.yul\":5786:5917   */\n      tag_59\n      jump\t// in\n    tag_127:\n        /* \"#utility.yul\":5778:5917   */\n      swap1\n      pop\n        /* \"#utility.yul\":5505:5924   */\n      swap2\n      swap1\n      pop\n      jump\t// out\n\n    auxdata: 0xa2646970667358221220a9e86f7b37226fdb72f3fdcb81ea0a8979c75c6cfdf50a25be82a5fc84439bc164736f6c63430008110033\n}\n",
				"bytecode": {
					"linkReferences": {},
					"object": "60806040526802b5e3af16b188000060005534801561001d57600080fd5b506105af8061002d6000396000f3fe60806040526004361061003f5760003560e01c8063098de8201461004457806398d5fdca1461006f578063a4115c2a1461009a578063b60d4288146100d7575b600080fd5b34801561005057600080fd5b506100596100e1565b6040516100669190610232565b60405180910390f35b34801561007b57600080fd5b506100846100e7565b6040516100919190610232565b60405180910390f35b3480156100a657600080fd5b506100c160048036038101906100bc919061027e565b610190565b6040516100ce9190610232565b60405180910390f35b6100df6101ca565b005b60005481565b60008073d4a33860578de61dbabdc8bfdb98fd742fa7028e905060008173ffffffffffffffffffffffffffffffffffffffff1663feaf968c6040518163ffffffff1660e01b815260040160a060405180830381865afa15801561014e573d6000803e3d6000fd5b505050506040513d601f19601f820116820180604052508101906101729190610338565b5050509150506402540be4008161018991906103e2565b9250505090565b60008061019b6100e7565b90506000670de0b6b3a764000084836101b4919061045a565b6101be91906104cb565b90508092505050919050565b6000546101d634610190565b1015610217576040517f08c379a000000000000000000000000000000000000000000000000000000000815260040161020e90610559565b60405180910390fd5b565b6000819050919050565b61022c81610219565b82525050565b60006020820190506102476000830184610223565b92915050565b600080fd5b61025b81610219565b811461026657600080fd5b50565b60008135905061027881610252565b92915050565b6000602082840312156102945761029361024d565b5b60006102a284828501610269565b91505092915050565b600069ffffffffffffffffffff82169050919050565b6102ca816102ab565b81146102d557600080fd5b50565b6000815190506102e7816102c1565b92915050565b6000819050919050565b610300816102ed565b811461030b57600080fd5b50565b60008151905061031d816102f7565b92915050565b60008151905061033281610252565b92915050565b600080600080600060a086880312156103545761035361024d565b5b6000610362888289016102d8565b95505060206103738882890161030e565b945050604061038488828901610323565b935050606061039588828901610323565b92505060806103a6888289016102d8565b9150509295509295909350565b7f4e487b7100000000000000000000000000000000000000000000000000000000600052601160045260246000fd5b60006103ed826102ed565b91506103f8836102ed565b9250828202610406816102ed565b91507f8000000000000000000000000000000000000000000000000000000000000000841460008412161561043e5761043d6103b3565b5b8282058414831517610453576104526103b3565b5b5092915050565b600061046582610219565b915061047083610219565b925082820261047e81610219565b91508282048414831517610495576104946103b3565b5b5092915050565b7f4e487b7100000000000000000000000000000000000000000000000000000000600052601260045260246000fd5b60006104d682610219565b91506104e183610219565b9250826104f1576104f061049c565b5b828204905092915050565b600082825260208201905092915050565b7f4469646e27742073656e6420656e6f7567682100000000000000000000000000600082015250565b60006105436013836104fc565b915061054e8261050d565b602082019050919050565b6000602082019050818103600083015261057281610536565b905091905056fea2646970667358221220a9e86f7b37226fdb72f3fdcb81ea0a8979c75c6cfdf50a25be82a5fc84439bc164736f6c63430008110033",
					"opcodes": "PUSH1 0x80 PUSH1 0x40 MSTORE PUSH9 0x2B5E3AF16B1880000 PUSH1 0x0 SSTORE CALLVALUE DUP1 ISZERO PUSH2 0x1D JUMPI PUSH1 0x0 DUP1 REVERT JUMPDEST POP PUSH2 0x5AF DUP1 PUSH2 0x2D PUSH1 0x0 CODECOPY PUSH1 0x0 RETURN INVALID PUSH1 0x80 PUSH1 0x40 MSTORE PUSH1 0x4 CALLDATASIZE LT PUSH2 0x3F JUMPI PUSH1 0x0 CALLDATALOAD PUSH1 0xE0 SHR DUP1 PUSH4 0x98DE820 EQ PUSH2 0x44 JUMPI DUP1 PUSH4 0x98D5FDCA EQ PUSH2 0x6F JUMPI DUP1 PUSH4 0xA4115C2A EQ PUSH2 0x9A JUMPI DUP1 PUSH4 0xB60D4288 EQ PUSH2 0xD7 JUMPI JUMPDEST PUSH1 0x0 DUP1 REVERT JUMPDEST CALLVALUE DUP1 ISZERO PUSH2 0x50 JUMPI PUSH1 0x0 DUP1 REVERT JUMPDEST POP PUSH2 0x59 PUSH2 0xE1 JUMP JUMPDEST PUSH1 0x40 MLOAD PUSH2 0x66 SWAP2 SWAP1 PUSH2 0x232 JUMP JUMPDEST PUSH1 0x40 MLOAD DUP1 SWAP2 SUB SWAP1 RETURN JUMPDEST CALLVALUE DUP1 ISZERO PUSH2 0x7B JUMPI PUSH1 0x0 DUP1 REVERT JUMPDEST POP PUSH2 0x84 PUSH2 0xE7 JUMP JUMPDEST PUSH1 0x40 MLOAD PUSH2 0x91 SWAP2 SWAP1 PUSH2 0x232 JUMP JUMPDEST PUSH1 0x40 MLOAD DUP1 SWAP2 SUB SWAP1 RETURN JUMPDEST CALLVALUE DUP1 ISZERO PUSH2 0xA6 JUMPI PUSH1 0x0 DUP1 REVERT JUMPDEST POP PUSH2 0xC1 PUSH1 0x4 DUP1 CALLDATASIZE SUB DUP2 ADD SWAP1 PUSH2 0xBC SWAP2 SWAP1 PUSH2 0x27E JUMP JUMPDEST PUSH2 0x190 JUMP JUMPDEST PUSH1 0x40 MLOAD PUSH2 0xCE SWAP2 SWAP1 PUSH2 0x232 JUMP JUMPDEST PUSH1 0x40 MLOAD DUP1 SWAP2 SUB SWAP1 RETURN JUMPDEST PUSH2 0xDF PUSH2 0x1CA JUMP JUMPDEST STOP JUMPDEST PUSH1 0x0 SLOAD DUP2 JUMP JUMPDEST PUSH1 0x0 DUP1 PUSH20 0xD4A33860578DE61DBABDC8BFDB98FD742FA7028E SWAP1 POP PUSH1 0x0 DUP2 PUSH20 0xFFFFFFFFFFFFFFFFFFFFFFFFFFFFFFFFFFFFFFFF AND PUSH4 0xFEAF968C PUSH1 0x40 MLOAD DUP2 PUSH4 0xFFFFFFFF AND PUSH1 0xE0 SHL DUP2 MSTORE PUSH1 0x4 ADD PUSH1 0xA0 PUSH1 0x40 MLOAD DUP1 DUP4 SUB DUP2 DUP7 GAS STATICCALL ISZERO DUP1 ISZERO PUSH2 0x14E JUMPI RETURNDATASIZE PUSH1 0x0 DUP1 RETURNDATACOPY RETURNDATASIZE PUSH1 0x0 REVERT JUMPDEST POP POP POP POP PUSH1 0x40 MLOAD RETURNDATASIZE PUSH1 0x1F NOT PUSH1 0x1F DUP3 ADD AND DUP3 ADD DUP1 PUSH1 0x40 MSTORE POP DUP2 ADD SWAP1 PUSH2 0x172 SWAP2 SWAP1 PUSH2 0x338 JUMP JUMPDEST POP POP POP SWAP2 POP POP PUSH5 0x2540BE400 DUP2 PUSH2 0x189 SWAP2 SWAP1 PUSH2 0x3E2 JUMP JUMPDEST SWAP3 POP POP POP SWAP1 JUMP JUMPDEST PUSH1 0x0 DUP1 PUSH2 0x19B PUSH2 0xE7 JUMP JUMPDEST SWAP1 POP PUSH1 0x0 PUSH8 0xDE0B6B3A7640000 DUP5 DUP4 PUSH2 0x1B4 SWAP2 SWAP1 PUSH2 0x45A JUMP JUMPDEST PUSH2 0x1BE SWAP2 SWAP1 PUSH2 0x4CB JUMP JUMPDEST SWAP1 POP DUP1 SWAP3 POP POP POP SWAP2 SWAP1 POP JUMP JUMPDEST PUSH1 0x0 SLOAD PUSH2 0x1D6 CALLVALUE PUSH2 0x190 JUMP JUMPDEST LT ISZERO PUSH2 0x217 JUMPI PUSH1 0x40 MLOAD PUSH32 0x8C379A000000000000000000000000000000000000000000000000000000000 DUP2 MSTORE PUSH1 0x4 ADD PUSH2 0x20E SWAP1 PUSH2 0x559 JUMP JUMPDEST PUSH1 0x40 MLOAD DUP1 SWAP2 SUB SWAP1 REVERT JUMPDEST JUMP JUMPDEST PUSH1 0x0 DUP2 SWAP1 POP SWAP2 SWAP1 POP JUMP JUMPDEST PUSH2 0x22C DUP2 PUSH2 0x219 JUMP JUMPDEST DUP3 MSTORE POP POP JUMP JUMPDEST PUSH1 0x0 PUSH1 0x20 DUP3 ADD SWAP1 POP PUSH2 0x247 PUSH1 0x0 DUP4 ADD DUP5 PUSH2 0x223 JUMP JUMPDEST SWAP3 SWAP2 POP POP JUMP JUMPDEST PUSH1 0x0 DUP1 REVERT JUMPDEST PUSH2 0x25B DUP2 PUSH2 0x219 JUMP JUMPDEST DUP2 EQ PUSH2 0x266 JUMPI PUSH1 0x0 DUP1 REVERT JUMPDEST POP JUMP JUMPDEST PUSH1 0x0 DUP2 CALLDATALOAD SWAP1 POP PUSH2 0x278 DUP2 PUSH2 0x252 JUMP JUMPDEST SWAP3 SWAP2 POP POP JUMP JUMPDEST PUSH1 0x0 PUSH1 0x20 DUP3 DUP5 SUB SLT ISZERO PUSH2 0x294 JUMPI PUSH2 0x293 PUSH2 0x24D JUMP JUMPDEST JUMPDEST PUSH1 0x0 PUSH2 0x2A2 DUP5 DUP3 DUP6 ADD PUSH2 0x269 JUMP JUMPDEST SWAP2 POP POP SWAP3 SWAP2 POP POP JUMP JUMPDEST PUSH1 0x0 PUSH10 0xFFFFFFFFFFFFFFFFFFFF DUP3 AND SWAP1 POP SWAP2 SWAP1 POP JUMP JUMPDEST PUSH2 0x2CA DUP2 PUSH2 0x2AB JUMP JUMPDEST DUP2 EQ PUSH2 0x2D5 JUMPI PUSH1 0x0 DUP1 REVERT JUMPDEST POP JUMP JUMPDEST PUSH1 0x0 DUP2 MLOAD SWAP1 POP PUSH2 0x2E7 DUP2 PUSH2 0x2C1 JUMP JUMPDEST SWAP3 SWAP2 POP POP JUMP JUMPDEST PUSH1 0x0 DUP2 SWAP1 POP SWAP2 SWAP1 POP JUMP JUMPDEST PUSH2 0x300 DUP2 PUSH2 0x2ED JUMP JUMPDEST DUP2 EQ PUSH2 0x30B JUMPI PUSH1 0x0 DUP1 REVERT JUMPDEST POP JUMP JUMPDEST PUSH1 0x0 DUP2 MLOAD SWAP1 POP PUSH2 0x31D DUP2 PUSH2 0x2F7 JUMP JUMPDEST SWAP3 SWAP2 POP POP JUMP JUMPDEST PUSH1 0x0 DUP2 MLOAD SWAP1 POP PUSH2 0x332 DUP2 PUSH2 0x252 JUMP JUMPDEST SWAP3 SWAP2 POP POP JUMP JUMPDEST PUSH1 0x0 DUP1 PUSH1 0x0 DUP1 PUSH1 0x0 PUSH1 0xA0 DUP7 DUP9 SUB SLT ISZERO PUSH2 0x354 JUMPI PUSH2 0x353 PUSH2 0x24D JUMP JUMPDEST JUMPDEST PUSH1 0x0 PUSH2 0x362 DUP9 DUP3 DUP10 ADD PUSH2 0x2D8 JUMP JUMPDEST SWAP6 POP POP PUSH1 0x20 PUSH2 0x373 DUP9 DUP3 DUP10 ADD PUSH2 0x30E JUMP JUMPDEST SWAP5 POP POP PUSH1 0x40 PUSH2 0x384 DUP9 DUP3 DUP10 ADD PUSH2 0x323 JUMP JUMPDEST SWAP4 POP POP PUSH1 0x60 PUSH2 0x395 DUP9 DUP3 DUP10 ADD PUSH2 0x323 JUMP JUMPDEST SWAP3 POP POP PUSH1 0x80 PUSH2 0x3A6 DUP9 DUP3 DUP10 ADD PUSH2 0x2D8 JUMP JUMPDEST SWAP2 POP POP SWAP3 SWAP6 POP SWAP3 SWAP6 SWAP1 SWAP4 POP JUMP JUMPDEST PUSH32 0x4E487B7100000000000000000000000000000000000000000000000000000000 PUSH1 0x0 MSTORE PUSH1 0x11 PUSH1 0x4 MSTORE PUSH1 0x24 PUSH1 0x0 REVERT JUMPDEST PUSH1 0x0 PUSH2 0x3ED DUP3 PUSH2 0x2ED JUMP JUMPDEST SWAP2 POP PUSH2 0x3F8 DUP4 PUSH2 0x2ED JUMP JUMPDEST SWAP3 POP DUP3 DUP3 MUL PUSH2 0x406 DUP2 PUSH2 0x2ED JUMP JUMPDEST SWAP2 POP PUSH32 0x8000000000000000000000000000000000000000000000000000000000000000 DUP5 EQ PUSH1 0x0 DUP5 SLT AND ISZERO PUSH2 0x43E JUMPI PUSH2 0x43D PUSH2 0x3B3 JUMP JUMPDEST JUMPDEST DUP3 DUP3 SDIV DUP5 EQ DUP4 ISZERO OR PUSH2 0x453 JUMPI PUSH2 0x452 PUSH2 0x3B3 JUMP JUMPDEST JUMPDEST POP SWAP3 SWAP2 POP POP JUMP JUMPDEST PUSH1 0x0 PUSH2 0x465 DUP3 PUSH2 0x219 JUMP JUMPDEST SWAP2 POP PUSH2 0x470 DUP4 PUSH2 0x219 JUMP JUMPDEST SWAP3 POP DUP3 DUP3 MUL PUSH2 0x47E DUP2 PUSH2 0x219 JUMP JUMPDEST SWAP2 POP DUP3 DUP3 DIV DUP5 EQ DUP4 ISZERO OR PUSH2 0x495 JUMPI PUSH2 0x494 PUSH2 0x3B3 JUMP JUMPDEST JUMPDEST POP SWAP3 SWAP2 POP POP JUMP JUMPDEST PUSH32 0x4E487B7100000000000000000000000000000000000000000000000000000000 PUSH1 0x0 MSTORE PUSH1 0x12 PUSH1 0x4 MSTORE PUSH1 0x24 PUSH1 0x0 REVERT JUMPDEST PUSH1 0x0 PUSH2 0x4D6 DUP3 PUSH2 0x219 JUMP JUMPDEST SWAP2 POP PUSH2 0x4E1 DUP4 PUSH2 0x219 JUMP JUMPDEST SWAP3 POP DUP3 PUSH2 0x4F1 JUMPI PUSH2 0x4F0 PUSH2 0x49C JUMP JUMPDEST JUMPDEST DUP3 DUP3 DIV SWAP1 POP SWAP3 SWAP2 POP POP JUMP JUMPDEST PUSH1 0x0 DUP3 DUP3 MSTORE PUSH1 0x20 DUP3 ADD SWAP1 POP SWAP3 SWAP2 POP POP JUMP JUMPDEST PUSH32 0x4469646E27742073656E6420656E6F7567682100000000000000000000000000 PUSH1 0x0 DUP3 ADD MSTORE POP JUMP JUMPDEST PUSH1 0x0 PUSH2 0x543 PUSH1 0x13 DUP4 PUSH2 0x4FC JUMP JUMPDEST SWAP2 POP PUSH2 0x54E DUP3 PUSH2 0x50D JUMP JUMPDEST PUSH1 0x20 DUP3 ADD SWAP1 POP SWAP2 SWAP1 POP JUMP JUMPDEST PUSH1 0x0 PUSH1 0x20 DUP3 ADD SWAP1 POP DUP2 DUP2 SUB PUSH1 0x0 DUP4 ADD MSTORE PUSH2 0x572 DUP2 PUSH2 0x536 JUMP JUMPDEST SWAP1 POP SWAP2 SWAP1 POP JUMP INVALID LOG2 PUSH5 0x6970667358 0x22 SLT KECCAK256 0xA9 0xE8 PUSH16 0x7B37226FDB72F3FDCB81EA0A8979C75C PUSH13 0xFDF50A25BE82A5FC84439BC164 PUSH20 0x6F6C634300081100330000000000000000000000 "
				},
				"gasEstimates": {
					"creation": {
						"codeDepositCost": "291000",
						"executionCost": "22437",
						"totalCost": "313437"
					},
					"external": {
						"fund()": "infinite",
						"getConverstionRate(uint256)": "infinite",
						"getPrice()": "infinite",
						"minimumUsd()": "2407"
					}
				},
				"methodIdentifiers": {
					"fund()": "b60d4288",
					"getConverstionRate(uint256)": "a4115c2a",
					"getPrice()": "98d5fdca",
					"minimumUsd()": "098de820"
				}
			},
			"storageLayout": {
				"storage": [
					{
						"astId": 53,
						"contract": "contracts/FundMe.sol:FundMe",
						"label": "minimumUsd",
						"offset": 0,
						"slot": "0",
						"type": "t_uint256"
					}
				],
				"types": {
					"t_uint256": {
						"encoding": "inplace",
						"label": "uint256",
						"numberOfBytes": "32"
					}
				}
			},
			"userdoc": {
				"kind": "user",
				"methods": {},
				"version": 1
			}
		}
	}
}