{
	"contracts/StorageFactory.sol": {
		"StorageFactory": {
			"abi": [
				{
					"inputs": [],
					"name": "createSimpleStorageContract",
					"outputs": [],
					"stateMutability": "nonpayable",
					"type": "function"
				},
				{
					"inputs": [
						{
							"internalType": "uint256",
							"name": "_simpleStorageIndex",
							"type": "uint256"
						},
						{
							"internalType": "uint256",
							"name": "_simpleStorageNumber",
							"type": "uint256"
						}
					],
					"name": "sfStore",
					"outputs": [],
					"stateMutability": "nonpayable",
					"type": "function"
				},
				{
					"inputs": [
						{
							"internalType": "uint256",
							"name": "",
							"type": "uint256"
						}
					],
					"name": "simpleStorageArray",
					"outputs": [
						{
							"internalType": "contract SimpleStorage",
							"name": "",
							"type": "address"
						}
					],
					"stateMutability": "view",
					"type": "function"
				}
			],
			"devdoc": {
				"kind": "dev",
				"methods": {},
				"version": 1
			},
			"evm": {
				"assembly": "    /* \"contracts/StorageFactory.sol\":88:576  contract StorageFactory {... */\n  mstore(0x40, 0x80)\n  callvalue\n  dup1\n  iszero\n  tag_1\n  jumpi\n  0x00\n  dup1\n  revert\ntag_1:\n  pop\n  dataSize(sub_0)\n  dup1\n  dataOffset(sub_0)\n  0x00\n  codecopy\n  0x00\n  return\nstop\n\nsub_0: assembly {\n        /* \"contracts/StorageFactory.sol\":88:576  contract StorageFactory {... */\n      mstore(0x40, 0x80)\n      callvalue\n      dup1\n      iszero\n      tag_1\n      jumpi\n      0x00\n      dup1\n      revert\n    tag_1:\n      pop\n      jumpi(tag_2, lt(calldatasize, 0x04))\n      shr(0xe0, calldataload(0x00))\n      dup1\n      0x1563700f\n      eq\n      tag_3\n      jumpi\n      dup1\n      0x1dda6541\n      eq\n      tag_4\n      jumpi\n      dup1\n      0x64591bf1\n      eq\n      tag_5\n      jumpi\n    tag_2:\n      0x00\n      dup1\n      revert\n        /* \"contracts/StorageFactory.sol\":332:574  function sfStore(... */\n    tag_3:\n      tag_6\n      0x04\n      dup1\n      calldatasize\n      sub\n      dup2\n      add\n      swap1\n      tag_7\n      swap2\n      swap1\n      tag_8\n      jump\t// in\n    tag_7:\n      tag_9\n      jump\t// in\n    tag_6:\n      stop\n        /* \"contracts/StorageFactory.sol\":219:326  function createSimpleStorageContract() public {... */\n    tag_4:\n      tag_10\n      tag_11\n      jump\t// in\n    tag_10:\n      stop\n        /* \"contracts/StorageFactory.sol\":171:212  SimpleStorage[] public simpleStorageArray */\n    tag_5:\n      tag_12\n      0x04\n      dup1\n      calldatasize\n      sub\n      dup2\n      add\n      swap1\n      tag_13\n      swap2\n      swap1\n      tag_14\n      jump\t// in\n    tag_13:\n      tag_15\n      jump\t// in\n    tag_12:\n      mload(0x40)\n      tag_16\n      swap2\n      swap1\n      tag_17\n      jump\t// in\n    tag_16:\n      mload(0x40)\n      dup1\n      swap2\n      sub\n      swap1\n      return\n        /* \"contracts/StorageFactory.sol\":332:574  function sfStore(... */\n    tag_9:\n        /* \"contracts/StorageFactory.sol\":447:474  SimpleStorage simpleStorage */\n      0x00\n        /* \"contracts/StorageFactory.sol\":477:495  simpleStorageArray */\n      dup1\n        /* \"contracts/StorageFactory.sol\":496:515  _simpleStorageIndex */\n      dup4\n        /* \"contracts/StorageFactory.sol\":477:516  simpleStorageArray[_simpleStorageIndex] */\n      dup2\n      sload\n      dup2\n      lt\n      tag_19\n      jumpi\n      tag_20\n      tag_21\n      jump\t// in\n    tag_20:\n    tag_19:\n      swap1\n      0x00\n      mstore\n      keccak256(0x00, 0x20)\n      add\n      0x00\n      swap1\n      sload\n      swap1\n      0x0100\n      exp\n      swap1\n      div\n      0xffffffffffffffffffffffffffffffffffffffff\n      and\n        /* \"contracts/StorageFactory.sol\":447:516  SimpleStorage simpleStorage = simpleStorageArray[_simpleStorageIndex] */\n      swap1\n      pop\n        /* \"contracts/StorageFactory.sol\":526:539  simpleStorage */\n      dup1\n        /* \"contracts/StorageFactory.sol\":526:545  simpleStorage.store */\n      0xffffffffffffffffffffffffffffffffffffffff\n      and\n      0x6057361d\n        /* \"contracts/StorageFactory.sol\":546:566  _simpleStorageNumber */\n      dup4\n        /* \"contracts/StorageFactory.sol\":526:567  simpleStorage.store(_simpleStorageNumber) */\n      mload(0x40)\n      dup3\n      0xffffffff\n      and\n      0xe0\n      shl\n      dup2\n      mstore\n      0x04\n      add\n      tag_23\n      swap2\n      swap1\n      tag_24\n      jump\t// in\n    tag_23:\n      0x00\n      mload(0x40)\n      dup1\n      dup4\n      sub\n      dup2\n      0x00\n      dup8\n      dup1\n      extcodesize\n      iszero\n      dup1\n      iszero\n      tag_25\n      jumpi\n      0x00\n      dup1\n      revert\n    tag_25:\n      pop\n      gas\n      call\n      iszero\n      dup1\n      iszero\n      tag_27\n      jumpi\n      returndatasize\n      0x00\n      dup1\n      returndatacopy\n      revert(0x00, returndatasize)\n    tag_27:\n      pop\n      pop\n      pop\n      pop\n        /* \"contracts/StorageFactory.sol\":437:574  {... */\n      pop\n        /* \"contracts/StorageFactory.sol\":332:574  function sfStore(... */\n      pop\n      pop\n      jump\t// out\n        /* \"contracts/StorageFactory.sol\":219:326  function createSimpleStorageContract() public {... */\n    tag_11:\n        /* \"contracts/StorageFactory.sol\":275:293  simpleStorageArray */\n      0x00\n        /* \"contracts/StorageFactory.sol\":299:318  new SimpleStorage() */\n      mload(0x40)\n      tag_29\n      swap1\n      tag_30\n      jump\t// in\n    tag_29:\n      mload(0x40)\n      dup1\n      swap2\n      sub\n      swap1\n      0x00\n      create\n      dup1\n      iszero\n      dup1\n      iszero\n      tag_31\n      jumpi\n      returndatasize\n      0x00\n      dup1\n      returndatacopy\n      revert(0x00, returndatasize)\n    tag_31:\n      pop\n        /* \"contracts/StorageFactory.sol\":275:319  simpleStorageArray.push(new SimpleStorage()) */\n      swap1\n      dup1\n      0x01\n      dup2\n      sload\n      add\n      dup1\n      dup3\n      sstore\n      dup1\n      swap2\n      pop\n      pop\n      0x01\n      swap1\n      sub\n      swap1\n      0x00\n      mstore\n      keccak256(0x00, 0x20)\n      add\n      0x00\n      swap1\n      swap2\n      swap1\n      swap2\n      swap1\n      swap2\n      0x0100\n      exp\n      dup2\n      sload\n      dup2\n      0xffffffffffffffffffffffffffffffffffffffff\n      mul\n      not\n      and\n      swap1\n      dup4\n      0xffffffffffffffffffffffffffffffffffffffff\n      and\n      mul\n      or\n      swap1\n      sstore\n      pop\n        /* \"contracts/StorageFactory.sol\":219:326  function createSimpleStorageContract() public {... */\n      jump\t// out\n        /* \"contracts/StorageFactory.sol\":171:212  SimpleStorage[] public simpleStorageArray */\n    tag_15:\n      0x00\n      dup2\n      dup2\n      sload\n      dup2\n      lt\n      tag_33\n      jumpi\n      0x00\n      dup1\n      revert\n    tag_33:\n      swap1\n      0x00\n      mstore\n      keccak256(0x00, 0x20)\n      add\n      0x00\n      swap2\n      pop\n      sload\n      swap1\n      0x0100\n      exp\n      swap1\n      div\n      0xffffffffffffffffffffffffffffffffffffffff\n      and\n      dup2\n      jump\t// out\n    tag_30:\n      dataSize(sub_0)\n      dup1\n      dataOffset(sub_0)\n      dup4\n      codecopy\n      add\n      swap1\n      jump\t// out\n        /* \"#utility.yul\":88:205   */\n    tag_36:\n        /* \"#utility.yul\":197:198   */\n      0x00\n        /* \"#utility.yul\":194:195   */\n      dup1\n        /* \"#utility.yul\":187:199   */\n      revert\n        /* \"#utility.yul\":334:411   */\n    tag_38:\n        /* \"#utility.yul\":371:378   */\n      0x00\n        /* \"#utility.yul\":400:405   */\n      dup2\n        /* \"#utility.yul\":389:405   */\n      swap1\n      pop\n        /* \"#utility.yul\":334:411   */\n      swap2\n      swap1\n      pop\n      jump\t// out\n        /* \"#utility.yul\":417:539   */\n    tag_39:\n        /* \"#utility.yul\":490:514   */\n      tag_54\n        /* \"#utility.yul\":508:513   */\n      dup2\n        /* \"#utility.yul\":490:514   */\n      tag_38\n      jump\t// in\n    tag_54:\n        /* \"#utility.yul\":483:488   */\n      dup2\n        /* \"#utility.yul\":480:515   */\n      eq\n        /* \"#utility.yul\":470:533   */\n      tag_55\n      jumpi\n        /* \"#utility.yul\":529:530   */\n      0x00\n        /* \"#utility.yul\":526:527   */\n      dup1\n        /* \"#utility.yul\":519:531   */\n      revert\n        /* \"#utility.yul\":470:533   */\n    tag_55:\n        /* \"#utility.yul\":417:539   */\n      pop\n      jump\t// out\n        /* \"#utility.yul\":545:684   */\n    tag_40:\n        /* \"#utility.yul\":591:596   */\n      0x00\n        /* \"#utility.yul\":629:635   */\n      dup2\n        /* \"#utility.yul\":616:636   */\n      calldataload\n        /* \"#utility.yul\":607:636   */\n      swap1\n      pop\n        /* \"#utility.yul\":645:678   */\n      tag_57\n        /* \"#utility.yul\":672:677   */\n      dup2\n        /* \"#utility.yul\":645:678   */\n      tag_39\n      jump\t// in\n    tag_57:\n        /* \"#utility.yul\":545:684   */\n      swap3\n      swap2\n      pop\n      pop\n      jump\t// out\n        /* \"#utility.yul\":690:1164   */\n    tag_8:\n        /* \"#utility.yul\":758:764   */\n      0x00\n        /* \"#utility.yul\":766:772   */\n      dup1\n        /* \"#utility.yul\":815:817   */\n      0x40\n        /* \"#utility.yul\":803:812   */\n      dup4\n        /* \"#utility.yul\":794:801   */\n      dup6\n        /* \"#utility.yul\":790:813   */\n      sub\n        /* \"#utility.yul\":786:818   */\n      slt\n        /* \"#utility.yul\":783:902   */\n      iszero\n      tag_59\n      jumpi\n        /* \"#utility.yul\":821:900   */\n      tag_60\n      tag_36\n      jump\t// in\n    tag_60:\n        /* \"#utility.yul\":783:902   */\n    tag_59:\n        /* \"#utility.yul\":941:942   */\n      0x00\n        /* \"#utility.yul\":966:1019   */\n      tag_61\n        /* \"#utility.yul\":1011:1018   */\n      dup6\n        /* \"#utility.yul\":1002:1008   */\n      dup3\n        /* \"#utility.yul\":991:1000   */\n      dup7\n        /* \"#utility.yul\":987:1009   */\n      add\n        /* \"#utility.yul\":966:1019   */\n      tag_40\n      jump\t// in\n    tag_61:\n        /* \"#utility.yul\":956:1019   */\n      swap3\n      pop\n        /* \"#utility.yul\":912:1029   */\n      pop\n        /* \"#utility.yul\":1068:1070   */\n      0x20\n        /* \"#utility.yul\":1094:1147   */\n      tag_62\n        /* \"#utility.yul\":1139:1146   */\n      dup6\n        /* \"#utility.yul\":1130:1136   */\n      dup3\n        /* \"#utility.yul\":1119:1128   */\n      dup7\n        /* \"#utility.yul\":1115:1137   */\n      add\n        /* \"#utility.yul\":1094:1147   */\n      tag_40\n      jump\t// in\n    tag_62:\n        /* \"#utility.yul\":1084:1147   */\n      swap2\n      pop\n        /* \"#utility.yul\":1039:1157   */\n      pop\n        /* \"#utility.yul\":690:1164   */\n      swap3\n      pop\n      swap3\n      swap1\n      pop\n      jump\t// out\n        /* \"#utility.yul\":1170:1499   */\n    tag_14:\n        /* \"#utility.yul\":1229:1235   */\n      0x00\n        /* \"#utility.yul\":1278:1280   */\n      0x20\n        /* \"#utility.yul\":1266:1275   */\n      dup3\n        /* \"#utility.yul\":1257:1264   */\n      dup5\n        /* \"#utility.yul\":1253:1276   */\n      sub\n        /* \"#utility.yul\":1249:1281   */\n      slt\n        /* \"#utility.yul\":1246:1365   */\n      iszero\n      tag_64\n      jumpi\n        /* \"#utility.yul\":1284:1363   */\n      tag_65\n      tag_36\n      jump\t// in\n    tag_65:\n        /* \"#utility.yul\":1246:1365   */\n    tag_64:\n        /* \"#utility.yul\":1404:1405   */\n      0x00\n        /* \"#utility.yul\":1429:1482   */\n      tag_66\n        /* \"#utility.yul\":1474:1481   */\n      dup5\n        /* \"#utility.yul\":1465:1471   */\n      dup3\n        /* \"#utility.yul\":1454:1463   */\n      dup6\n        /* \"#utility.yul\":1450:1472   */\n      add\n        /* \"#utility.yul\":1429:1482   */\n      tag_40\n      jump\t// in\n    tag_66:\n        /* \"#utility.yul\":1419:1482   */\n      swap2\n      pop\n        /* \"#utility.yul\":1375:1492   */\n      pop\n        /* \"#utility.yul\":1170:1499   */\n      swap3\n      swap2\n      pop\n      pop\n      jump\t// out\n        /* \"#utility.yul\":1505:1631   */\n    tag_41:\n        /* \"#utility.yul\":1542:1549   */\n      0x00\n        /* \"#utility.yul\":1582:1624   */\n      0xffffffffffffffffffffffffffffffffffffffff\n        /* \"#utility.yul\":1575:1580   */\n      dup3\n        /* \"#utility.yul\":1571:1625   */\n      and\n        /* \"#utility.yul\":1560:1625   */\n      swap1\n      pop\n        /* \"#utility.yul\":1505:1631   */\n      swap2\n      swap1\n      pop\n      jump\t// out\n        /* \"#utility.yul\":1637:1697   */\n    tag_42:\n        /* \"#utility.yul\":1665:1668   */\n      0x00\n        /* \"#utility.yul\":1686:1691   */\n      dup2\n        /* \"#utility.yul\":1679:1691   */\n      swap1\n      pop\n        /* \"#utility.yul\":1637:1697   */\n      swap2\n      swap1\n      pop\n      jump\t// out\n        /* \"#utility.yul\":1703:1845   */\n    tag_43:\n        /* \"#utility.yul\":1753:1762   */\n      0x00\n        /* \"#utility.yul\":1786:1839   */\n      tag_70\n        /* \"#utility.yul\":1804:1838   */\n      tag_71\n        /* \"#utility.yul\":1813:1837   */\n      tag_72\n        /* \"#utility.yul\":1831:1836   */\n      dup5\n        /* \"#utility.yul\":1813:1837   */\n      tag_41\n      jump\t// in\n    tag_72:\n        /* \"#utility.yul\":1804:1838   */\n      tag_42\n      jump\t// in\n    tag_71:\n        /* \"#utility.yul\":1786:1839   */\n      tag_41\n      jump\t// in\n    tag_70:\n        /* \"#utility.yul\":1773:1839   */\n      swap1\n      pop\n        /* \"#utility.yul\":1703:1845   */\n      swap2\n      swap1\n      pop\n      jump\t// out\n        /* \"#utility.yul\":1851:1977   */\n    tag_44:\n        /* \"#utility.yul\":1901:1910   */\n      0x00\n        /* \"#utility.yul\":1934:1971   */\n      tag_74\n        /* \"#utility.yul\":1965:1970   */\n      dup3\n        /* \"#utility.yul\":1934:1971   */\n      tag_43\n      jump\t// in\n    tag_74:\n        /* \"#utility.yul\":1921:1971   */\n      swap1\n      pop\n        /* \"#utility.yul\":1851:1977   */\n      swap2\n      swap1\n      pop\n      jump\t// out\n        /* \"#utility.yul\":1983:2129   */\n    tag_45:\n        /* \"#utility.yul\":2053:2062   */\n      0x00\n        /* \"#utility.yul\":2086:2123   */\n      tag_76\n        /* \"#utility.yul\":2117:2122   */\n      dup3\n        /* \"#utility.yul\":2086:2123   */\n      tag_44\n      jump\t// in\n    tag_76:\n        /* \"#utility.yul\":2073:2123   */\n      swap1\n      pop\n        /* \"#utility.yul\":1983:2129   */\n      swap2\n      swap1\n      pop\n      jump\t// out\n        /* \"#utility.yul\":2135:2306   */\n    tag_46:\n        /* \"#utility.yul\":2242:2299   */\n      tag_78\n        /* \"#utility.yul\":2293:2298   */\n      dup2\n        /* \"#utility.yul\":2242:2299   */\n      tag_45\n      jump\t// in\n    tag_78:\n        /* \"#utility.yul\":2237:2240   */\n      dup3\n        /* \"#utility.yul\":2230:2300   */\n      mstore\n        /* \"#utility.yul\":2135:2306   */\n      pop\n      pop\n      jump\t// out\n        /* \"#utility.yul\":2312:2574   */\n    tag_17:\n        /* \"#utility.yul\":2425:2429   */\n      0x00\n        /* \"#utility.yul\":2463:2465   */\n      0x20\n        /* \"#utility.yul\":2452:2461   */\n      dup3\n        /* \"#utility.yul\":2448:2466   */\n      add\n        /* \"#utility.yul\":2440:2466   */\n      swap1\n      pop\n        /* \"#utility.yul\":2476:2567   */\n      tag_80\n        /* \"#utility.yul\":2564:2565   */\n      0x00\n        /* \"#utility.yul\":2553:2562   */\n      dup4\n        /* \"#utility.yul\":2549:2566   */\n      add\n        /* \"#utility.yul\":2540:2546   */\n      dup5\n        /* \"#utility.yul\":2476:2567   */\n      tag_46\n      jump\t// in\n    tag_80:\n        /* \"#utility.yul\":2312:2574   */\n      swap3\n      swap2\n      pop\n      pop\n      jump\t// out\n        /* \"#utility.yul\":2580:2760   */\n    tag_21:\n        /* \"#utility.yul\":2628:2705   */\n      0x4e487b7100000000000000000000000000000000000000000000000000000000\n        /* \"#utility.yul\":2625:2626   */\n      0x00\n        /* \"#utility.yul\":2618:2706   */\n      mstore\n        /* \"#utility.yul\":2725:2729   */\n      0x32\n        /* \"#utility.yul\":2722:2723   */\n      0x04\n        /* \"#utility.yul\":2715:2730   */\n      mstore\n        /* \"#utility.yul\":2749:2753   */\n      0x24\n        /* \"#utility.yul\":2746:2747   */\n      0x00\n        /* \"#utility.yul\":2739:2754   */\n      revert\n        /* \"#utility.yul\":2766:2884   */\n    tag_47:\n        /* \"#utility.yul\":2853:2877   */\n      tag_83\n        /* \"#utility.yul\":2871:2876   */\n      dup2\n        /* \"#utility.yul\":2853:2877   */\n      tag_38\n      jump\t// in\n    tag_83:\n        /* \"#utility.yul\":2848:2851   */\n      dup3\n        /* \"#utility.yul\":2841:2878   */\n      mstore\n        /* \"#utility.yul\":2766:2884   */\n      pop\n      pop\n      jump\t// out\n        /* \"#utility.yul\":2890:3112   */\n    tag_24:\n        /* \"#utility.yul\":2983:2987   */\n      0x00\n        /* \"#utility.yul\":3021:3023   */\n      0x20\n        /* \"#utility.yul\":3010:3019   */\n      dup3\n        /* \"#utility.yul\":3006:3024   */\n      add\n        /* \"#utility.yul\":2998:3024   */\n      swap1\n      pop\n        /* \"#utility.yul\":3034:3105   */\n      tag_85\n        /* \"#utility.yul\":3102:3103   */\n      0x00\n        /* \"#utility.yul\":3091:3100   */\n      dup4\n        /* \"#utility.yul\":3087:3104   */\n      add\n        /* \"#utility.yul\":3078:3084   */\n      dup5\n        /* \"#utility.yul\":3034:3105   */\n      tag_47\n      jump\t// in\n    tag_85:\n        /* \"#utility.yul\":2890:3112   */\n      swap3\n      swap2\n      pop\n      pop\n      jump\t// out\n    stop\n\n    sub_0: assembly {\n            /* \"contracts/SimpleStorage.sol\":57:740  contract SimpleStorage {... */\n          mstore(0x40, 0x80)\n          callvalue\n          dup1\n          iszero\n          tag_1\n          jumpi\n          0x00\n          dup1\n          revert\n        tag_1:\n          pop\n          dataSize(sub_0)\n          dup1\n          dataOffset(sub_0)\n          0x00\n          codecopy\n          0x00\n          return\n        stop\n\n        sub_0: assembly {\n                /* \"contracts/SimpleStorage.sol\":57:740  contract SimpleStorage {... */\n              mstore(0x40, 0x80)\n              callvalue\n              dup1\n              iszero\n              tag_1\n              jumpi\n              0x00\n              dup1\n              revert\n            tag_1:\n              pop\n              jumpi(tag_2, lt(calldatasize, 0x04))\n              shr(0xe0, calldataload(0x00))\n              dup1\n              0x29cd1d96\n              eq\n              tag_3\n              jumpi\n              dup1\n              0x2e64cec1\n              eq\n              tag_4\n              jumpi\n              dup1\n              0x4f2be91f\n              eq\n              tag_5\n              jumpi\n              dup1\n              0x6057361d\n              eq\n              tag_6\n              jumpi\n              dup1\n              0x795fff1d\n              eq\n              tag_7\n              jumpi\n              dup1\n              0x8bab8dd5\n              eq\n              tag_8\n              jumpi\n            tag_2:\n              0x00\n              dup1\n              revert\n                /* \"contracts/SimpleStorage.sol\":181:213  uint256[] public favoriteNumbers */\n            tag_3:\n              tag_9\n              0x04\n              dup1\n              calldatasize\n              sub\n              dup2\n              add\n              swap1\n              tag_10\n              swap2\n              swap1\n              tag_11\n              jump\t// in\n            tag_10:\n              tag_12\n              jump\t// in\n            tag_9:\n              mload(0x40)\n              tag_13\n              swap2\n              swap1\n              tag_14\n              jump\t// in\n            tag_13:\n              mload(0x40)\n              dup1\n              swap2\n              sub\n              swap1\n              return\n                /* \"contracts/SimpleStorage.sol\":430:517  function retrieve() public view returns(uint256) {... */\n            tag_4:\n              tag_15\n              tag_16\n              jump\t// in\n            tag_15:\n              mload(0x40)\n              tag_17\n              swap2\n              swap1\n              tag_14\n              jump\t// in\n            tag_17:\n              mload(0x40)\n              dup1\n              swap2\n              sub\n              swap1\n              return\n                /* \"contracts/SimpleStorage.sol\":523:598  function add() public pure returns(uint256) {... */\n            tag_5:\n              tag_18\n              tag_19\n              jump\t// in\n            tag_18:\n              mload(0x40)\n              tag_20\n              swap2\n              swap1\n              tag_14\n              jump\t// in\n            tag_20:\n              mload(0x40)\n              dup1\n              swap2\n              sub\n              swap1\n              return\n                /* \"contracts/SimpleStorage.sol\":220:336  function store(uint256 _favoriteNumber) public {... */\n            tag_6:\n              tag_21\n              0x04\n              dup1\n              calldatasize\n              sub\n              dup2\n              add\n              swap1\n              tag_22\n              swap2\n              swap1\n              tag_11\n              jump\t// in\n            tag_22:\n              tag_23\n              jump\t// in\n            tag_21:\n              stop\n                /* \"contracts/SimpleStorage.sol\":604:738  function addPeople(string memory _name, uint256 _favoriteNumber) public {... */\n            tag_7:\n              tag_24\n              0x04\n              dup1\n              calldatasize\n              sub\n              dup2\n              add\n              swap1\n              tag_25\n              swap2\n              swap1\n              tag_26\n              jump\t// in\n            tag_25:\n              tag_27\n              jump\t// in\n            tag_24:\n              stop\n                /* \"contracts/SimpleStorage.sol\":115:169  mapping(string => uint256) public nameToFavoriteNumber */\n            tag_8:\n              tag_28\n              0x04\n              dup1\n              calldatasize\n              sub\n              dup2\n              add\n              swap1\n              tag_29\n              swap2\n              swap1\n              tag_30\n              jump\t// in\n            tag_29:\n              tag_31\n              jump\t// in\n            tag_28:\n              mload(0x40)\n              tag_32\n              swap2\n              swap1\n              tag_14\n              jump\t// in\n            tag_32:\n              mload(0x40)\n              dup1\n              swap2\n              sub\n              swap1\n              return\n                /* \"contracts/SimpleStorage.sol\":181:213  uint256[] public favoriteNumbers */\n            tag_12:\n              0x02\n              dup2\n              dup2\n              sload\n              dup2\n              lt\n              tag_33\n              jumpi\n              0x00\n              dup1\n              revert\n            tag_33:\n              swap1\n              0x00\n              mstore\n              keccak256(0x00, 0x20)\n              add\n              0x00\n              swap2\n              pop\n              swap1\n              pop\n              sload\n              dup2\n              jump\t// out\n                /* \"contracts/SimpleStorage.sol\":430:517  function retrieve() public view returns(uint256) {... */\n            tag_16:\n                /* \"contracts/SimpleStorage.sol\":470:477  uint256 */\n              0x00\n                /* \"contracts/SimpleStorage.sol\":496:510  favoriteNumber */\n              dup1\n              sload\n                /* \"contracts/SimpleStorage.sol\":489:510  return favoriteNumber */\n              swap1\n              pop\n                /* \"contracts/SimpleStorage.sol\":430:517  function retrieve() public view returns(uint256) {... */\n              swap1\n              jump\t// out\n                /* \"contracts/SimpleStorage.sol\":523:598  function add() public pure returns(uint256) {... */\n            tag_19:\n                /* \"contracts/SimpleStorage.sol\":558:565  uint256 */\n              0x00\n                /* \"contracts/SimpleStorage.sol\":585:590  1 + 1 */\n              0x02\n                /* \"contracts/SimpleStorage.sol\":577:591  return (1 + 1) */\n              swap1\n              pop\n                /* \"contracts/SimpleStorage.sol\":523:598  function add() public pure returns(uint256) {... */\n              swap1\n              jump\t// out\n                /* \"contracts/SimpleStorage.sol\":220:336  function store(uint256 _favoriteNumber) public {... */\n            tag_23:\n                /* \"contracts/SimpleStorage.sol\":294:309  _favoriteNumber */\n              dup1\n                /* \"contracts/SimpleStorage.sol\":277:291  favoriteNumber */\n              0x00\n                /* \"contracts/SimpleStorage.sol\":277:309  favoriteNumber = _favoriteNumber */\n              dup2\n              swap1\n              sstore\n              pop\n                /* \"contracts/SimpleStorage.sol\":319:329  retrieve() */\n              tag_38\n                /* \"contracts/SimpleStorage.sol\":319:327  retrieve */\n              tag_16\n                /* \"contracts/SimpleStorage.sol\":319:329  retrieve() */\n              jump\t// in\n            tag_38:\n              pop\n                /* \"contracts/SimpleStorage.sol\":220:336  function store(uint256 _favoriteNumber) public {... */\n              pop\n              jump\t// out\n                /* \"contracts/SimpleStorage.sol\":604:738  function addPeople(string memory _name, uint256 _favoriteNumber) public {... */\n            tag_27:\n                /* \"contracts/SimpleStorage.sol\":716:731  _favoriteNumber */\n              dup1\n                /* \"contracts/SimpleStorage.sol\":686:706  nameToFavoriteNumber */\n              0x01\n                /* \"contracts/SimpleStorage.sol\":707:712  _name */\n              dup4\n                /* \"contracts/SimpleStorage.sol\":686:713  nameToFavoriteNumber[_name] */\n              mload(0x40)\n              tag_40\n              swap2\n              swap1\n              tag_41\n              jump\t// in\n            tag_40:\n              swap1\n              dup2\n              mstore\n              0x20\n              add\n              mload(0x40)\n              dup1\n              swap2\n              sub\n              swap1\n              keccak256\n                /* \"contracts/SimpleStorage.sol\":686:731  nameToFavoriteNumber[_name] = _favoriteNumber */\n              dup2\n              swap1\n              sstore\n              pop\n                /* \"contracts/SimpleStorage.sol\":604:738  function addPeople(string memory _name, uint256 _favoriteNumber) public {... */\n              pop\n              pop\n              jump\t// out\n                /* \"contracts/SimpleStorage.sol\":115:169  mapping(string => uint256) public nameToFavoriteNumber */\n            tag_31:\n              0x01\n              dup2\n              dup1\n              mload\n              0x20\n              dup2\n              add\n              dup3\n              add\n              dup1\n              mload\n              dup5\n              dup3\n              mstore\n              0x20\n              dup4\n              add\n              0x20\n              dup6\n              add\n              keccak256\n              dup2\n              dup4\n              mstore\n              dup1\n              swap6\n              pop\n              pop\n              pop\n              pop\n              pop\n              pop\n              0x00\n              swap2\n              pop\n              swap1\n              pop\n              sload\n              dup2\n              jump\t// out\n                /* \"#utility.yul\":7:82   */\n            tag_42:\n                /* \"#utility.yul\":40:46   */\n              0x00\n                /* \"#utility.yul\":73:75   */\n              0x40\n                /* \"#utility.yul\":67:76   */\n              mload\n                /* \"#utility.yul\":57:76   */\n              swap1\n              pop\n                /* \"#utility.yul\":7:82   */\n              swap1\n              jump\t// out\n                /* \"#utility.yul\":88:205   */\n            tag_43:\n                /* \"#utility.yul\":197:198   */\n              0x00\n                /* \"#utility.yul\":194:195   */\n              dup1\n                /* \"#utility.yul\":187:199   */\n              revert\n                /* \"#utility.yul\":211:328   */\n            tag_44:\n                /* \"#utility.yul\":320:321   */\n              0x00\n                /* \"#utility.yul\":317:318   */\n              dup1\n                /* \"#utility.yul\":310:322   */\n              revert\n                /* \"#utility.yul\":334:411   */\n            tag_45:\n                /* \"#utility.yul\":371:378   */\n              0x00\n                /* \"#utility.yul\":400:405   */\n              dup2\n                /* \"#utility.yul\":389:405   */\n              swap1\n              pop\n                /* \"#utility.yul\":334:411   */\n              swap2\n              swap1\n              pop\n              jump\t// out\n                /* \"#utility.yul\":417:539   */\n            tag_46:\n                /* \"#utility.yul\":490:514   */\n              tag_69\n                /* \"#utility.yul\":508:513   */\n              dup2\n                /* \"#utility.yul\":490:514   */\n              tag_45\n              jump\t// in\n            tag_69:\n                /* \"#utility.yul\":483:488   */\n              dup2\n                /* \"#utility.yul\":480:515   */\n              eq\n                /* \"#utility.yul\":470:533   */\n              tag_70\n              jumpi\n                /* \"#utility.yul\":529:530   */\n              0x00\n                /* \"#utility.yul\":526:527   */\n              dup1\n                /* \"#utility.yul\":519:531   */\n              revert\n                /* \"#utility.yul\":470:533   */\n            tag_70:\n                /* \"#utility.yul\":417:539   */\n              pop\n              jump\t// out\n                /* \"#utility.yul\":545:684   */\n            tag_47:\n                /* \"#utility.yul\":591:596   */\n              0x00\n                /* \"#utility.yul\":629:635   */\n              dup2\n                /* \"#utility.yul\":616:636   */\n              calldataload\n                /* \"#utility.yul\":607:636   */\n              swap1\n              pop\n                /* \"#utility.yul\":645:678   */\n              tag_72\n                /* \"#utility.yul\":672:677   */\n              dup2\n                /* \"#utility.yul\":645:678   */\n              tag_46\n              jump\t// in\n            tag_72:\n                /* \"#utility.yul\":545:684   */\n              swap3\n              swap2\n              pop\n              pop\n              jump\t// out\n                /* \"#utility.yul\":690:1019   */\n            tag_11:\n                /* \"#utility.yul\":749:755   */\n              0x00\n                /* \"#utility.yul\":798:800   */\n              0x20\n                /* \"#utility.yul\":786:795   */\n              dup3\n                /* \"#utility.yul\":777:784   */\n              dup5\n                /* \"#utility.yul\":773:796   */\n              sub\n                /* \"#utility.yul\":769:801   */\n              slt\n                /* \"#utility.yul\":766:885   */\n              iszero\n              tag_74\n              jumpi\n                /* \"#utility.yul\":804:883   */\n              tag_75\n              tag_43\n              jump\t// in\n            tag_75:\n                /* \"#utility.yul\":766:885   */\n            tag_74:\n                /* \"#utility.yul\":924:925   */\n              0x00\n                /* \"#utility.yul\":949:1002   */\n              tag_76\n                /* \"#utility.yul\":994:1001   */\n              dup5\n                /* \"#utility.yul\":985:991   */\n              dup3\n                /* \"#utility.yul\":974:983   */\n              dup6\n                /* \"#utility.yul\":970:992   */\n              add\n                /* \"#utility.yul\":949:1002   */\n              tag_47\n              jump\t// in\n            tag_76:\n                /* \"#utility.yul\":939:1002   */\n              swap2\n              pop\n                /* \"#utility.yul\":895:1012   */\n              pop\n                /* \"#utility.yul\":690:1019   */\n              swap3\n              swap2\n              pop\n              pop\n              jump\t// out\n                /* \"#utility.yul\":1025:1143   */\n            tag_48:\n                /* \"#utility.yul\":1112:1136   */\n              tag_78\n                /* \"#utility.yul\":1130:1135   */\n              dup2\n                /* \"#utility.yul\":1112:1136   */\n              tag_45\n              jump\t// in\n            tag_78:\n                /* \"#utility.yul\":1107:1110   */\n              dup3\n                /* \"#utility.yul\":1100:1137   */\n              mstore\n                /* \"#utility.yul\":1025:1143   */\n              pop\n              pop\n              jump\t// out\n                /* \"#utility.yul\":1149:1371   */\n            tag_14:\n                /* \"#utility.yul\":1242:1246   */\n              0x00\n                /* \"#utility.yul\":1280:1282   */\n              0x20\n                /* \"#utility.yul\":1269:1278   */\n              dup3\n                /* \"#utility.yul\":1265:1283   */\n              add\n                /* \"#utility.yul\":1257:1283   */\n              swap1\n              pop\n                /* \"#utility.yul\":1293:1364   */\n              tag_80\n                /* \"#utility.yul\":1361:1362   */\n              0x00\n                /* \"#utility.yul\":1350:1359   */\n              dup4\n                /* \"#utility.yul\":1346:1363   */\n              add\n                /* \"#utility.yul\":1337:1343   */\n              dup5\n                /* \"#utility.yul\":1293:1364   */\n              tag_48\n              jump\t// in\n            tag_80:\n                /* \"#utility.yul\":1149:1371   */\n              swap3\n              swap2\n              pop\n              pop\n              jump\t// out\n                /* \"#utility.yul\":1377:1494   */\n            tag_49:\n                /* \"#utility.yul\":1486:1487   */\n              0x00\n                /* \"#utility.yul\":1483:1484   */\n              dup1\n                /* \"#utility.yul\":1476:1488   */\n              revert\n                /* \"#utility.yul\":1500:1617   */\n            tag_50:\n                /* \"#utility.yul\":1609:1610   */\n              0x00\n                /* \"#utility.yul\":1606:1607   */\n              dup1\n                /* \"#utility.yul\":1599:1611   */\n              revert\n                /* \"#utility.yul\":1623:1725   */\n            tag_51:\n                /* \"#utility.yul\":1664:1670   */\n              0x00\n                /* \"#utility.yul\":1715:1717   */\n              0x1f\n                /* \"#utility.yul\":1711:1718   */\n              not\n                /* \"#utility.yul\":1706:1708   */\n              0x1f\n                /* \"#utility.yul\":1699:1704   */\n              dup4\n                /* \"#utility.yul\":1695:1709   */\n              add\n                /* \"#utility.yul\":1691:1719   */\n              and\n                /* \"#utility.yul\":1681:1719   */\n              swap1\n              pop\n                /* \"#utility.yul\":1623:1725   */\n              swap2\n              swap1\n              pop\n              jump\t// out\n                /* \"#utility.yul\":1731:1911   */\n            tag_52:\n                /* \"#utility.yul\":1779:1856   */\n              0x4e487b7100000000000000000000000000000000000000000000000000000000\n                /* \"#utility.yul\":1776:1777   */\n              0x00\n                /* \"#utility.yul\":1769:1857   */\n              mstore\n                /* \"#utility.yul\":1876:1880   */\n              0x41\n                /* \"#utility.yul\":1873:1874   */\n              0x04\n                /* \"#utility.yul\":1866:1881   */\n              mstore\n                /* \"#utility.yul\":1900:1904   */\n              0x24\n                /* \"#utility.yul\":1897:1898   */\n              0x00\n                /* \"#utility.yul\":1890:1905   */\n              revert\n                /* \"#utility.yul\":1917:2198   */\n            tag_53:\n                /* \"#utility.yul\":2000:2027   */\n              tag_86\n                /* \"#utility.yul\":2022:2026   */\n              dup3\n                /* \"#utility.yul\":2000:2027   */\n              tag_51\n              jump\t// in\n            tag_86:\n                /* \"#utility.yul\":1992:1998   */\n              dup2\n                /* \"#utility.yul\":1988:2028   */\n              add\n                /* \"#utility.yul\":2130:2136   */\n              dup2\n                /* \"#utility.yul\":2118:2128   */\n              dup2\n                /* \"#utility.yul\":2115:2137   */\n              lt\n                /* \"#utility.yul\":2094:2112   */\n              0xffffffffffffffff\n                /* \"#utility.yul\":2082:2092   */\n              dup3\n                /* \"#utility.yul\":2079:2113   */\n              gt\n                /* \"#utility.yul\":2076:2138   */\n              or\n                /* \"#utility.yul\":2073:2161   */\n              iszero\n              tag_87\n              jumpi\n                /* \"#utility.yul\":2141:2159   */\n              tag_88\n              tag_52\n              jump\t// in\n            tag_88:\n                /* \"#utility.yul\":2073:2161   */\n            tag_87:\n                /* \"#utility.yul\":2181:2191   */\n              dup1\n                /* \"#utility.yul\":2177:2179   */\n              0x40\n                /* \"#utility.yul\":2170:2192   */\n              mstore\n                /* \"#utility.yul\":1960:2198   */\n              pop\n                /* \"#utility.yul\":1917:2198   */\n              pop\n              pop\n              jump\t// out\n                /* \"#utility.yul\":2204:2333   */\n            tag_54:\n                /* \"#utility.yul\":2238:2244   */\n              0x00\n                /* \"#utility.yul\":2265:2285   */\n              tag_90\n              tag_42\n              jump\t// in\n            tag_90:\n                /* \"#utility.yul\":2255:2285   */\n              swap1\n              pop\n                /* \"#utility.yul\":2294:2327   */\n              tag_91\n                /* \"#utility.yul\":2322:2326   */\n              dup3\n                /* \"#utility.yul\":2314:2320   */\n              dup3\n                /* \"#utility.yul\":2294:2327   */\n              tag_53\n              jump\t// in\n            tag_91:\n                /* \"#utility.yul\":2204:2333   */\n              swap2\n              swap1\n              pop\n              jump\t// out\n                /* \"#utility.yul\":2339:2647   */\n            tag_55:\n                /* \"#utility.yul\":2401:2405   */\n              0x00\n                /* \"#utility.yul\":2491:2509   */\n              0xffffffffffffffff\n                /* \"#utility.yul\":2483:2489   */\n              dup3\n                /* \"#utility.yul\":2480:2510   */\n              gt\n                /* \"#utility.yul\":2477:2533   */\n              iszero\n              tag_93\n              jumpi\n                /* \"#utility.yul\":2513:2531   */\n              tag_94\n              tag_52\n              jump\t// in\n            tag_94:\n                /* \"#utility.yul\":2477:2533   */\n            tag_93:\n                /* \"#utility.yul\":2551:2580   */\n              tag_95\n                /* \"#utility.yul\":2573:2579   */\n              dup3\n                /* \"#utility.yul\":2551:2580   */\n              tag_51\n              jump\t// in\n            tag_95:\n                /* \"#utility.yul\":2543:2580   */\n              swap1\n              pop\n                /* \"#utility.yul\":2635:2639   */\n              0x20\n                /* \"#utility.yul\":2629:2633   */\n              dup2\n                /* \"#utility.yul\":2625:2640   */\n              add\n                /* \"#utility.yul\":2617:2640   */\n              swap1\n              pop\n                /* \"#utility.yul\":2339:2647   */\n              swap2\n              swap1\n              pop\n              jump\t// out\n                /* \"#utility.yul\":2653:2799   */\n            tag_56:\n                /* \"#utility.yul\":2750:2756   */\n              dup3\n                /* \"#utility.yul\":2745:2748   */\n              dup2\n                /* \"#utility.yul\":2740:2743   */\n              dup4\n                /* \"#utility.yul\":2727:2757   */\n              calldatacopy\n                /* \"#utility.yul\":2791:2792   */\n              0x00\n                /* \"#utility.yul\":2782:2788   */\n              dup4\n                /* \"#utility.yul\":2777:2780   */\n              dup4\n                /* \"#utility.yul\":2773:2789   */\n              add\n                /* \"#utility.yul\":2766:2793   */\n              mstore\n                /* \"#utility.yul\":2653:2799   */\n              pop\n              pop\n              pop\n              jump\t// out\n                /* \"#utility.yul\":2805:3230   */\n            tag_57:\n                /* \"#utility.yul\":2883:2888   */\n              0x00\n                /* \"#utility.yul\":2908:2974   */\n              tag_98\n                /* \"#utility.yul\":2924:2973   */\n              tag_99\n                /* \"#utility.yul\":2966:2972   */\n              dup5\n                /* \"#utility.yul\":2924:2973   */\n              tag_55\n              jump\t// in\n            tag_99:\n                /* \"#utility.yul\":2908:2974   */\n              tag_54\n              jump\t// in\n            tag_98:\n                /* \"#utility.yul\":2899:2974   */\n              swap1\n              pop\n                /* \"#utility.yul\":2997:3003   */\n              dup3\n                /* \"#utility.yul\":2990:2995   */\n              dup2\n                /* \"#utility.yul\":2983:3004   */\n              mstore\n                /* \"#utility.yul\":3035:3039   */\n              0x20\n                /* \"#utility.yul\":3028:3033   */\n              dup2\n                /* \"#utility.yul\":3024:3040   */\n              add\n                /* \"#utility.yul\":3073:3076   */\n              dup5\n                /* \"#utility.yul\":3064:3070   */\n              dup5\n                /* \"#utility.yul\":3059:3062   */\n              dup5\n                /* \"#utility.yul\":3055:3071   */\n              add\n                /* \"#utility.yul\":3052:3077   */\n              gt\n                /* \"#utility.yul\":3049:3161   */\n              iszero\n              tag_100\n              jumpi\n                /* \"#utility.yul\":3080:3159   */\n              tag_101\n              tag_50\n              jump\t// in\n            tag_101:\n                /* \"#utility.yul\":3049:3161   */\n            tag_100:\n                /* \"#utility.yul\":3170:3224   */\n              tag_102\n                /* \"#utility.yul\":3217:3223   */\n              dup5\n                /* \"#utility.yul\":3212:3215   */\n              dup3\n                /* \"#utility.yul\":3207:3210   */\n              dup6\n                /* \"#utility.yul\":3170:3224   */\n              tag_56\n              jump\t// in\n            tag_102:\n                /* \"#utility.yul\":2889:3230   */\n              pop\n                /* \"#utility.yul\":2805:3230   */\n              swap4\n              swap3\n              pop\n              pop\n              pop\n              jump\t// out\n                /* \"#utility.yul\":3250:3590   */\n            tag_58:\n                /* \"#utility.yul\":3306:3311   */\n              0x00\n                /* \"#utility.yul\":3355:3358   */\n              dup3\n                /* \"#utility.yul\":3348:3352   */\n              0x1f\n                /* \"#utility.yul\":3340:3346   */\n              dup4\n                /* \"#utility.yul\":3336:3353   */\n              add\n                /* \"#utility.yul\":3332:3359   */\n              slt\n                /* \"#utility.yul\":3322:3444   */\n              tag_104\n              jumpi\n                /* \"#utility.yul\":3363:3442   */\n              tag_105\n              tag_49\n              jump\t// in\n            tag_105:\n                /* \"#utility.yul\":3322:3444   */\n            tag_104:\n                /* \"#utility.yul\":3480:3486   */\n              dup2\n                /* \"#utility.yul\":3467:3487   */\n              calldataload\n                /* \"#utility.yul\":3505:3584   */\n              tag_106\n                /* \"#utility.yul\":3580:3583   */\n              dup5\n                /* \"#utility.yul\":3572:3578   */\n              dup3\n                /* \"#utility.yul\":3565:3569   */\n              0x20\n                /* \"#utility.yul\":3557:3563   */\n              dup7\n                /* \"#utility.yul\":3553:3570   */\n              add\n                /* \"#utility.yul\":3505:3584   */\n              tag_57\n              jump\t// in\n            tag_106:\n                /* \"#utility.yul\":3496:3584   */\n              swap2\n              pop\n                /* \"#utility.yul\":3312:3590   */\n              pop\n                /* \"#utility.yul\":3250:3590   */\n              swap3\n              swap2\n              pop\n              pop\n              jump\t// out\n                /* \"#utility.yul\":3596:4250   */\n            tag_26:\n                /* \"#utility.yul\":3674:3680   */\n              0x00\n                /* \"#utility.yul\":3682:3688   */\n              dup1\n                /* \"#utility.yul\":3731:3733   */\n              0x40\n                /* \"#utility.yul\":3719:3728   */\n              dup4\n                /* \"#utility.yul\":3710:3717   */\n              dup6\n                /* \"#utility.yul\":3706:3729   */\n              sub\n                /* \"#utility.yul\":3702:3734   */\n              slt\n                /* \"#utility.yul\":3699:3818   */\n              iszero\n              tag_108\n              jumpi\n                /* \"#utility.yul\":3737:3816   */\n              tag_109\n              tag_43\n              jump\t// in\n            tag_109:\n                /* \"#utility.yul\":3699:3818   */\n            tag_108:\n                /* \"#utility.yul\":3885:3886   */\n              0x00\n                /* \"#utility.yul\":3874:3883   */\n              dup4\n                /* \"#utility.yul\":3870:3887   */\n              add\n                /* \"#utility.yul\":3857:3888   */\n              calldataload\n                /* \"#utility.yul\":3915:3933   */\n              0xffffffffffffffff\n                /* \"#utility.yul\":3907:3913   */\n              dup2\n                /* \"#utility.yul\":3904:3934   */\n              gt\n                /* \"#utility.yul\":3901:4018   */\n              iszero\n              tag_110\n              jumpi\n                /* \"#utility.yul\":3937:4016   */\n              tag_111\n              tag_44\n              jump\t// in\n            tag_111:\n                /* \"#utility.yul\":3901:4018   */\n            tag_110:\n                /* \"#utility.yul\":4042:4105   */\n              tag_112\n                /* \"#utility.yul\":4097:4104   */\n              dup6\n                /* \"#utility.yul\":4088:4094   */\n              dup3\n                /* \"#utility.yul\":4077:4086   */\n              dup7\n                /* \"#utility.yul\":4073:4095   */\n              add\n                /* \"#utility.yul\":4042:4105   */\n              tag_58\n              jump\t// in\n            tag_112:\n                /* \"#utility.yul\":4032:4105   */\n              swap3\n              pop\n                /* \"#utility.yul\":3828:4115   */\n              pop\n                /* \"#utility.yul\":4154:4156   */\n              0x20\n                /* \"#utility.yul\":4180:4233   */\n              tag_113\n                /* \"#utility.yul\":4225:4232   */\n              dup6\n                /* \"#utility.yul\":4216:4222   */\n              dup3\n                /* \"#utility.yul\":4205:4214   */\n              dup7\n                /* \"#utility.yul\":4201:4223   */\n              add\n                /* \"#utility.yul\":4180:4233   */\n              tag_47\n              jump\t// in\n            tag_113:\n                /* \"#utility.yul\":4170:4233   */\n              swap2\n              pop\n                /* \"#utility.yul\":4125:4243   */\n              pop\n                /* \"#utility.yul\":3596:4250   */\n              swap3\n              pop\n              swap3\n              swap1\n              pop\n              jump\t// out\n                /* \"#utility.yul\":4256:4765   */\n            tag_30:\n                /* \"#utility.yul\":4325:4331   */\n              0x00\n                /* \"#utility.yul\":4374:4376   */\n              0x20\n                /* \"#utility.yul\":4362:4371   */\n              dup3\n                /* \"#utility.yul\":4353:4360   */\n              dup5\n                /* \"#utility.yul\":4349:4372   */\n              sub\n                /* \"#utility.yul\":4345:4377   */\n              slt\n                /* \"#utility.yul\":4342:4461   */\n              iszero\n              tag_115\n              jumpi\n                /* \"#utility.yul\":4380:4459   */\n              tag_116\n              tag_43\n              jump\t// in\n            tag_116:\n                /* \"#utility.yul\":4342:4461   */\n            tag_115:\n                /* \"#utility.yul\":4528:4529   */\n              0x00\n                /* \"#utility.yul\":4517:4526   */\n              dup3\n                /* \"#utility.yul\":4513:4530   */\n              add\n                /* \"#utility.yul\":4500:4531   */\n              calldataload\n                /* \"#utility.yul\":4558:4576   */\n              0xffffffffffffffff\n                /* \"#utility.yul\":4550:4556   */\n              dup2\n                /* \"#utility.yul\":4547:4577   */\n              gt\n                /* \"#utility.yul\":4544:4661   */\n              iszero\n              tag_117\n              jumpi\n                /* \"#utility.yul\":4580:4659   */\n              tag_118\n              tag_44\n              jump\t// in\n            tag_118:\n                /* \"#utility.yul\":4544:4661   */\n            tag_117:\n                /* \"#utility.yul\":4685:4748   */\n              tag_119\n                /* \"#utility.yul\":4740:4747   */\n              dup5\n                /* \"#utility.yul\":4731:4737   */\n              dup3\n                /* \"#utility.yul\":4720:4729   */\n              dup6\n                /* \"#utility.yul\":4716:4738   */\n              add\n                /* \"#utility.yul\":4685:4748   */\n              tag_58\n              jump\t// in\n            tag_119:\n                /* \"#utility.yul\":4675:4748   */\n              swap2\n              pop\n                /* \"#utility.yul\":4471:4758   */\n              pop\n                /* \"#utility.yul\":4256:4765   */\n              swap3\n              swap2\n              pop\n              pop\n              jump\t// out\n                /* \"#utility.yul\":4771:4870   */\n            tag_59:\n                /* \"#utility.yul\":4823:4829   */\n              0x00\n                /* \"#utility.yul\":4857:4862   */\n              dup2\n                /* \"#utility.yul\":4851:4863   */\n              mload\n                /* \"#utility.yul\":4841:4863   */\n              swap1\n              pop\n                /* \"#utility.yul\":4771:4870   */\n              swap2\n              swap1\n              pop\n              jump\t// out\n                /* \"#utility.yul\":4876:5024   */\n            tag_60:\n                /* \"#utility.yul\":4978:4989   */\n              0x00\n                /* \"#utility.yul\":5015:5018   */\n              dup2\n                /* \"#utility.yul\":5000:5018   */\n              swap1\n              pop\n                /* \"#utility.yul\":4876:5024   */\n              swap3\n              swap2\n              pop\n              pop\n              jump\t// out\n                /* \"#utility.yul\":5030:5276   */\n            tag_61:\n                /* \"#utility.yul\":5111:5112   */\n              0x00\n                /* \"#utility.yul\":5121:5234   */\n            tag_123:\n                /* \"#utility.yul\":5135:5141   */\n              dup4\n                /* \"#utility.yul\":5132:5133   */\n              dup2\n                /* \"#utility.yul\":5129:5142   */\n              lt\n                /* \"#utility.yul\":5121:5234   */\n              iszero\n              tag_125\n              jumpi\n                /* \"#utility.yul\":5220:5221   */\n              dup1\n                /* \"#utility.yul\":5215:5218   */\n              dup3\n                /* \"#utility.yul\":5211:5222   */\n              add\n                /* \"#utility.yul\":5205:5223   */\n              mload\n                /* \"#utility.yul\":5201:5202   */\n              dup2\n                /* \"#utility.yul\":5196:5199   */\n              dup5\n                /* \"#utility.yul\":5192:5203   */\n              add\n                /* \"#utility.yul\":5185:5224   */\n              mstore\n                /* \"#utility.yul\":5157:5159   */\n              0x20\n                /* \"#utility.yul\":5154:5155   */\n              dup2\n                /* \"#utility.yul\":5150:5160   */\n              add\n                /* \"#utility.yul\":5145:5160   */\n              swap1\n              pop\n                /* \"#utility.yul\":5121:5234   */\n              jump(tag_123)\n            tag_125:\n                /* \"#utility.yul\":5268:5269   */\n              0x00\n                /* \"#utility.yul\":5259:5265   */\n              dup5\n                /* \"#utility.yul\":5254:5257   */\n              dup5\n                /* \"#utility.yul\":5250:5266   */\n              add\n                /* \"#utility.yul\":5243:5270   */\n              mstore\n                /* \"#utility.yul\":5092:5276   */\n              pop\n                /* \"#utility.yul\":5030:5276   */\n              pop\n              pop\n              pop\n              jump\t// out\n                /* \"#utility.yul\":5282:5672   */\n            tag_62:\n                /* \"#utility.yul\":5388:5391   */\n              0x00\n                /* \"#utility.yul\":5416:5455   */\n              tag_127\n                /* \"#utility.yul\":5449:5454   */\n              dup3\n                /* \"#utility.yul\":5416:5455   */\n              tag_59\n              jump\t// in\n            tag_127:\n                /* \"#utility.yul\":5471:5560   */\n              tag_128\n                /* \"#utility.yul\":5553:5559   */\n              dup2\n                /* \"#utility.yul\":5548:5551   */\n              dup6\n                /* \"#utility.yul\":5471:5560   */\n              tag_60\n              jump\t// in\n            tag_128:\n                /* \"#utility.yul\":5464:5560   */\n              swap4\n              pop\n                /* \"#utility.yul\":5569:5634   */\n              tag_129\n                /* \"#utility.yul\":5627:5633   */\n              dup2\n                /* \"#utility.yul\":5622:5625   */\n              dup6\n                /* \"#utility.yul\":5615:5619   */\n              0x20\n                /* \"#utility.yul\":5608:5613   */\n              dup7\n                /* \"#utility.yul\":5604:5620   */\n              add\n                /* \"#utility.yul\":5569:5634   */\n              tag_61\n              jump\t// in\n            tag_129:\n                /* \"#utility.yul\":5659:5665   */\n              dup1\n                /* \"#utility.yul\":5654:5657   */\n              dup5\n                /* \"#utility.yul\":5650:5666   */\n              add\n                /* \"#utility.yul\":5643:5666   */\n              swap2\n              pop\n                /* \"#utility.yul\":5392:5672   */\n              pop\n                /* \"#utility.yul\":5282:5672   */\n              swap3\n              swap2\n              pop\n              pop\n              jump\t// out\n                /* \"#utility.yul\":5678:5953   */\n            tag_41:\n                /* \"#utility.yul\":5810:5813   */\n              0x00\n                /* \"#utility.yul\":5832:5927   */\n              tag_131\n                /* \"#utility.yul\":5923:5926   */\n              dup3\n                /* \"#utility.yul\":5914:5920   */\n              dup5\n                /* \"#utility.yul\":5832:5927   */\n              tag_62\n              jump\t// in\n            tag_131:\n                /* \"#utility.yul\":5825:5927   */\n              swap2\n              pop\n                /* \"#utility.yul\":5944:5947   */\n              dup2\n                /* \"#utility.yul\":5937:5947   */\n              swap1\n              pop\n                /* \"#utility.yul\":5678:5953   */\n              swap3\n              swap2\n              pop\n              pop\n              jump\t// out\n\n            auxdata: 0xa264697066735822122037cc669557021a03cc3815c0bc345157e1d8bbe313a474f5629a6d96493b28f364736f6c63430008110033\n        }\n    }\n\n    auxdata: 0xa26469706673582212205a6869480ff63fa6688681ebbb0568f35b8fe952f25ab3bc90f2088f9a7e527664736f6c63430008110033\n}\n",
				"bytecode": {
					"linkReferences": {},
					"object": "608060405234801561001057600080fd5b5061093b806100206000396000f3fe608060405234801561001057600080fd5b50600436106100415760003560e01c80631563700f146100465780631dda65411461006257806364591bf11461006c575b600080fd5b610060600480360381019061005b9190610262565b61009c565b005b61006a61014e565b005b610086600480360381019061008191906102a2565b6101db565b604051610093919061034e565b60405180910390f35b60008083815481106100b1576100b0610369565b5b9060005260206000200160009054906101000a900473ffffffffffffffffffffffffffffffffffffffff1690508073ffffffffffffffffffffffffffffffffffffffff16636057361d836040518263ffffffff1660e01b815260040161011791906103a7565b600060405180830381600087803b15801561013157600080fd5b505af1158015610145573d6000803e3d6000fd5b50505050505050565b600060405161015c9061021a565b604051809103906000f080158015610178573d6000803e3d6000fd5b509080600181540180825580915050600190039060005260206000200160009091909190916101000a81548173ffffffffffffffffffffffffffffffffffffffff021916908373ffffffffffffffffffffffffffffffffffffffff160217905550565b600081815481106101eb57600080fd5b906000526020600020016000915054906101000a900473ffffffffffffffffffffffffffffffffffffffff1681565b610543806103c383390190565b600080fd5b6000819050919050565b61023f8161022c565b811461024a57600080fd5b50565b60008135905061025c81610236565b92915050565b6000806040838503121561027957610278610227565b5b60006102878582860161024d565b92505060206102988582860161024d565b9150509250929050565b6000602082840312156102b8576102b7610227565b5b60006102c68482850161024d565b91505092915050565b600073ffffffffffffffffffffffffffffffffffffffff82169050919050565b6000819050919050565b600061031461030f61030a846102cf565b6102ef565b6102cf565b9050919050565b6000610326826102f9565b9050919050565b60006103388261031b565b9050919050565b6103488161032d565b82525050565b6000602082019050610363600083018461033f565b92915050565b7f4e487b7100000000000000000000000000000000000000000000000000000000600052603260045260246000fd5b6103a18161022c565b82525050565b60006020820190506103bc6000830184610398565b9291505056fe608060405234801561001057600080fd5b50610523806100206000396000f3fe608060405234801561001057600080fd5b50600436106100625760003560e01c806329cd1d96146100675780632e64cec1146100975780634f2be91f146100b55780636057361d146100d3578063795fff1d146100ef5780638bab8dd51461010b575b600080fd5b610081600480360381019061007c9190610223565b61013b565b60405161008e919061025f565b60405180910390f35b61009f61015f565b6040516100ac919061025f565b60405180910390f35b6100bd610168565b6040516100ca919061025f565b60405180910390f35b6100ed60048036038101906100e89190610223565b610171565b005b610109600480360381019061010491906103c0565b610184565b005b6101256004803603810190610120919061041c565b6101ab565b604051610132919061025f565b60405180910390f35b6002818154811061014b57600080fd5b906000526020600020016000915090505481565b60008054905090565b60006002905090565b8060008190555061018061015f565b5050565b8060018360405161019591906104d6565b9081526020016040518091039020819055505050565b6001818051602081018201805184825260208301602085012081835280955050505050506000915090505481565b6000604051905090565b600080fd5b600080fd5b6000819050919050565b610200816101ed565b811461020b57600080fd5b50565b60008135905061021d816101f7565b92915050565b600060208284031215610239576102386101e3565b5b60006102478482850161020e565b91505092915050565b610259816101ed565b82525050565b60006020820190506102746000830184610250565b92915050565b600080fd5b600080fd5b6000601f19601f8301169050919050565b7f4e487b7100000000000000000000000000000000000000000000000000000000600052604160045260246000fd5b6102cd82610284565b810181811067ffffffffffffffff821117156102ec576102eb610295565b5b80604052505050565b60006102ff6101d9565b905061030b82826102c4565b919050565b600067ffffffffffffffff82111561032b5761032a610295565b5b61033482610284565b9050602081019050919050565b82818337600083830152505050565b600061036361035e84610310565b6102f5565b90508281526020810184848401111561037f5761037e61027f565b5b61038a848285610341565b509392505050565b600082601f8301126103a7576103a661027a565b5b81356103b7848260208601610350565b91505092915050565b600080604083850312156103d7576103d66101e3565b5b600083013567ffffffffffffffff8111156103f5576103f46101e8565b5b61040185828601610392565b92505060206104128582860161020e565b9150509250929050565b600060208284031215610432576104316101e3565b5b600082013567ffffffffffffffff8111156104505761044f6101e8565b5b61045c84828501610392565b91505092915050565b600081519050919050565b600081905092915050565b60005b8381101561049957808201518184015260208101905061047e565b60008484015250505050565b60006104b082610465565b6104ba8185610470565b93506104ca81856020860161047b565b80840191505092915050565b60006104e282846104a5565b91508190509291505056fea264697066735822122037cc669557021a03cc3815c0bc345157e1d8bbe313a474f5629a6d96493b28f364736f6c63430008110033a26469706673582212205a6869480ff63fa6688681ebbb0568f35b8fe952f25ab3bc90f2088f9a7e527664736f6c63430008110033",
					"opcodes": "PUSH1 0x80 PUSH1 0x40 MSTORE CALLVALUE DUP1 ISZERO PUSH2 0x10 JUMPI PUSH1 0x0 DUP1 REVERT JUMPDEST POP PUSH2 0x93B DUP1 PUSH2 0x20 PUSH1 0x0 CODECOPY PUSH1 0x0 RETURN INVALID PUSH1 0x80 PUSH1 0x40 MSTORE CALLVALUE DUP1 ISZERO PUSH2 0x10 JUMPI PUSH1 0x0 DUP1 REVERT JUMPDEST POP PUSH1 0x4 CALLDATASIZE LT PUSH2 0x41 JUMPI PUSH1 0x0 CALLDATALOAD PUSH1 0xE0 SHR DUP1 PUSH4 0x1563700F EQ PUSH2 0x46 JUMPI DUP1 PUSH4 0x1DDA6541 EQ PUSH2 0x62 JUMPI DUP1 PUSH4 0x64591BF1 EQ PUSH2 0x6C JUMPI JUMPDEST PUSH1 0x0 DUP1 REVERT JUMPDEST PUSH2 0x60 PUSH1 0x4 DUP1 CALLDATASIZE SUB DUP2 ADD SWAP1 PUSH2 0x5B SWAP2 SWAP1 PUSH2 0x262 JUMP JUMPDEST PUSH2 0x9C JUMP JUMPDEST STOP JUMPDEST PUSH2 0x6A PUSH2 0x14E JUMP JUMPDEST STOP JUMPDEST PUSH2 0x86 PUSH1 0x4 DUP1 CALLDATASIZE SUB DUP2 ADD SWAP1 PUSH2 0x81 SWAP2 SWAP1 PUSH2 0x2A2 JUMP JUMPDEST PUSH2 0x1DB JUMP JUMPDEST PUSH1 0x40 MLOAD PUSH2 0x93 SWAP2 SWAP1 PUSH2 0x34E JUMP JUMPDEST PUSH1 0x40 MLOAD DUP1 SWAP2 SUB SWAP1 RETURN JUMPDEST PUSH1 0x0 DUP1 DUP4 DUP2 SLOAD DUP2 LT PUSH2 0xB1 JUMPI PUSH2 0xB0 PUSH2 0x369 JUMP JUMPDEST JUMPDEST SWAP1 PUSH1 0x0 MSTORE PUSH1 0x20 PUSH1 0x0 KECCAK256 ADD PUSH1 0x0 SWAP1 SLOAD SWAP1 PUSH2 0x100 EXP SWAP1 DIV PUSH20 0xFFFFFFFFFFFFFFFFFFFFFFFFFFFFFFFFFFFFFFFF AND SWAP1 POP DUP1 PUSH20 0xFFFFFFFFFFFFFFFFFFFFFFFFFFFFFFFFFFFFFFFF AND PUSH4 0x6057361D DUP4 PUSH1 0x40 MLOAD DUP3 PUSH4 0xFFFFFFFF AND PUSH1 0xE0 SHL DUP2 MSTORE PUSH1 0x4 ADD PUSH2 0x117 SWAP2 SWAP1 PUSH2 0x3A7 JUMP JUMPDEST PUSH1 0x0 PUSH1 0x40 MLOAD DUP1 DUP4 SUB DUP2 PUSH1 0x0 DUP8 DUP1 EXTCODESIZE ISZERO DUP1 ISZERO PUSH2 0x131 JUMPI PUSH1 0x0 DUP1 REVERT JUMPDEST POP GAS CALL ISZERO DUP1 ISZERO PUSH2 0x145 JUMPI RETURNDATASIZE PUSH1 0x0 DUP1 RETURNDATACOPY RETURNDATASIZE PUSH1 0x0 REVERT JUMPDEST POP POP POP POP POP POP POP JUMP JUMPDEST PUSH1 0x0 PUSH1 0x40 MLOAD PUSH2 0x15C SWAP1 PUSH2 0x21A JUMP JUMPDEST PUSH1 0x40 MLOAD DUP1 SWAP2 SUB SWAP1 PUSH1 0x0 CREATE DUP1 ISZERO DUP1 ISZERO PUSH2 0x178 JUMPI RETURNDATASIZE PUSH1 0x0 DUP1 RETURNDATACOPY RETURNDATASIZE PUSH1 0x0 REVERT JUMPDEST POP SWAP1 DUP1 PUSH1 0x1 DUP2 SLOAD ADD DUP1 DUP3 SSTORE DUP1 SWAP2 POP POP PUSH1 0x1 SWAP1 SUB SWAP1 PUSH1 0x0 MSTORE PUSH1 0x20 PUSH1 0x0 KECCAK256 ADD PUSH1 0x0 SWAP1 SWAP2 SWAP1 SWAP2 SWAP1 SWAP2 PUSH2 0x100 EXP DUP2 SLOAD DUP2 PUSH20 0xFFFFFFFFFFFFFFFFFFFFFFFFFFFFFFFFFFFFFFFF MUL NOT AND SWAP1 DUP4 PUSH20 0xFFFFFFFFFFFFFFFFFFFFFFFFFFFFFFFFFFFFFFFF AND MUL OR SWAP1 SSTORE POP JUMP JUMPDEST PUSH1 0x0 DUP2 DUP2 SLOAD DUP2 LT PUSH2 0x1EB JUMPI PUSH1 0x0 DUP1 REVERT JUMPDEST SWAP1 PUSH1 0x0 MSTORE PUSH1 0x20 PUSH1 0x0 KECCAK256 ADD PUSH1 0x0 SWAP2 POP SLOAD SWAP1 PUSH2 0x100 EXP SWAP1 DIV PUSH20 0xFFFFFFFFFFFFFFFFFFFFFFFFFFFFFFFFFFFFFFFF AND DUP2 JUMP JUMPDEST PUSH2 0x543 DUP1 PUSH2 0x3C3 DUP4 CODECOPY ADD SWAP1 JUMP JUMPDEST PUSH1 0x0 DUP1 REVERT JUMPDEST PUSH1 0x0 DUP2 SWAP1 POP SWAP2 SWAP1 POP JUMP JUMPDEST PUSH2 0x23F DUP2 PUSH2 0x22C JUMP JUMPDEST DUP2 EQ PUSH2 0x24A JUMPI PUSH1 0x0 DUP1 REVERT JUMPDEST POP JUMP JUMPDEST PUSH1 0x0 DUP2 CALLDATALOAD SWAP1 POP PUSH2 0x25C DUP2 PUSH2 0x236 JUMP JUMPDEST SWAP3 SWAP2 POP POP JUMP JUMPDEST PUSH1 0x0 DUP1 PUSH1 0x40 DUP4 DUP6 SUB SLT ISZERO PUSH2 0x279 JUMPI PUSH2 0x278 PUSH2 0x227 JUMP JUMPDEST JUMPDEST PUSH1 0x0 PUSH2 0x287 DUP6 DUP3 DUP7 ADD PUSH2 0x24D JUMP JUMPDEST SWAP3 POP POP PUSH1 0x20 PUSH2 0x298 DUP6 DUP3 DUP7 ADD PUSH2 0x24D JUMP JUMPDEST SWAP2 POP POP SWAP3 POP SWAP3 SWAP1 POP JUMP JUMPDEST PUSH1 0x0 PUSH1 0x20 DUP3 DUP5 SUB SLT ISZERO PUSH2 0x2B8 JUMPI PUSH2 0x2B7 PUSH2 0x227 JUMP JUMPDEST JUMPDEST PUSH1 0x0 PUSH2 0x2C6 DUP5 DUP3 DUP6 ADD PUSH2 0x24D JUMP JUMPDEST SWAP2 POP POP SWAP3 SWAP2 POP POP JUMP JUMPDEST PUSH1 0x0 PUSH20 0xFFFFFFFFFFFFFFFFFFFFFFFFFFFFFFFFFFFFFFFF DUP3 AND SWAP1 POP SWAP2 SWAP1 POP JUMP JUMPDEST PUSH1 0x0 DUP2 SWAP1 POP SWAP2 SWAP1 POP JUMP JUMPDEST PUSH1 0x0 PUSH2 0x314 PUSH2 0x30F PUSH2 0x30A DUP5 PUSH2 0x2CF JUMP JUMPDEST PUSH2 0x2EF JUMP JUMPDEST PUSH2 0x2CF JUMP JUMPDEST SWAP1 POP SWAP2 SWAP1 POP JUMP JUMPDEST PUSH1 0x0 PUSH2 0x326 DUP3 PUSH2 0x2F9 JUMP JUMPDEST SWAP1 POP SWAP2 SWAP1 POP JUMP JUMPDEST PUSH1 0x0 PUSH2 0x338 DUP3 PUSH2 0x31B JUMP JUMPDEST SWAP1 POP SWAP2 SWAP1 POP JUMP JUMPDEST PUSH2 0x348 DUP2 PUSH2 0x32D JUMP JUMPDEST DUP3 MSTORE POP POP JUMP JUMPDEST PUSH1 0x0 PUSH1 0x20 DUP3 ADD SWAP1 POP PUSH2 0x363 PUSH1 0x0 DUP4 ADD DUP5 PUSH2 0x33F JUMP JUMPDEST SWAP3 SWAP2 POP POP JUMP JUMPDEST PUSH32 0x4E487B7100000000000000000000000000000000000000000000000000000000 PUSH1 0x0 MSTORE PUSH1 0x32 PUSH1 0x4 MSTORE PUSH1 0x24 PUSH1 0x0 REVERT JUMPDEST PUSH2 0x3A1 DUP2 PUSH2 0x22C JUMP JUMPDEST DUP3 MSTORE POP POP JUMP JUMPDEST PUSH1 0x0 PUSH1 0x20 DUP3 ADD SWAP1 POP PUSH2 0x3BC PUSH1 0x0 DUP4 ADD DUP5 PUSH2 0x398 JUMP JUMPDEST SWAP3 SWAP2 POP POP JUMP INVALID PUSH1 0x80 PUSH1 0x40 MSTORE CALLVALUE DUP1 ISZERO PUSH2 0x10 JUMPI PUSH1 0x0 DUP1 REVERT JUMPDEST POP PUSH2 0x523 DUP1 PUSH2 0x20 PUSH1 0x0 CODECOPY PUSH1 0x0 RETURN INVALID PUSH1 0x80 PUSH1 0x40 MSTORE CALLVALUE DUP1 ISZERO PUSH2 0x10 JUMPI PUSH1 0x0 DUP1 REVERT JUMPDEST POP PUSH1 0x4 CALLDATASIZE LT PUSH2 0x62 JUMPI PUSH1 0x0 CALLDATALOAD PUSH1 0xE0 SHR DUP1 PUSH4 0x29CD1D96 EQ PUSH2 0x67 JUMPI DUP1 PUSH4 0x2E64CEC1 EQ PUSH2 0x97 JUMPI DUP1 PUSH4 0x4F2BE91F EQ PUSH2 0xB5 JUMPI DUP1 PUSH4 0x6057361D EQ PUSH2 0xD3 JUMPI DUP1 PUSH4 0x795FFF1D EQ PUSH2 0xEF JUMPI DUP1 PUSH4 0x8BAB8DD5 EQ PUSH2 0x10B JUMPI JUMPDEST PUSH1 0x0 DUP1 REVERT JUMPDEST PUSH2 0x81 PUSH1 0x4 DUP1 CALLDATASIZE SUB DUP2 ADD SWAP1 PUSH2 0x7C SWAP2 SWAP1 PUSH2 0x223 JUMP JUMPDEST PUSH2 0x13B JUMP JUMPDEST PUSH1 0x40 MLOAD PUSH2 0x8E SWAP2 SWAP1 PUSH2 0x25F JUMP JUMPDEST PUSH1 0x40 MLOAD DUP1 SWAP2 SUB SWAP1 RETURN JUMPDEST PUSH2 0x9F PUSH2 0x15F JUMP JUMPDEST PUSH1 0x40 MLOAD PUSH2 0xAC SWAP2 SWAP1 PUSH2 0x25F JUMP JUMPDEST PUSH1 0x40 MLOAD DUP1 SWAP2 SUB SWAP1 RETURN JUMPDEST PUSH2 0xBD PUSH2 0x168 JUMP JUMPDEST PUSH1 0x40 MLOAD PUSH2 0xCA SWAP2 SWAP1 PUSH2 0x25F JUMP JUMPDEST PUSH1 0x40 MLOAD DUP1 SWAP2 SUB SWAP1 RETURN JUMPDEST PUSH2 0xED PUSH1 0x4 DUP1 CALLDATASIZE SUB DUP2 ADD SWAP1 PUSH2 0xE8 SWAP2 SWAP1 PUSH2 0x223 JUMP JUMPDEST PUSH2 0x171 JUMP JUMPDEST STOP JUMPDEST PUSH2 0x109 PUSH1 0x4 DUP1 CALLDATASIZE SUB DUP2 ADD SWAP1 PUSH2 0x104 SWAP2 SWAP1 PUSH2 0x3C0 JUMP JUMPDEST PUSH2 0x184 JUMP JUMPDEST STOP JUMPDEST PUSH2 0x125 PUSH1 0x4 DUP1 CALLDATASIZE SUB DUP2 ADD SWAP1 PUSH2 0x120 SWAP2 SWAP1 PUSH2 0x41C JUMP JUMPDEST PUSH2 0x1AB JUMP JUMPDEST PUSH1 0x40 MLOAD PUSH2 0x132 SWAP2 SWAP1 PUSH2 0x25F JUMP JUMPDEST PUSH1 0x40 MLOAD DUP1 SWAP2 SUB SWAP1 RETURN JUMPDEST PUSH1 0x2 DUP2 DUP2 SLOAD DUP2 LT PUSH2 0x14B JUMPI PUSH1 0x0 DUP1 REVERT JUMPDEST SWAP1 PUSH1 0x0 MSTORE PUSH1 0x20 PUSH1 0x0 KECCAK256 ADD PUSH1 0x0 SWAP2 POP SWAP1 POP SLOAD DUP2 JUMP JUMPDEST PUSH1 0x0 DUP1 SLOAD SWAP1 POP SWAP1 JUMP JUMPDEST PUSH1 0x0 PUSH1 0x2 SWAP1 POP SWAP1 JUMP JUMPDEST DUP1 PUSH1 0x0 DUP2 SWAP1 SSTORE POP PUSH2 0x180 PUSH2 0x15F JUMP JUMPDEST POP POP JUMP JUMPDEST DUP1 PUSH1 0x1 DUP4 PUSH1 0x40 MLOAD PUSH2 0x195 SWAP2 SWAP1 PUSH2 0x4D6 JUMP JUMPDEST SWAP1 DUP2 MSTORE PUSH1 0x20 ADD PUSH1 0x40 MLOAD DUP1 SWAP2 SUB SWAP1 KECCAK256 DUP2 SWAP1 SSTORE POP POP POP JUMP JUMPDEST PUSH1 0x1 DUP2 DUP1 MLOAD PUSH1 0x20 DUP2 ADD DUP3 ADD DUP1 MLOAD DUP5 DUP3 MSTORE PUSH1 0x20 DUP4 ADD PUSH1 0x20 DUP6 ADD KECCAK256 DUP2 DUP4 MSTORE DUP1 SWAP6 POP POP POP POP POP POP PUSH1 0x0 SWAP2 POP SWAP1 POP SLOAD DUP2 JUMP JUMPDEST PUSH1 0x0 PUSH1 0x40 MLOAD SWAP1 POP SWAP1 JUMP JUMPDEST PUSH1 0x0 DUP1 REVERT JUMPDEST PUSH1 0x0 DUP1 REVERT JUMPDEST PUSH1 0x0 DUP2 SWAP1 POP SWAP2 SWAP1 POP JUMP JUMPDEST PUSH2 0x200 DUP2 PUSH2 0x1ED JUMP JUMPDEST DUP2 EQ PUSH2 0x20B JUMPI PUSH1 0x0 DUP1 REVERT JUMPDEST POP JUMP JUMPDEST PUSH1 0x0 DUP2 CALLDATALOAD SWAP1 POP PUSH2 0x21D DUP2 PUSH2 0x1F7 JUMP JUMPDEST SWAP3 SWAP2 POP POP JUMP JUMPDEST PUSH1 0x0 PUSH1 0x20 DUP3 DUP5 SUB SLT ISZERO PUSH2 0x239 JUMPI PUSH2 0x238 PUSH2 0x1E3 JUMP JUMPDEST JUMPDEST PUSH1 0x0 PUSH2 0x247 DUP5 DUP3 DUP6 ADD PUSH2 0x20E JUMP JUMPDEST SWAP2 POP POP SWAP3 SWAP2 POP POP JUMP JUMPDEST PUSH2 0x259 DUP2 PUSH2 0x1ED JUMP JUMPDEST DUP3 MSTORE POP POP JUMP JUMPDEST PUSH1 0x0 PUSH1 0x20 DUP3 ADD SWAP1 POP PUSH2 0x274 PUSH1 0x0 DUP4 ADD DUP5 PUSH2 0x250 JUMP JUMPDEST SWAP3 SWAP2 POP POP JUMP JUMPDEST PUSH1 0x0 DUP1 REVERT JUMPDEST PUSH1 0x0 DUP1 REVERT JUMPDEST PUSH1 0x0 PUSH1 0x1F NOT PUSH1 0x1F DUP4 ADD AND SWAP1 POP SWAP2 SWAP1 POP JUMP JUMPDEST PUSH32 0x4E487B7100000000000000000000000000000000000000000000000000000000 PUSH1 0x0 MSTORE PUSH1 0x41 PUSH1 0x4 MSTORE PUSH1 0x24 PUSH1 0x0 REVERT JUMPDEST PUSH2 0x2CD DUP3 PUSH2 0x284 JUMP JUMPDEST DUP2 ADD DUP2 DUP2 LT PUSH8 0xFFFFFFFFFFFFFFFF DUP3 GT OR ISZERO PUSH2 0x2EC JUMPI PUSH2 0x2EB PUSH2 0x295 JUMP JUMPDEST JUMPDEST DUP1 PUSH1 0x40 MSTORE POP POP POP JUMP JUMPDEST PUSH1 0x0 PUSH2 0x2FF PUSH2 0x1D9 JUMP JUMPDEST SWAP1 POP PUSH2 0x30B DUP3 DUP3 PUSH2 0x2C4 JUMP JUMPDEST SWAP2 SWAP1 POP JUMP JUMPDEST PUSH1 0x0 PUSH8 0xFFFFFFFFFFFFFFFF DUP3 GT ISZERO PUSH2 0x32B JUMPI PUSH2 0x32A PUSH2 0x295 JUMP JUMPDEST JUMPDEST PUSH2 0x334 DUP3 PUSH2 0x284 JUMP JUMPDEST SWAP1 POP PUSH1 0x20 DUP2 ADD SWAP1 POP SWAP2 SWAP1 POP JUMP JUMPDEST DUP3 DUP2 DUP4 CALLDATACOPY PUSH1 0x0 DUP4 DUP4 ADD MSTORE POP POP POP JUMP JUMPDEST PUSH1 0x0 PUSH2 0x363 PUSH2 0x35E DUP5 PUSH2 0x310 JUMP JUMPDEST PUSH2 0x2F5 JUMP JUMPDEST SWAP1 POP DUP3 DUP2 MSTORE PUSH1 0x20 DUP2 ADD DUP5 DUP5 DUP5 ADD GT ISZERO PUSH2 0x37F JUMPI PUSH2 0x37E PUSH2 0x27F JUMP JUMPDEST JUMPDEST PUSH2 0x38A DUP5 DUP3 DUP6 PUSH2 0x341 JUMP JUMPDEST POP SWAP4 SWAP3 POP POP POP JUMP JUMPDEST PUSH1 0x0 DUP3 PUSH1 0x1F DUP4 ADD SLT PUSH2 0x3A7 JUMPI PUSH2 0x3A6 PUSH2 0x27A JUMP JUMPDEST JUMPDEST DUP2 CALLDATALOAD PUSH2 0x3B7 DUP5 DUP3 PUSH1 0x20 DUP7 ADD PUSH2 0x350 JUMP JUMPDEST SWAP2 POP POP SWAP3 SWAP2 POP POP JUMP JUMPDEST PUSH1 0x0 DUP1 PUSH1 0x40 DUP4 DUP6 SUB SLT ISZERO PUSH2 0x3D7 JUMPI PUSH2 0x3D6 PUSH2 0x1E3 JUMP JUMPDEST JUMPDEST PUSH1 0x0 DUP4 ADD CALLDATALOAD PUSH8 0xFFFFFFFFFFFFFFFF DUP2 GT ISZERO PUSH2 0x3F5 JUMPI PUSH2 0x3F4 PUSH2 0x1E8 JUMP JUMPDEST JUMPDEST PUSH2 0x401 DUP6 DUP3 DUP7 ADD PUSH2 0x392 JUMP JUMPDEST SWAP3 POP POP PUSH1 0x20 PUSH2 0x412 DUP6 DUP3 DUP7 ADD PUSH2 0x20E JUMP JUMPDEST SWAP2 POP POP SWAP3 POP SWAP3 SWAP1 POP JUMP JUMPDEST PUSH1 0x0 PUSH1 0x20 DUP3 DUP5 SUB SLT ISZERO PUSH2 0x432 JUMPI PUSH2 0x431 PUSH2 0x1E3 JUMP JUMPDEST JUMPDEST PUSH1 0x0 DUP3 ADD CALLDATALOAD PUSH8 0xFFFFFFFFFFFFFFFF DUP2 GT ISZERO PUSH2 0x450 JUMPI PUSH2 0x44F PUSH2 0x1E8 JUMP JUMPDEST JUMPDEST PUSH2 0x45C DUP5 DUP3 DUP6 ADD PUSH2 0x392 JUMP JUMPDEST SWAP2 POP POP SWAP3 SWAP2 POP POP JUMP JUMPDEST PUSH1 0x0 DUP2 MLOAD SWAP1 POP SWAP2 SWAP1 POP JUMP JUMPDEST PUSH1 0x0 DUP2 SWAP1 POP SWAP3 SWAP2 POP POP JUMP JUMPDEST PUSH1 0x0 JUMPDEST DUP4 DUP2 LT ISZERO PUSH2 0x499 JUMPI DUP1 DUP3 ADD MLOAD DUP2 DUP5 ADD MSTORE PUSH1 0x20 DUP2 ADD SWAP1 POP PUSH2 0x47E JUMP JUMPDEST PUSH1 0x0 DUP5 DUP5 ADD MSTORE POP POP POP POP JUMP JUMPDEST PUSH1 0x0 PUSH2 0x4B0 DUP3 PUSH2 0x465 JUMP JUMPDEST PUSH2 0x4BA DUP2 DUP6 PUSH2 0x470 JUMP JUMPDEST SWAP4 POP PUSH2 0x4CA DUP2 DUP6 PUSH1 0x20 DUP7 ADD PUSH2 0x47B JUMP JUMPDEST DUP1 DUP5 ADD SWAP2 POP POP SWAP3 SWAP2 POP POP JUMP JUMPDEST PUSH1 0x0 PUSH2 0x4E2 DUP3 DUP5 PUSH2 0x4A5 JUMP JUMPDEST SWAP2 POP DUP2 SWAP1 POP SWAP3 SWAP2 POP POP JUMP INVALID LOG2 PUSH5 0x6970667358 0x22 SLT KECCAK256 CALLDATACOPY 0xCC PUSH7 0x9557021A03CC38 ISZERO 0xC0 0xBC CALLVALUE MLOAD JUMPI 0xE1 0xD8 0xBB 0xE3 SGT LOG4 PUSH21 0xF5629A6D96493B28F364736F6C63430008110033A2 PUSH5 0x6970667358 0x22 SLT KECCAK256 GAS PUSH9 0x69480FF63FA6688681 0xEB 0xBB SDIV PUSH9 0xF35B8FE952F25AB3BC SWAP1 CALLCODE ADDMOD DUP16 SWAP11 PUSH31 0x527664736F6C63430008110033000000000000000000000000000000000000 "
				},
				"gasEstimates": {
					"creation": {
						"codeDepositCost": "472600",
						"executionCost": "505",
						"totalCost": "473105"
					},
					"external": {
						"createSimpleStorageContract()": "infinite",
						"sfStore(uint256,uint256)": "infinite",
						"simpleStorageArray(uint256)": "infinite"
					}
				},
				"methodIdentifiers": {
					"createSimpleStorageContract()": "1dda6541",
					"sfStore(uint256,uint256)": "1563700f",
					"simpleStorageArray(uint256)": "64591bf1"
				}
			},
			"storageLayout": {
				"storage": [
					{
						"astId": 64,
						"contract": "contracts/StorageFactory.sol:StorageFactory",
						"label": "simpleStorageArray",
						"offset": 0,
						"slot": "0",
						"type": "t_array(t_contract(SimpleStorage)57)dyn_storage"
					}
				],
				"types": {
					"t_array(t_contract(SimpleStorage)57)dyn_storage": {
						"base": "t_contract(SimpleStorage)57",
						"encoding": "dynamic_array",
						"label": "contract SimpleStorage[]",
						"numberOfBytes": "32"
					},
					"t_contract(SimpleStorage)57": {
						"encoding": "inplace",
						"label": "contract SimpleStorage",
						"numberOfBytes": "20"
					}
				}
			},
			"userdoc": {
				"kind": "user",
				"methods": {},
				"version": 1
			}
		}
	}
}