{
  "address": "0xe7f1725E7734CE288F8367e1Bb143E90bb3F0512",
  "abi": [
    {
      "inputs": [
        {
          "internalType": "address",
          "name": "priceFeedAddress",
          "type": "address"
        }
      ],
      "stateMutability": "nonpayable",
      "type": "constructor"
    },
    {
      "inputs": [],
      "name": "FundMe__NotOwner",
      "type": "error"
    },
    {
      "stateMutability": "payable",
      "type": "fallback"
    },
    {
      "inputs": [],
      "name": "MINIMUM_USD",
      "outputs": [
        {
          "internalType": "uint256",
          "name": "",
          "type": "uint256"
        }
      ],
      "stateMutability": "view",
      "type": "function"
    },
    {
      "inputs": [],
      "name": "cheaperWithdraw",
      "outputs": [],
      "stateMutability": "nonpayable",
      "type": "function"
    },
    {
      "inputs": [],
      "name": "fund",
      "outputs": [],
      "stateMutability": "payable",
      "type": "function"
    },
    {
      "inputs": [
        {
          "internalType": "address",
          "name": "funder",
          "type": "address"
        }
      ],
      "name": "getAddressToAmountFunded",
      "outputs": [
        {
          "internalType": "uint256",
          "name": "",
          "type": "uint256"
        }
      ],
      "stateMutability": "view",
      "type": "function"
    },
    {
      "inputs": [],
      "name": "getBalance",
      "outputs": [
        {
          "internalType": "uint256",
          "name": "",
          "type": "uint256"
        }
      ],
      "stateMutability": "view",
      "type": "function"
    },
    {
      "inputs": [
        {
          "internalType": "uint256",
          "name": "index",
          "type": "uint256"
        }
      ],
      "name": "getFunder",
      "outputs": [
        {
          "internalType": "address",
          "name": "",
          "type": "address"
        }
      ],
      "stateMutability": "view",
      "type": "function"
    },
    {
      "inputs": [],
      "name": "getFundersLength",
      "outputs": [
        {
          "internalType": "uint256",
          "name": "",
          "type": "uint256"
        }
      ],
      "stateMutability": "view",
      "type": "function"
    },
    {
      "inputs": [],
      "name": "getOwner",
      "outputs": [
        {
          "internalType": "address",
          "name": "",
          "type": "address"
        }
      ],
      "stateMutability": "view",
      "type": "function"
    },
    {
      "inputs": [],
      "name": "getPrice",
      "outputs": [
        {
          "internalType": "uint256",
          "name": "",
          "type": "uint256"
        }
      ],
      "stateMutability": "view",
      "type": "function"
    },
    {
      "inputs": [],
      "name": "getPriceFeed",
      "outputs": [
        {
          "internalType": "contract AggregatorV3Interface",
          "name": "",
          "type": "address"
        }
      ],
      "stateMutability": "view",
      "type": "function"
    },
    {
      "inputs": [],
      "name": "withdraw",
      "outputs": [],
      "stateMutability": "payable",
      "type": "function"
    },
    {
      "stateMutability": "payable",
      "type": "receive"
    }
  ],
  "transactionHash": "0xd1f159c15ace49a0d091b99e1f8c779694c27ec3020f7fffd9a8d4321de03af2",
  "args": [
    "0x5FbDB2315678afecb367f032d93F642f64180aa3"
  ],
  "numDeployments": 1,
  "solcInputHash": "ed5af528664d351e4b53a1da69e3f950",
  "bytecode": "0x60a06040523480156200001157600080fd5b50604051620013d0380380620013d0833981810160405281019062000037919062000120565b3373ffffffffffffffffffffffffffffffffffffffff1660808173ffffffffffffffffffffffffffffffffffffffff1660601b8152505080600260006101000a81548173ffffffffffffffffffffffffffffffffffffffff021916908373ffffffffffffffffffffffffffffffffffffffff1602179055505062000152565b600080fd5b600073ffffffffffffffffffffffffffffffffffffffff82169050919050565b6000620000e882620000bb565b9050919050565b620000fa81620000db565b81146200010657600080fd5b50565b6000815190506200011a81620000ef565b92915050565b600060208284031215620001395762000138620000b6565b5b6000620001498482850162000109565b91505092915050565b60805160601c61124a62000186600039600081816103eb01528181610639015281816106bb01526108b1015261124a6000f3fe6080604052600436106100a05760003560e01c806398d5fdca1161006457806398d5fdca146101815780639e87a5cd146101ac578063b60d4288146101d7578063be2693f0146101e1578063c90e7566146101f8578063d7b4750c14610223576100af565b80630343fb25146100b957806312065fe0146100f65780633ccfd60b146101215780636b69a5921461012b578063893d20e814610156576100af565b366100af576100ad610260565b005b6100b7610260565b005b3480156100c557600080fd5b506100e060048036038101906100db9190610b82565b610399565b6040516100ed9190610bc8565b60405180910390f35b34801561010257600080fd5b5061010b6103e1565b6040516101189190610bc8565b60405180910390f35b6101296103e9565b005b34801561013757600080fd5b50610140610629565b60405161014d9190610bc8565b60405180910390f35b34801561016257600080fd5b5061016b610635565b6040516101789190610bf2565b60405180910390f35b34801561018d57600080fd5b5061019661065d565b6040516101a39190610bc8565b60405180910390f35b3480156101b857600080fd5b506101c161068f565b6040516101ce9190610c6c565b60405180910390f35b6101df610260565b005b3480156101ed57600080fd5b506101f66106b9565b005b34801561020457600080fd5b5061020d610947565b60405161021a9190610bc8565b60405180910390f35b34801561022f57600080fd5b5061024a60048036038101906102459190610cb3565b610954565b6040516102579190610bf2565b60405180910390f35b670de0b6b3a764000061029e600260009054906101000a900473ffffffffffffffffffffffffffffffffffffffff163461099c90919063ffffffff16565b10156102df576040517f08c379a00000000000000000000000000000000000000000000000000000000081526004016102d690610d3d565b60405180910390fd5b6001339080600181540180825580915050600190039060005260206000200160009091909190916101000a81548173ffffffffffffffffffffffffffffffffffffffff021916908373ffffffffffffffffffffffffffffffffffffffff160217905550346000803373ffffffffffffffffffffffffffffffffffffffff1673ffffffffffffffffffffffffffffffffffffffff16815260200190815260200160002060008282546103909190610d8c565b92505081905550565b60008060008373ffffffffffffffffffffffffffffffffffffffff1673ffffffffffffffffffffffffffffffffffffffff168152602001908152602001600020549050919050565b600047905090565b7f000000000000000000000000000000000000000000000000000000000000000073ffffffffffffffffffffffffffffffffffffffff163373ffffffffffffffffffffffffffffffffffffffff161461046e576040517f579610db00000000000000000000000000000000000000000000000000000000815260040160405180910390fd5b60005b6001805490508110156105195760006001828154811061049457610493610de2565b5b9060005260206000200160009054906101000a900473ffffffffffffffffffffffffffffffffffffffff16905060008060008373ffffffffffffffffffffffffffffffffffffffff1673ffffffffffffffffffffffffffffffffffffffff1681526020019081526020016000208190555050808061051190610e11565b915050610471565b50600067ffffffffffffffff81111561053557610534610e5a565b5b6040519080825280602002602001820160405280156105635781602001602082028036833780820191505090505b5060019080519060200190610579929190610a78565b5060003373ffffffffffffffffffffffffffffffffffffffff16476040516105a090610eba565b60006040518083038185875af1925050503d80600081146105dd576040519150601f19603f3d011682016040523d82523d6000602084013e6105e2565b606091505b5050905080610626576040517f08c379a000000000000000000000000000000000000000000000000000000000815260040161061d90610f1b565b60405180910390fd5b50565b670de0b6b3a764000081565b60007f0000000000000000000000000000000000000000000000000000000000000000905090565b600061068a600260009054906101000a900473ffffffffffffffffffffffffffffffffffffffff166109d8565b905090565b6000600260009054906101000a900473ffffffffffffffffffffffffffffffffffffffff16905090565b7f000000000000000000000000000000000000000000000000000000000000000073ffffffffffffffffffffffffffffffffffffffff163373ffffffffffffffffffffffffffffffffffffffff161461073e576040517f579610db00000000000000000000000000000000000000000000000000000000815260040160405180910390fd5b600060018054806020026020016040519081016040528092919081815260200182805480156107c257602002820191906000526020600020905b8160009054906101000a900473ffffffffffffffffffffffffffffffffffffffff1673ffffffffffffffffffffffffffffffffffffffff1681526020019060010190808311610778575b5050505050905060005b815181101561084c5760008282815181106107ea576107e9610de2565b5b6020026020010151905060008060008373ffffffffffffffffffffffffffffffffffffffff1673ffffffffffffffffffffffffffffffffffffffff1681526020019081526020016000208190555050808061084490610e11565b9150506107cc565b50600067ffffffffffffffff81111561086857610867610e5a565b5b6040519080825280602002602001820160405280156108965781602001602082028036833780820191505090505b50600190805190602001906108ac929190610a78565b5060007f000000000000000000000000000000000000000000000000000000000000000073ffffffffffffffffffffffffffffffffffffffff16476040516108f390610eba565b60006040518083038185875af1925050503d8060008114610930576040519150601f19603f3d011682016040523d82523d6000602084013e610935565b606091505b505090508061094357600080fd5b5050565b6000600180549050905090565b60006001828154811061096a57610969610de2565b5b9060005260206000200160009054906101000a900473ffffffffffffffffffffffffffffffffffffffff169050919050565b6000806109a8836109d8565b90506000670de0b6b3a764000085836109c19190610f3b565b6109cb9190610fc4565b9050809250505092915050565b6000808273ffffffffffffffffffffffffffffffffffffffff1663feaf968c6040518163ffffffff1660e01b815260040160a06040518083038186803b158015610a2157600080fd5b505afa158015610a35573d6000803e3d6000fd5b505050506040513d601f19601f82011682018060405250810190610a599190611082565b5050509150506402540be40081610a7091906110fd565b915050919050565b828054828255906000526020600020908101928215610af1579160200282015b82811115610af05782518260006101000a81548173ffffffffffffffffffffffffffffffffffffffff021916908373ffffffffffffffffffffffffffffffffffffffff16021790555091602001919060010190610a98565b5b509050610afe9190610b02565b5090565b5b80821115610b1b576000816000905550600101610b03565b5090565b600080fd5b600073ffffffffffffffffffffffffffffffffffffffff82169050919050565b6000610b4f82610b24565b9050919050565b610b5f81610b44565b8114610b6a57600080fd5b50565b600081359050610b7c81610b56565b92915050565b600060208284031215610b9857610b97610b1f565b5b6000610ba684828501610b6d565b91505092915050565b6000819050919050565b610bc281610baf565b82525050565b6000602082019050610bdd6000830184610bb9565b92915050565b610bec81610b44565b82525050565b6000602082019050610c076000830184610be3565b92915050565b6000819050919050565b6000610c32610c2d610c2884610b24565b610c0d565b610b24565b9050919050565b6000610c4482610c17565b9050919050565b6000610c5682610c39565b9050919050565b610c6681610c4b565b82525050565b6000602082019050610c816000830184610c5d565b92915050565b610c9081610baf565b8114610c9b57600080fd5b50565b600081359050610cad81610c87565b92915050565b600060208284031215610cc957610cc8610b1f565b5b6000610cd784828501610c9e565b91505092915050565b600082825260208201905092915050565b7f596f75206e65656420746f207370656e64206d6f726520455448210000000000600082015250565b6000610d27601b83610ce0565b9150610d3282610cf1565b602082019050919050565b60006020820190508181036000830152610d5681610d1a565b9050919050565b7f4e487b7100000000000000000000000000000000000000000000000000000000600052601160045260246000fd5b6000610d9782610baf565b9150610da283610baf565b9250827fffffffffffffffffffffffffffffffffffffffffffffffffffffffffffffffff03821115610dd757610dd6610d5d565b5b828201905092915050565b7f4e487b7100000000000000000000000000000000000000000000000000000000600052603260045260246000fd5b6000610e1c82610baf565b91507fffffffffffffffffffffffffffffffffffffffffffffffffffffffffffffffff821415610e4f57610e4e610d5d565b5b600182019050919050565b7f4e487b7100000000000000000000000000000000000000000000000000000000600052604160045260246000fd5b600081905092915050565b50565b6000610ea4600083610e89565b9150610eaf82610e94565b600082019050919050565b6000610ec582610e97565b9150819050919050565b7f43616c6c206661696c6564000000000000000000000000000000000000000000600082015250565b6000610f05600b83610ce0565b9150610f1082610ecf565b602082019050919050565b60006020820190508181036000830152610f3481610ef8565b9050919050565b6000610f4682610baf565b9150610f5183610baf565b9250817fffffffffffffffffffffffffffffffffffffffffffffffffffffffffffffffff0483118215151615610f8a57610f89610d5d565b5b828202905092915050565b7f4e487b7100000000000000000000000000000000000000000000000000000000600052601260045260246000fd5b6000610fcf82610baf565b9150610fda83610baf565b925082610fea57610fe9610f95565b5b828204905092915050565b600069ffffffffffffffffffff82169050919050565b61101481610ff5565b811461101f57600080fd5b50565b6000815190506110318161100b565b92915050565b6000819050919050565b61104a81611037565b811461105557600080fd5b50565b60008151905061106781611041565b92915050565b60008151905061107c81610c87565b92915050565b600080600080600060a0868803121561109e5761109d610b1f565b5b60006110ac88828901611022565b95505060206110bd88828901611058565b94505060406110ce8882890161106d565b93505060606110df8882890161106d565b92505060806110f088828901611022565b9150509295509295909350565b600061110882611037565b915061111383611037565b9250827f7fffffffffffffffffffffffffffffffffffffffffffffffffffffffffffffff048211600084136000841316161561115257611151610d5d565b5b817f8000000000000000000000000000000000000000000000000000000000000000058312600084126000841316161561118f5761118e610d5d565b5b827f800000000000000000000000000000000000000000000000000000000000000005821260008413600084121616156111cc576111cb610d5d565b5b827f7fffffffffffffffffffffffffffffffffffffffffffffffffffffffffffffff058212600084126000841216161561120957611208610d5d565b5b82820290509291505056fea26469706673582212208bbcdd65290191cb1ef2e7a87fc9b4e37b2d98cf05db010e07d996eeac11e7f164736f6c63430008080033",
  "devdoc": {
    "author": "Ramon Royo",
    "details": "This implements price feeds as our library",
    "kind": "dev",
    "methods": {},
    "title": "A contract for crown funding",
    "version": 1
  },
  "userdoc": {
    "kind": "user",
    "methods": {},
    "notice": "This contract is to demo a sample funding contract",
    "version": 1
  },
  "storageLayout": {
    "storage": [
      {
        "astId": 59,
        "contract": "contracts/FundMe.sol:FundMe",
        "label": "s_addressToAmountFunded",
        "offset": 0,
        "slot": "0",
        "type": "t_mapping(t_address,t_uint256)"
      },
      {
        "astId": 62,
        "contract": "contracts/FundMe.sol:FundMe",
        "label": "s_funders",
        "offset": 0,
        "slot": "1",
        "type": "t_array(t_address)dyn_storage"
      },
      {
        "astId": 72,
        "contract": "contracts/FundMe.sol:FundMe",
        "label": "s_priceFeed",
        "offset": 0,
        "slot": "2",
        "type": "t_contract(AggregatorV3Interface)45"
      }
    ],
    "types": {
      "t_address": {
        "encoding": "inplace",
        "label": "address",
        "numberOfBytes": "20"
      },
      "t_array(t_address)dyn_storage": {
        "base": "t_address",
        "encoding": "dynamic_array",
        "label": "address[]",
        "numberOfBytes": "32"
      },
      "t_contract(AggregatorV3Interface)45": {
        "encoding": "inplace",
        "label": "contract AggregatorV3Interface",
        "numberOfBytes": "20"
      },
      "t_mapping(t_address,t_uint256)": {
        "encoding": "mapping",
        "key": "t_address",
        "label": "mapping(address => uint256)",
        "numberOfBytes": "32",
        "value": "t_uint256"
      },
      "t_uint256": {
        "encoding": "inplace",
        "label": "uint256",
        "numberOfBytes": "32"
      }
    }
  }
}