{
  "address": "0xe7f1725E7734CE288F8367e1Bb143E90bb3F0512",
  "abi": [
    {
      "inputs": [
        {
          "internalType": "address",
          "name": "priceFeedAddress",
          "type": "address"
        }
      ],
      "stateMutability": "nonpayable",
      "type": "constructor"
    },
    {
      "inputs": [],
      "name": "FundMe__NotOwner",
      "type": "error"
    },
    {
      "stateMutability": "payable",
      "type": "fallback"
    },
    {
      "inputs": [],
      "name": "MINIMUM_USD",
      "outputs": [
        {
          "internalType": "uint256",
          "name": "",
          "type": "uint256"
        }
      ],
      "stateMutability": "view",
      "type": "function"
    },
    {
      "inputs": [
        {
          "internalType": "address",
          "name": "",
          "type": "address"
        }
      ],
      "name": "addressToAmountFunded",
      "outputs": [
        {
          "internalType": "uint256",
          "name": "",
          "type": "uint256"
        }
      ],
      "stateMutability": "view",
      "type": "function"
    },
    {
      "inputs": [],
      "name": "fund",
      "outputs": [],
      "stateMutability": "payable",
      "type": "function"
    },
    {
      "inputs": [
        {
          "internalType": "uint256",
          "name": "",
          "type": "uint256"
        }
      ],
      "name": "funders",
      "outputs": [
        {
          "internalType": "address",
          "name": "",
          "type": "address"
        }
      ],
      "stateMutability": "view",
      "type": "function"
    },
    {
      "inputs": [],
      "name": "getPrice",
      "outputs": [
        {
          "internalType": "uint256",
          "name": "",
          "type": "uint256"
        }
      ],
      "stateMutability": "view",
      "type": "function"
    },
    {
      "inputs": [],
      "name": "i_owner",
      "outputs": [
        {
          "internalType": "address",
          "name": "",
          "type": "address"
        }
      ],
      "stateMutability": "view",
      "type": "function"
    },
    {
      "inputs": [],
      "name": "priceFeed",
      "outputs": [
        {
          "internalType": "contract AggregatorV3Interface",
          "name": "",
          "type": "address"
        }
      ],
      "stateMutability": "view",
      "type": "function"
    },
    {
      "inputs": [],
      "name": "withdraw",
      "outputs": [],
      "stateMutability": "nonpayable",
      "type": "function"
    },
    {
      "stateMutability": "payable",
      "type": "receive"
    }
  ],
  "transactionHash": "0xae82c4ed03a4e480f6c68e4f76d9a3f26befe5fc830043cae4b3cfc9fbe3c25a",
  "args": [
    "0x5FbDB2315678afecb367f032d93F642f64180aa3"
  ],
  "numDeployments": 1,
  "solcInputHash": "428c04fe2d083e9bdfbf2bdc99b87df3",
  "bytecode": "0x60a060405234801561001057600080fd5b506040516200104d3803806200104d83398181016040528101906100349190610115565b3373ffffffffffffffffffffffffffffffffffffffff1660808173ffffffffffffffffffffffffffffffffffffffff1660601b8152505080600260006101000a81548173ffffffffffffffffffffffffffffffffffffffff021916908373ffffffffffffffffffffffffffffffffffffffff16021790555050610142565b600080fd5b600073ffffffffffffffffffffffffffffffffffffffff82169050919050565b60006100e2826100b7565b9050919050565b6100f2816100d7565b81146100fd57600080fd5b50565b60008151905061010f816100e9565b92915050565b60006020828403121561012b5761012a6100b2565b5b600061013984828501610100565b91505092915050565b60805160601c610ee5620001686000396000818161031a01526105d60152610ee56000f3fe60806040526004361061007f5760003560e01c806398d5fdca1161004e57806398d5fdca14610142578063b60d42881461016d578063dba6335f14610177578063dc0d3dff146101a25761008e565b80633ccfd60b146100985780633e47d6f3146100af5780636b69a592146100ec578063741bef1a146101175761008e565b3661008e5761008c6101df565b005b6100966101df565b005b3480156100a457600080fd5b506100ad610318565b005b3480156100bb57600080fd5b506100d660048036038101906100d1919061081d565b610558565b6040516100e39190610863565b60405180910390f35b3480156100f857600080fd5b50610101610570565b60405161010e9190610863565b60405180910390f35b34801561012357600080fd5b5061012c61057c565b60405161013991906108dd565b60405180910390f35b34801561014e57600080fd5b506101576105a2565b6040516101649190610863565b60405180910390f35b6101756101df565b005b34801561018357600080fd5b5061018c6105d4565b6040516101999190610907565b60405180910390f35b3480156101ae57600080fd5b506101c960048036038101906101c4919061094e565b6105f8565b6040516101d69190610907565b60405180910390f35b670de0b6b3a764000061021d600260009054906101000a900473ffffffffffffffffffffffffffffffffffffffff163461063790919063ffffffff16565b101561025e576040517f08c379a0000000000000000000000000000000000000000000000000000000008152600401610255906109d8565b60405180910390fd5b6001339080600181540180825580915050600190039060005260206000200160009091909190916101000a81548173ffffffffffffffffffffffffffffffffffffffff021916908373ffffffffffffffffffffffffffffffffffffffff160217905550346000803373ffffffffffffffffffffffffffffffffffffffff1673ffffffffffffffffffffffffffffffffffffffff168152602001908152602001600020600082825461030f9190610a27565b92505081905550565b7f000000000000000000000000000000000000000000000000000000000000000073ffffffffffffffffffffffffffffffffffffffff163373ffffffffffffffffffffffffffffffffffffffff161461039d576040517f579610db00000000000000000000000000000000000000000000000000000000815260040160405180910390fd5b60005b600180549050811015610448576000600182815481106103c3576103c2610a7d565b5b9060005260206000200160009054906101000a900473ffffffffffffffffffffffffffffffffffffffff16905060008060008373ffffffffffffffffffffffffffffffffffffffff1673ffffffffffffffffffffffffffffffffffffffff1681526020019081526020016000208190555050808061044090610aac565b9150506103a0565b50600067ffffffffffffffff81111561046457610463610af5565b5b6040519080825280602002602001820160405280156104925781602001602082028036833780820191505090505b50600190805190602001906104a8929190610713565b5060003373ffffffffffffffffffffffffffffffffffffffff16476040516104cf90610b55565b60006040518083038185875af1925050503d806000811461050c576040519150601f19603f3d011682016040523d82523d6000602084013e610511565b606091505b5050905080610555576040517f08c379a000000000000000000000000000000000000000000000000000000000815260040161054c90610bb6565b60405180910390fd5b50565b60006020528060005260406000206000915090505481565b670de0b6b3a764000081565b600260009054906101000a900473ffffffffffffffffffffffffffffffffffffffff1681565b60006105cf600260009054906101000a900473ffffffffffffffffffffffffffffffffffffffff16610673565b905090565b7f000000000000000000000000000000000000000000000000000000000000000081565b6001818154811061060857600080fd5b906000526020600020016000915054906101000a900473ffffffffffffffffffffffffffffffffffffffff1681565b60008061064383610673565b90506000670de0b6b3a7640000858361065c9190610bd6565b6106669190610c5f565b9050809250505092915050565b6000808273ffffffffffffffffffffffffffffffffffffffff1663feaf968c6040518163ffffffff1660e01b815260040160a06040518083038186803b1580156106bc57600080fd5b505afa1580156106d0573d6000803e3d6000fd5b505050506040513d601f19601f820116820180604052508101906106f49190610d1d565b5050509150506402540be4008161070b9190610d98565b915050919050565b82805482825590600052602060002090810192821561078c579160200282015b8281111561078b5782518260006101000a81548173ffffffffffffffffffffffffffffffffffffffff021916908373ffffffffffffffffffffffffffffffffffffffff16021790555091602001919060010190610733565b5b509050610799919061079d565b5090565b5b808211156107b657600081600090555060010161079e565b5090565b600080fd5b600073ffffffffffffffffffffffffffffffffffffffff82169050919050565b60006107ea826107bf565b9050919050565b6107fa816107df565b811461080557600080fd5b50565b600081359050610817816107f1565b92915050565b600060208284031215610833576108326107ba565b5b600061084184828501610808565b91505092915050565b6000819050919050565b61085d8161084a565b82525050565b60006020820190506108786000830184610854565b92915050565b6000819050919050565b60006108a361089e610899846107bf565b61087e565b6107bf565b9050919050565b60006108b582610888565b9050919050565b60006108c7826108aa565b9050919050565b6108d7816108bc565b82525050565b60006020820190506108f260008301846108ce565b92915050565b610901816107df565b82525050565b600060208201905061091c60008301846108f8565b92915050565b61092b8161084a565b811461093657600080fd5b50565b60008135905061094881610922565b92915050565b600060208284031215610964576109636107ba565b5b600061097284828501610939565b91505092915050565b600082825260208201905092915050565b7f596f75206e65656420746f207370656e64206d6f726520455448210000000000600082015250565b60006109c2601b8361097b565b91506109cd8261098c565b602082019050919050565b600060208201905081810360008301526109f1816109b5565b9050919050565b7f4e487b7100000000000000000000000000000000000000000000000000000000600052601160045260246000fd5b6000610a328261084a565b9150610a3d8361084a565b9250827fffffffffffffffffffffffffffffffffffffffffffffffffffffffffffffffff03821115610a7257610a716109f8565b5b828201905092915050565b7f4e487b7100000000000000000000000000000000000000000000000000000000600052603260045260246000fd5b6000610ab78261084a565b91507fffffffffffffffffffffffffffffffffffffffffffffffffffffffffffffffff821415610aea57610ae96109f8565b5b600182019050919050565b7f4e487b7100000000000000000000000000000000000000000000000000000000600052604160045260246000fd5b600081905092915050565b50565b6000610b3f600083610b24565b9150610b4a82610b2f565b600082019050919050565b6000610b6082610b32565b9150819050919050565b7f43616c6c206661696c6564000000000000000000000000000000000000000000600082015250565b6000610ba0600b8361097b565b9150610bab82610b6a565b602082019050919050565b60006020820190508181036000830152610bcf81610b93565b9050919050565b6000610be18261084a565b9150610bec8361084a565b9250817fffffffffffffffffffffffffffffffffffffffffffffffffffffffffffffffff0483118215151615610c2557610c246109f8565b5b828202905092915050565b7f4e487b7100000000000000000000000000000000000000000000000000000000600052601260045260246000fd5b6000610c6a8261084a565b9150610c758361084a565b925082610c8557610c84610c30565b5b828204905092915050565b600069ffffffffffffffffffff82169050919050565b610caf81610c90565b8114610cba57600080fd5b50565b600081519050610ccc81610ca6565b92915050565b6000819050919050565b610ce581610cd2565b8114610cf057600080fd5b50565b600081519050610d0281610cdc565b92915050565b600081519050610d1781610922565b92915050565b600080600080600060a08688031215610d3957610d386107ba565b5b6000610d4788828901610cbd565b9550506020610d5888828901610cf3565b9450506040610d6988828901610d08565b9350506060610d7a88828901610d08565b9250506080610d8b88828901610cbd565b9150509295509295909350565b6000610da382610cd2565b9150610dae83610cd2565b9250827f7fffffffffffffffffffffffffffffffffffffffffffffffffffffffffffffff0482116000841360008413161615610ded57610dec6109f8565b5b817f80000000000000000000000000000000000000000000000000000000000000000583126000841260008413161615610e2a57610e296109f8565b5b827f80000000000000000000000000000000000000000000000000000000000000000582126000841360008412161615610e6757610e666109f8565b5b827f7fffffffffffffffffffffffffffffffffffffffffffffffffffffffffffffff0582126000841260008412161615610ea457610ea36109f8565b5b82820290509291505056fea2646970667358221220d3abd26ee695bfb3c4fd2df1b0c86bcdf80038687e0eaaddd7e0699737c6410164736f6c63430008080033",
  "devdoc": {
    "author": "Ramon Royo",
    "details": "This implements price feeds as our library",
    "kind": "dev",
    "methods": {},
    "title": "A contract for crown funding",
    "version": 1
  },
  "userdoc": {
    "kind": "user",
    "methods": {},
    "notice": "This contract is to demo a sample funding contract",
    "version": 1
  },
  "storageLayout": {
    "storage": [
      {
        "astId": 59,
        "contract": "contracts/FundMe.sol:FundMe",
        "label": "addressToAmountFunded",
        "offset": 0,
        "slot": "0",
        "type": "t_mapping(t_address,t_uint256)"
      },
      {
        "astId": 62,
        "contract": "contracts/FundMe.sol:FundMe",
        "label": "funders",
        "offset": 0,
        "slot": "1",
        "type": "t_array(t_address)dyn_storage"
      },
      {
        "astId": 72,
        "contract": "contracts/FundMe.sol:FundMe",
        "label": "priceFeed",
        "offset": 0,
        "slot": "2",
        "type": "t_contract(AggregatorV3Interface)45"
      }
    ],
    "types": {
      "t_address": {
        "encoding": "inplace",
        "label": "address",
        "numberOfBytes": "20"
      },
      "t_array(t_address)dyn_storage": {
        "base": "t_address",
        "encoding": "dynamic_array",
        "label": "address[]",
        "numberOfBytes": "32"
      },
      "t_contract(AggregatorV3Interface)45": {
        "encoding": "inplace",
        "label": "contract AggregatorV3Interface",
        "numberOfBytes": "20"
      },
      "t_mapping(t_address,t_uint256)": {
        "encoding": "mapping",
        "key": "t_address",
        "label": "mapping(address => uint256)",
        "numberOfBytes": "32",
        "value": "t_uint256"
      },
      "t_uint256": {
        "encoding": "inplace",
        "label": "uint256",
        "numberOfBytes": "32"
      }
    }
  }
}